{
  "contractName": "CoinFlip",
  "abi": [
    {
      "inputs": [],
      "payable": false,
      "stateMutability": "nonpayable",
      "type": "constructor"
    },
    {
      "anonymous": false,
      "inputs": [
        {
          "indexed": false,
          "internalType": "uint256",
          "name": "value",
          "type": "uint256"
        },
        {
          "indexed": false,
          "internalType": "string",
          "name": "outcome",
          "type": "string"
        }
      ],
      "name": "stakeOutcome",
      "type": "event"
    },
    {
      "constant": true,
      "inputs": [],
      "name": "balance",
      "outputs": [
        {
          "internalType": "uint256",
          "name": "",
          "type": "uint256"
        }
      ],
      "payable": false,
      "stateMutability": "view",
      "type": "function"
    },
    {
      "constant": false,
      "inputs": [],
      "name": "destroy",
      "outputs": [],
      "payable": false,
      "stateMutability": "nonpayable",
      "type": "function"
    },
    {
      "constant": true,
      "inputs": [],
      "name": "outcome",
      "outputs": [
        {
          "internalType": "uint256",
          "name": "",
          "type": "uint256"
        }
      ],
      "payable": false,
      "stateMutability": "view",
      "type": "function"
    },
    {
      "constant": false,
      "inputs": [
        {
          "internalType": "uint256",
          "name": "number",
          "type": "uint256"
        }
      ],
      "name": "guess",
      "outputs": [],
      "payable": true,
      "stateMutability": "payable",
      "type": "function"
    },
    {
      "constant": false,
      "inputs": [],
      "name": "addLiquidity",
      "outputs": [
        {
          "internalType": "uint256",
          "name": "",
          "type": "uint256"
        }
      ],
      "payable": true,
      "stateMutability": "payable",
      "type": "function"
    }
  ],
  "bytecode": "0x6080604052670de0b6b3a7640000600155600060025534801561002157600080fd5b50336000806101000a81548173ffffffffffffffffffffffffffffffffffffffff021916908373ffffffffffffffffffffffffffffffffffffffff1602179055506000600381905550610897806100796000396000f3fe60806040526004361061004a5760003560e01c806327793f871461004f57806383197ef01461007a5780639189fec114610091578063b69ef8a8146100bf578063e8078d94146100ea575b600080fd5b34801561005b57600080fd5b50610064610108565b6040518082815260200191505060405180910390f35b34801561008657600080fd5b5061008f61010e565b005b6100bd600480360360208110156100a757600080fd5b81019080803590602001909291905050506101a1565b005b3480156100cb57600080fd5b506100d461056c565b6040518082815260200191505060405180910390f35b6100f2610572565b6040518082815260200191505060405180910390f35b60025481565b6000809054906101000a900473ffffffffffffffffffffffffffffffffffffffff1673ffffffffffffffffffffffffffffffffffffffff163373ffffffffffffffffffffffffffffffffffffffff161461016757600080fd5b6000809054906101000a900473ffffffffffffffffffffffffffffffffffffffff1673ffffffffffffffffffffffffffffffffffffffff16ff5b6001546001543410156101ff576040517f08c379a000000000000000000000000000000000000000000000000000000000815260040180806020018281038252602a815260200180610839602a913960400191505060405180910390fd5b600082148061020e5750600182145b610263576040517f08c379a000000000000000000000000000000000000000000000000000000000815260040180806020018281038252602c81526020018061077d602c913960400191505060405180910390fd5b3460035410156102be576040517f08c379a00000000000000000000000000000000000000000000000000000000081526004018080602001828103825260428152602001806107a96042913960600191505060405180910390fd5b34600460003373ffffffffffffffffffffffffffffffffffffffff1673ffffffffffffffffffffffffffffffffffffffff16815260200190815260200160002081905550610356600460003373ffffffffffffffffffffffffffffffffffffffff1673ffffffffffffffffffffffffffffffffffffffff1681526020019081526020016000205460035461065790919063ffffffff16565b6003819055506103646106df565b8214156104825760006103c06002600460003373ffffffffffffffffffffffffffffffffffffffff1673ffffffffffffffffffffffffffffffffffffffff168152602001908152602001600020546106f690919063ffffffff16565b90503373ffffffffffffffffffffffffffffffffffffffff166108fc829081150290604051600060405180830381858888f19350505050158015610408573d6000803e3d6000fd5b50806003600082825403925050819055506104216106df565b831461042957fe5b7f935c27599a97adc19e09ac892d1c4460e9806b0513bc496f9536d7852ac145f98160405180828152602001806020018281038252602d81526020018061080c602d91396040019250505060405180910390a150610543565b61048a6106df565b82141561049357fe5b7f935c27599a97adc19e09ac892d1c4460e9806b0513bc496f9536d7852ac145f9600460003373ffffffffffffffffffffffffffffffffffffffff1673ffffffffffffffffffffffffffffffffffffffff168152602001908152602001600020546040518082815260200180602001828103825260198152602001807f596f752068617665206c6f737420796f7572207374616b6521000000000000008152506020019250505060405180910390a15b6000600254148061055657506001600254145b61055c57fe5b34600354101561056857fe5b5050565b60035481565b60006001546001543410156105d2576040517f08c379a000000000000000000000000000000000000000000000000000000000815260040180806020018281038252602a815260200180610839602a913960400191505060405180910390fd5b6000809054906101000a900473ffffffffffffffffffffffffffffffffffffffff1673ffffffffffffffffffffffffffffffffffffffff163373ffffffffffffffffffffffffffffffffffffffff161461062b57600080fd5b6000600354905034600360008282540192505081905550806003541161064d57fe5b6003549250505090565b6000808284019050838110156106d5576040517f08c379a000000000000000000000000000000000000000000000000000000000815260040180806020018281038252601b8152602001807f536166654d6174683a206164646974696f6e206f766572666c6f77000000000081525060200191505060405180910390fd5b8091505092915050565b6000600242816106eb57fe5b066002819055905090565b6000808314156107095760009050610776565b600082840290508284828161071a57fe5b0414610771576040517f08c379a00000000000000000000000000000000000000000000000000000000081526004018080602001828103825260218152602001806107eb6021913960400191505060405180910390fd5b809150505b9291505056fe706c65617365207069636b206120612077686f6c65206e756d626572206265747765656e203020616e642031636f6e74726163742068617320696e73756666696369656e742066756e647320666f722061207061796f757420696e20746865206576656e74206f6620612077696e536166654d6174683a206d756c7469706c69636174696f6e206f766572666c6f77436f6e67726174756c6174696f6e732120596f75206861766520646f75626c656420796f7572207374616b65214d7573742073656e64206174206c65617374203120657468657220746f2074686520636f6e7472616374a265627a7a723158203c7813854808b1fdb22e95a93204f2946e1173f41f1646d596db5a2723a6e14264736f6c634300050c0032",
  "source": "import \"./Ownable.sol\";\r\nimport \"./Destroyable.sol\";\r\nimport \"./SafeMath.sol\";\r\npragma solidity 0.5.12;\r\n\r\n\r\ncontract CoinFlip is Ownable, Destroyable {\r\n\r\n\r\nusing SafeMath for uint256;\r\n\r\nuint private spend = 1 ether;\r\n\r\nuint public outcome = 0;\r\n\r\nuint public balance;\r\n\r\nmapping (address => uint) private stake;\r\n\r\nevent stakeOutcome(uint value, string outcome);\r\n\r\n modifier minimumCost(uint cost) {\r\n     require(msg.value >= spend, \"Must send at least 1 ether to the contract\");\r\n     _;\r\n}\r\n\r\n constructor() public{\r\n     balance = 0;\r\n }\r\n\r\n\r\n function random() private returns(uint){\r\n     return outcome = now % 2;\r\n }\r\n\r\n\r\nfunction guess(uint number) public payable minimumCost(spend) {\r\n    require(number == 0 || number == 1, \"please pick a a whole number between 0 and 1\");\r\n    require(balance >= msg.value, \"contract has insufficient funds for a payout in the event of a win\");\r\n\r\n    stake[msg.sender] = msg.value;\r\n\r\n    balance = balance.add(stake[msg.sender]);\r\n\r\n    if(number == random()){\r\n\r\n        uint winnings = stake[msg.sender].mul(2);\r\n\r\n         msg.sender.transfer(winnings);\r\n\r\n         balance -= winnings;\r\n\r\n         assert(number == random());\r\n         emit stakeOutcome(winnings, \"Congratulations! You have doubled your stake!\");\r\n\r\n    } else {\r\n      assert(number != random());\r\n      emit stakeOutcome(stake[msg.sender], \"You have lost your stake!\");\r\n    }\r\n\r\n    assert(outcome == 0 || outcome == 1);\r\n    assert(balance >= msg.value);\r\n\r\n}\r\n\r\nfunction addLiquidity() public payable minimumCost(spend) onlyOwner returns(uint) {\r\n\r\n    uint old_balance = balance;\r\n\r\n    balance += msg.value;\r\n\r\n    assert(balance > old_balance);\r\n\r\n    return balance;\r\n\r\n}\r\n\r\n\r\n}\r\n",
  "sourcePath": "D:/Ivan On Tech Academy/Ethereum Programming 201/CoinFlip/contracts/CoinFlip.sol",
  "compiler": {
    "name": "solc",
    "version": "0.5.12+commit.7709ece9.Emscripten.clang"
  },
  "schemaVersion": "3.0.16",
  "updatedAt": "2020-11-13T17:44:32.614Z",
  "devdoc": {
    "methods": {}
  },
  "userdoc": {
    "methods": {}
  }
}