{
  "contractName": "CoinFlip",
  "abi": [
    {
      "inputs": [],
      "payable": false,
      "stateMutability": "nonpayable",
      "type": "constructor"
    },
    {
      "anonymous": false,
      "inputs": [
        {
          "indexed": false,
          "internalType": "string",
          "name": "description",
          "type": "string"
        }
      ],
      "name": "LogNewProvableQuery",
      "type": "event"
    },
    {
      "anonymous": false,
      "inputs": [
        {
          "indexed": false,
          "internalType": "uint256",
          "name": "randomNumber",
          "type": "uint256"
        }
      ],
      "name": "generatedRandomNumber",
      "type": "event"
    },
    {
      "anonymous": false,
      "inputs": [
        {
          "indexed": false,
          "internalType": "uint256",
          "name": "value",
          "type": "uint256"
        },
        {
          "indexed": false,
          "internalType": "string",
          "name": "outcome",
          "type": "string"
        }
      ],
      "name": "playersOutcome",
      "type": "event"
    },
    {
      "constant": true,
      "inputs": [],
      "name": "balance",
      "outputs": [
        {
          "internalType": "uint256",
          "name": "",
          "type": "uint256"
        }
      ],
      "payable": false,
      "stateMutability": "view",
      "type": "function"
    },
    {
      "constant": false,
      "inputs": [],
      "name": "destroy",
      "outputs": [],
      "payable": false,
      "stateMutability": "nonpayable",
      "type": "function"
    },
    {
      "constant": true,
      "inputs": [],
      "name": "outcome",
      "outputs": [
        {
          "internalType": "uint256",
          "name": "",
          "type": "uint256"
        }
      ],
      "payable": false,
      "stateMutability": "view",
      "type": "function"
    },
    {
      "constant": false,
      "inputs": [
        {
          "internalType": "bytes32",
          "name": "_myid",
          "type": "bytes32"
        },
        {
          "internalType": "string",
          "name": "_result",
          "type": "string"
        }
      ],
      "name": "__callback",
      "outputs": [],
      "payable": false,
      "stateMutability": "nonpayable",
      "type": "function"
    },
    {
      "constant": false,
      "inputs": [
        {
          "internalType": "bytes32",
          "name": "_queryId",
          "type": "bytes32"
        },
        {
          "internalType": "string",
          "name": "_result",
          "type": "string"
        },
        {
          "internalType": "bytes",
          "name": "_proof",
          "type": "bytes"
        }
      ],
      "name": "__callback",
      "outputs": [],
      "payable": false,
      "stateMutability": "nonpayable",
      "type": "function"
    },
    {
      "constant": false,
      "inputs": [],
      "name": "update",
      "outputs": [],
      "payable": true,
      "stateMutability": "payable",
      "type": "function"
    },
    {
      "constant": false,
      "inputs": [],
      "name": "testRandom",
      "outputs": [
        {
          "internalType": "bytes32",
          "name": "",
          "type": "bytes32"
        }
      ],
      "payable": false,
      "stateMutability": "nonpayable",
      "type": "function"
    },
    {
      "constant": false,
      "inputs": [
        {
          "internalType": "uint256",
          "name": "number",
          "type": "uint256"
        }
      ],
      "name": "guess",
      "outputs": [],
      "payable": true,
      "stateMutability": "payable",
      "type": "function"
    },
    {
      "constant": false,
      "inputs": [],
      "name": "addLiquidity",
      "outputs": [
        {
          "internalType": "uint256",
          "name": "",
          "type": "uint256"
        }
      ],
      "payable": true,
      "stateMutability": "payable",
      "type": "function"
    }
  ],
  "bytecode": "0x6080604052670de0b6b3a7640000600655600060075534801561002157600080fd5b50336000806101000a81548173ffffffffffffffffffffffffffffffffffffffff021916908373ffffffffffffffffffffffffffffffffffffffff1602179055506000600881905550611a16806100796000396000f3fe6080604052600436106100865760003560e01c80639189fec1116100595780639189fec114610308578063a2e6204514610336578063b69ef8a814610340578063e8078d941461036b578063fbddd14b1461038957610086565b806327793f871461008b57806327dc297e146100b657806338bbfa501461018857806383197ef0146102f1575b600080fd5b34801561009757600080fd5b506100a06103b4565b6040518082815260200191505060405180910390f35b3480156100c257600080fd5b50610186600480360360408110156100d957600080fd5b81019080803590602001909291908035906020019064010000000081111561010057600080fd5b82018360208201111561011257600080fd5b8035906020019184600183028401116401000000008311171561013457600080fd5b91908080601f016020809104026020016040519081016040528093929190818152602001838380828437600081840152601f19601f8201169050808301925050505050505091929192905050506103ba565b005b34801561019457600080fd5b506102ef600480360360608110156101ab57600080fd5b8101908080359060200190929190803590602001906401000000008111156101d257600080fd5b8201836020820111156101e457600080fd5b8035906020019184600183028401116401000000008311171561020657600080fd5b91908080601f016020809104026020016040519081016040528093929190818152602001838380828437600081840152601f19601f8201169050808301925050505050505091929192908035906020019064010000000081111561026957600080fd5b82018360208201111561027b57600080fd5b8035906020019184600183028401116401000000008311171561029d57600080fd5b91908080601f016020809104026020016040519081016040528093929190818152602001838380828437600081840152601f19601f8201169050808301925050505050505091929192905050506103fd565b005b3480156102fd57600080fd5b5061030661065a565b005b6103346004803603602081101561031e57600080fd5b81019080803590602001909291905050506106ed565b005b61033e61086c565b005b34801561034c57600080fd5b5061035561091c565b6040518082815260200191505060405180910390f35b610373610922565b6040518082815260200191505060405180910390f35b34801561039557600080fd5b5061039e610a07565b6040518082815260200191505060405180910390f35b60075481565b6103f9828260006040519080825280601f01601f1916602001820160405280156103f35781602001600182028038833980820191505090505b506103fd565b5050565b610405610abe565b73ffffffffffffffffffffffffffffffffffffffff163373ffffffffffffffffffffffffffffffffffffffff161461043c57600080fd5b60006002836040516020018082805190602001908083835b602083106104775780518252602082019150602081019050602083039250610454565b6001836020036101000a0380198251168184511680821785525050505050509050019150506040516020818303038152906040528051906020012060001c816104bc57fe5b06905080600960003373ffffffffffffffffffffffffffffffffffffffff1673ffffffffffffffffffffffffffffffffffffffff16815260200190815260200160002060020181905550600960003373ffffffffffffffffffffffffffffffffffffffff1673ffffffffffffffffffffffffffffffffffffffff16815260200190815260200160002060040160009054906101000a900460ff1615610654576105a6600960003373ffffffffffffffffffffffffffffffffffffffff1673ffffffffffffffffffffffffffffffffffffffff16815260200190815260200160002060020154610dde565b7fc13d60fe9dffdb6908d2d446cd18134373a51db0738ee04f296eeb9128121cbc816040518082815260200191505060405180910390a1600960003373ffffffffffffffffffffffffffffffffffffffff1673ffffffffffffffffffffffffffffffffffffffff1681526020019081526020016000206000808201600090556001820160009055600282016000905560038201600090556004820160006101000a81549060ff021916905550505b50505050565b6000809054906101000a900473ffffffffffffffffffffffffffffffffffffffff1673ffffffffffffffffffffffffffffffffffffffff163373ffffffffffffffffffffffffffffffffffffffff16146106b357600080fd5b6000809054906101000a900473ffffffffffffffffffffffffffffffffffffffff1673ffffffffffffffffffffffffffffffffffffffff16ff5b60065460065434101561074b576040517f08c379a000000000000000000000000000000000000000000000000000000000815260040180806020018281038252602a8152602001806119b8602a913960400191505060405180910390fd5b600082148061075a5750600182145b6107af576040517f08c379a000000000000000000000000000000000000000000000000000000000815260040180806020018281038252602c8152602001806118c6602c913960400191505060405180910390fd5b34600854101561080a576040517f08c379a00000000000000000000000000000000000000000000000000000000081526004018080602001828103825260428152602001806118f26042913960600191505060405180910390fd5b6108126117ec565b34816000018181525050828160200181815250506001816080019015159081151581525050610840816110c3565b610859816000015160085461115190919063ffffffff16565b60088190555061086761086c565b505050565b6000809050600062030d4090506000610883610a07565b905080600960003373ffffffffffffffffffffffffffffffffffffffff1673ffffffffffffffffffffffffffffffffffffffff168152602001908152602001600020600301819055507fc4dc360d0a9c0677a3379ae0a3d81e887f761e65fdf3d7e00859d1bcd3c473896040518080602001828103825260368152602001806119826036913960400191505060405180910390a1505050565b60085481565b6000600654600654341015610982576040517f08c379a000000000000000000000000000000000000000000000000000000000815260040180806020018281038252602a8152602001806119b8602a913960400191505060405180910390fd5b6000809054906101000a900473ffffffffffffffffffffffffffffffffffffffff1673ffffffffffffffffffffffffffffffffffffffff163373ffffffffffffffffffffffffffffffffffffffff16146109db57600080fd5b600060085490503460086000828254019250508190555080600854116109fd57fe5b6008549250505090565b60008060405180807f7465737400000000000000000000000000000000000000000000000000000000815250600401905060405180910390209050610ab7816040518060400160405280600181526020017f31000000000000000000000000000000000000000000000000000000000000008152506040518060400160405280600481526020017f74657374000000000000000000000000000000000000000000000000000000008152506103fd565b8091505090565b60008073ffffffffffffffffffffffffffffffffffffffff16600260009054906101000a900473ffffffffffffffffffffffffffffffffffffffff1673ffffffffffffffffffffffffffffffffffffffff161480610b4657506000610b44600260009054906101000a900473ffffffffffffffffffffffffffffffffffffffff166111d9565b145b15610b5757610b5560006111e4565b505b600260009054906101000a900473ffffffffffffffffffffffffffffffffffffffff1673ffffffffffffffffffffffffffffffffffffffff166338cc48316040518163ffffffff1660e01b8152600401602060405180830381600087803b158015610bc157600080fd5b505af1158015610bd5573d6000803e3d6000fd5b505050506040513d6020811015610beb57600080fd5b810190808051906020019092919050505073ffffffffffffffffffffffffffffffffffffffff16600160009054906101000a900473ffffffffffffffffffffffffffffffffffffffff1673ffffffffffffffffffffffffffffffffffffffff1614610d3657600260009054906101000a900473ffffffffffffffffffffffffffffffffffffffff1673ffffffffffffffffffffffffffffffffffffffff166338cc48316040518163ffffffff1660e01b8152600401602060405180830381600087803b158015610cba57600080fd5b505af1158015610cce573d6000803e3d6000fd5b505050506040513d6020811015610ce457600080fd5b8101908080519060200190929190505050600160006101000a81548173ffffffffffffffffffffffffffffffffffffffff021916908373ffffffffffffffffffffffffffffffffffffffff1602179055505b600160009054906101000a900473ffffffffffffffffffffffffffffffffffffffff1673ffffffffffffffffffffffffffffffffffffffff1663c281d19e6040518163ffffffff1660e01b815260040160206040518083038186803b158015610d9e57600080fd5b505afa158015610db2573d6000803e3d6000fd5b505050506040513d6020811015610dc857600080fd5b8101908080519060200190929190505050905090565b6000600960003373ffffffffffffffffffffffffffffffffffffffff1673ffffffffffffffffffffffffffffffffffffffff16815260200190815260200160002060010154905081811415610f40576000610e856002600960003373ffffffffffffffffffffffffffffffffffffffff1673ffffffffffffffffffffffffffffffffffffffff168152602001908152602001600020600001546111f590919063ffffffff16565b90503373ffffffffffffffffffffffffffffffffffffffff166108fc829081150290604051600060405180830381858888f19350505050158015610ecd573d6000803e3d6000fd5b5080600860008282540392505081905550828214610ee757fe5b7f723578ae3b662d5dfed8adcfd884af6454efa0b15d7762ae64c800e67ff04c2d8160405180828152602001806020018281038252602d815260200180611955602d91396040019250505060405180910390a150610ffd565b81811415610f4a57fe5b7f723578ae3b662d5dfed8adcfd884af6454efa0b15d7762ae64c800e67ff04c2d600960003373ffffffffffffffffffffffffffffffffffffffff1673ffffffffffffffffffffffffffffffffffffffff168152602001908152602001600020600001546040518082815260200180602001828103825260198152602001807f596f752068617665206c6f737420796f7572207374616b6521000000000000008152506020019250505060405180910390a15b6000600960003373ffffffffffffffffffffffffffffffffffffffff1673ffffffffffffffffffffffffffffffffffffffff16815260200190815260200160002060040160006101000a81548160ff0219169083151502179055506000600754148061106b57506001600754145b61107157fe5b600960003373ffffffffffffffffffffffffffffffffffffffff1673ffffffffffffffffffffffffffffffffffffffff1681526020019081526020016000206000015460085410156110bf57fe5b5050565b80600960003373ffffffffffffffffffffffffffffffffffffffff1673ffffffffffffffffffffffffffffffffffffffff1681526020019081526020016000206000820151816000015560208201518160010155604082015181600201556060820151816003015560808201518160040160006101000a81548160ff02191690831515021790555090505050565b6000808284019050838110156111cf576040517f08c379a000000000000000000000000000000000000000000000000000000000815260040180806020018281038252601b8152602001807f536166654d6174683a206164646974696f6e206f766572666c6f77000000000081525060200191505060405180910390fd5b8091505092915050565b6000813b9050919050565b60006111ee61127b565b9050919050565b6000808314156112085760009050611275565b600082840290508284828161121957fe5b0414611270576040517f08c379a00000000000000000000000000000000000000000000000000000000081526004018080602001828103825260218152602001806119346021913960400191505060405180910390fd5b809150505b92915050565b60008061129b731d3b2638a7cc9f2cb3d298a3da7a90b67e5506ed6111d9565b111561133d57731d3b2638a7cc9f2cb3d298a3da7a90b67e5506ed600260006101000a81548173ffffffffffffffffffffffffffffffffffffffff021916908373ffffffffffffffffffffffffffffffffffffffff1602179055506113346040518060400160405280600b81526020017f6574685f6d61696e6e65740000000000000000000000000000000000000000008152506117d2565b600190506117cf565b600061135c73c03a2615d5efaf5f49f60b7bb6583eaec212fdf16111d9565b11156113fe5773c03a2615d5efaf5f49f60b7bb6583eaec212fdf1600260006101000a81548173ffffffffffffffffffffffffffffffffffffffff021916908373ffffffffffffffffffffffffffffffffffffffff1602179055506113f56040518060400160405280600c81526020017f6574685f726f707374656e3300000000000000000000000000000000000000008152506117d2565b600190506117cf565b600061141d73b7a07bcf2ba2f2703b24c0691b5278999c59ac7e6111d9565b11156114bf5773b7a07bcf2ba2f2703b24c0691b5278999c59ac7e600260006101000a81548173ffffffffffffffffffffffffffffffffffffffff021916908373ffffffffffffffffffffffffffffffffffffffff1602179055506114b66040518060400160405280600981526020017f6574685f6b6f76616e00000000000000000000000000000000000000000000008152506117d2565b600190506117cf565b60006114de73146500cfd35b22e4a392fe0adc06de1a1368ed486111d9565b11156115805773146500cfd35b22e4a392fe0adc06de1a1368ed48600260006101000a81548173ffffffffffffffffffffffffffffffffffffffff021916908373ffffffffffffffffffffffffffffffffffffffff1602179055506115776040518060400160405280600b81526020017f6574685f72696e6b6562790000000000000000000000000000000000000000008152506117d2565b600190506117cf565b600061159f73a2998efd205fb9d4b4963afb70778d6354ad3a416111d9565b11156116415773a2998efd205fb9d4b4963afb70778d6354ad3a41600260006101000a81548173ffffffffffffffffffffffffffffffffffffffff021916908373ffffffffffffffffffffffffffffffffffffffff1602179055506116386040518060400160405280600a81526020017f6574685f676f65726c69000000000000000000000000000000000000000000008152506117d2565b600190506117cf565b6000611660736f485c8bf6fc43ea212e93bbf8ce046c7f1cb4756111d9565b11156116c457736f485c8bf6fc43ea212e93bbf8ce046c7f1cb475600260006101000a81548173ffffffffffffffffffffffffffffffffffffffff021916908373ffffffffffffffffffffffffffffffffffffffff160217905550600190506117cf565b60006116e37320e12a1f859b3feae5fb2a0a32c18f5a65555bbf6111d9565b1115611747577320e12a1f859b3feae5fb2a0a32c18f5a65555bbf600260006101000a81548173ffffffffffffffffffffffffffffffffffffffff021916908373ffffffffffffffffffffffffffffffffffffffff160217905550600190506117cf565b60006117667351efaf4c8b3c9afbd5ab9f4bbc82784ab6ef8faa6111d9565b11156117ca577351efaf4c8b3c9afbd5ab9f4bbc82784ab6ef8faa600260006101000a81548173ffffffffffffffffffffffffffffffffffffffff021916908373ffffffffffffffffffffffffffffffffffffffff160217905550600190506117cf565b600090505b90565b80600390805190602001906117e8929190611820565b5050565b6040518060a00160405280600081526020016000815260200160008152602001600080191681526020016000151581525090565b828054600181600116156101000203166002900490600052602060002090601f016020900481019282601f1061186157805160ff191683800117855561188f565b8280016001018555821561188f579182015b8281111561188e578251825591602001919060010190611873565b5b50905061189c91906118a0565b5090565b6118c291905b808211156118be5760008160009055506001016118a6565b5090565b9056fe706c65617365207069636b206120612077686f6c65206e756d626572206265747765656e203020616e642031636f6e74726163742068617320696e73756666696369656e742066756e647320666f722061207061796f757420696e20746865206576656e74206f6620612077696e536166654d6174683a206d756c7469706c69636174696f6e206f766572666c6f77436f6e67726174756c6174696f6e732120596f75206861766520646f75626c656420796f7572207374616b652150726f7661626c65207175657279207761732073656e742c207374616e64696e6720627920666f722074686520616e737765722e2e2e4d7573742073656e64206174206c65617374203120657468657220746f2074686520636f6e7472616374a265627a7a723158202eb8a4049797a49ef9801698b00745a2024004271b4728da2978ae6aa9afcbe664736f6c634300050c0032",
  "source": "import \"./Ownable.sol\";\r\nimport \"./provableAPI.sol\";\r\nimport \"./Destroyable.sol\";\r\nimport \"./SafeMath.sol\";\r\npragma solidity 0.5.12;\r\n\r\n\r\ncontract CoinFlip is Ownable, Destroyable, usingProvable {\r\n\r\n\r\nusing SafeMath for uint256;\r\n\r\nstruct Player {\r\nuint bet;\r\nuint guess;\r\nuint outcome;\r\nbytes32 queryId;\r\nbool awaitingCallback;\r\n\r\n}\r\n\r\n\r\n uint256 constant NUM_RANDOM_BYTES_REQUESTED = 1;\r\n\r\nuint private spend = 1 ether;\r\n\r\nuint public outcome = 0;\r\n\r\nuint public balance;\r\n\r\nmapping (address => Player) private players;\r\n\r\n\r\nevent playersOutcome(uint value, string outcome);\r\nevent LogNewProvableQuery(string description);\r\nevent generatedRandomNumber(uint256 randomNumber);\r\n\r\n modifier minimumCost(uint cost) {\r\n     require(msg.value >= spend, \"Must send at least 1 ether to the contract\");\r\n     _;\r\n}\r\n\r\n constructor() public {\r\n     balance = 0;\r\n\r\n }\r\n\r\n\r\n /* function random() private returns(uint){\r\n     return outcome = now % 2;\r\n } */\r\n\r\n function __callback(bytes32 _queryId, string memory _result, bytes memory _proof) public {\r\n  require(msg.sender == provable_cbAddress());\r\n\r\n      uint256 randomNumber = uint256(keccak256(abi.encodePacked(_result))) % 2;\r\n\r\n      players[msg.sender].outcome = randomNumber;\r\n\r\n      if(players[msg.sender].awaitingCallback){\r\n        finaliseOutcome(players[msg.sender].outcome);\r\n        emit generatedRandomNumber(randomNumber);\r\n        delete players[msg.sender];\r\n\r\n      }\r\n}\r\n\r\nfunction update() payable public\r\n{\r\n  uint256 QUERY_EXECUTION_DELAY = 0; // NOTE: The datasource currently does not support delays > 0!\r\n  uint256 GAS_FOR_CALLBACK = 200000;\r\n\r\n  //FOR PRODUCTION\r\n  /* bytes32 queryId = provable_newRandomDSQuery(\r\n      QUERY_EXECUTION_DELAY,\r\n      NUM_RANDOM_BYTES_REQUESTED,\r\n      GAS_FOR_CALLBACK\r\n  ); */\r\n\r\n  //FOR TEST\r\n  bytes32 queryId = testRandom();\r\n\r\n  players[msg.sender].queryId = queryId;\r\n\r\n  emit LogNewProvableQuery(\"Provable query was sent, standing by for the answer...\");\r\n\r\n}\r\n\r\n//FOR TEST PURPOSES\r\nfunction testRandom() public returns(bytes32){\r\n  bytes32 queryId = bytes32(keccak256(\"test\"));\r\n  __callback(queryId, \"1\", bytes(\"test\"));\r\n  return queryId;\r\n\r\n}\r\n\r\nfunction guess(uint number) public payable minimumCost(spend) {\r\n    require(number == 0 || number == 1, \"please pick a a whole number between 0 and 1\");\r\n    require(balance >= msg.value, \"contract has insufficient funds for a payout in the event of a win\");\r\n\r\n    Player memory p;\r\n\r\n    p.bet = msg.value;\r\n    p.guess = number;\r\n    p.awaitingCallback = true;\r\n\r\n    insertPlayer(p);\r\n\r\n    balance = balance.add(p.bet);\r\n\r\n    update();\r\n\r\n}\r\n\r\nfunction insertPlayer(Player memory player) private {\r\n  players[msg.sender] = player;\r\n}\r\n\r\n\r\nfunction finaliseOutcome(uint res) private {\r\n  uint expected = players[msg.sender].guess;\r\n\r\n  if(expected == res){\r\n\r\n      uint winnings = players[msg.sender].bet.mul(2);\r\n      msg.sender.transfer(winnings);\r\n      balance -= winnings;\r\n      assert(expected == res);\r\n      emit playersOutcome(winnings, \"Congratulations! You have doubled your stake!\");\r\n\r\n  } else {\r\n    assert(expected != res);\r\n    emit playersOutcome(players[msg.sender].bet , \"You have lost your stake!\");\r\n  }\r\n\r\n    players[msg.sender].awaitingCallback = false;\r\n\r\n  assert(outcome == 0 || outcome == 1);\r\n  assert(balance >= players[msg.sender].bet);\r\n\r\n}\r\n\r\nfunction addLiquidity() public payable minimumCost(spend) onlyOwner returns(uint) {\r\n\r\n    uint old_balance = balance;\r\n\r\n    balance += msg.value;\r\n\r\n    assert(balance > old_balance);\r\n\r\n    return balance;\r\n\r\n}\r\n\r\n\r\n}\r\n",
  "sourcePath": "D:/Ivan On Tech Academy/Ethereum Programming 201/CoinFlip/contracts/CoinFlip.sol",
  "compiler": {
    "name": "solc",
    "version": "0.5.12+commit.7709ece9.Emscripten.clang"
  },
  "schemaVersion": "3.0.16",
  "updatedAt": "2020-11-14T23:58:56.388Z",
  "devdoc": {
    "methods": {
      "__callback(bytes32,string)": {
        "details": "The following `__callback` functions are just placeholders ideally     meant to be defined in child contract when proofs are used.     The function bodies simply silence compiler warnings."
      }
    }
  },
  "userdoc": {
    "methods": {}
  }
}