{
  "contractName": "CoinFlip",
  "abi": [
    {
      "inputs": [],
      "payable": false,
      "stateMutability": "nonpayable",
      "type": "constructor"
    },
    {
      "anonymous": false,
      "inputs": [
        {
          "indexed": false,
          "internalType": "string",
          "name": "description",
          "type": "string"
        }
      ],
      "name": "LogNewProvableQuery",
      "type": "event"
    },
    {
      "anonymous": false,
      "inputs": [
        {
          "indexed": false,
          "internalType": "uint256",
          "name": "randomNumber",
          "type": "uint256"
        }
      ],
      "name": "generatedRandomNumber",
      "type": "event"
    },
    {
      "anonymous": false,
      "inputs": [
        {
          "indexed": false,
          "internalType": "uint256",
          "name": "earnings",
          "type": "uint256"
        },
        {
          "indexed": false,
          "internalType": "uint256",
          "name": "wins",
          "type": "uint256"
        },
        {
          "indexed": false,
          "internalType": "uint256",
          "name": "loss",
          "type": "uint256"
        }
      ],
      "name": "playerStats",
      "type": "event"
    },
    {
      "anonymous": false,
      "inputs": [
        {
          "indexed": false,
          "internalType": "uint256",
          "name": "value",
          "type": "uint256"
        },
        {
          "indexed": false,
          "internalType": "string",
          "name": "outcome",
          "type": "string"
        }
      ],
      "name": "playersOutcome",
      "type": "event"
    },
    {
      "constant": true,
      "inputs": [],
      "name": "balance",
      "outputs": [
        {
          "internalType": "uint256",
          "name": "",
          "type": "uint256"
        }
      ],
      "payable": false,
      "stateMutability": "view",
      "type": "function"
    },
    {
      "constant": false,
      "inputs": [],
      "name": "destroy",
      "outputs": [],
      "payable": false,
      "stateMutability": "nonpayable",
      "type": "function"
    },
    {
      "constant": true,
      "inputs": [],
      "name": "outcomeMessage",
      "outputs": [
        {
          "internalType": "string",
          "name": "",
          "type": "string"
        }
      ],
      "payable": false,
      "stateMutability": "view",
      "type": "function"
    },
    {
      "constant": true,
      "inputs": [],
      "name": "getPlayer",
      "outputs": [
        {
          "internalType": "uint256",
          "name": "",
          "type": "uint256"
        },
        {
          "internalType": "uint256",
          "name": "",
          "type": "uint256"
        },
        {
          "internalType": "uint256",
          "name": "",
          "type": "uint256"
        },
        {
          "internalType": "uint256",
          "name": "",
          "type": "uint256"
        },
        {
          "internalType": "uint256",
          "name": "",
          "type": "uint256"
        },
        {
          "internalType": "bool",
          "name": "",
          "type": "bool"
        }
      ],
      "payable": false,
      "stateMutability": "view",
      "type": "function"
    },
    {
      "constant": false,
      "inputs": [
        {
          "internalType": "bytes32",
          "name": "_myid",
          "type": "bytes32"
        },
        {
          "internalType": "string",
          "name": "_result",
          "type": "string"
        }
      ],
      "name": "__callback",
      "outputs": [],
      "payable": false,
      "stateMutability": "nonpayable",
      "type": "function"
    },
    {
      "constant": false,
      "inputs": [
        {
          "internalType": "bytes32",
          "name": "_queryId",
          "type": "bytes32"
        },
        {
          "internalType": "string",
          "name": "_result",
          "type": "string"
        },
        {
          "internalType": "bytes",
          "name": "_proof",
          "type": "bytes"
        }
      ],
      "name": "__callback",
      "outputs": [],
      "payable": false,
      "stateMutability": "nonpayable",
      "type": "function"
    },
    {
      "constant": false,
      "inputs": [
        {
          "internalType": "uint256",
          "name": "guess",
          "type": "uint256"
        }
      ],
      "name": "update",
      "outputs": [],
      "payable": true,
      "stateMutability": "payable",
      "type": "function"
    },
    {
      "constant": false,
      "inputs": [
        {
          "internalType": "uint256",
          "name": "guess",
          "type": "uint256"
        }
      ],
      "name": "flip",
      "outputs": [],
      "payable": true,
      "stateMutability": "payable",
      "type": "function"
    },
    {
      "constant": false,
      "inputs": [
        {
          "internalType": "address",
          "name": "sender",
          "type": "address"
        },
        {
          "internalType": "uint256",
          "name": "cost",
          "type": "uint256"
        }
      ],
      "name": "finaliseOutcome",
      "outputs": [],
      "payable": true,
      "stateMutability": "payable",
      "type": "function"
    },
    {
      "constant": false,
      "inputs": [],
      "name": "withdraw_earnings",
      "outputs": [],
      "payable": false,
      "stateMutability": "nonpayable",
      "type": "function"
    },
    {
      "constant": false,
      "inputs": [],
      "name": "addLiquidity",
      "outputs": [
        {
          "internalType": "uint256",
          "name": "",
          "type": "uint256"
        }
      ],
      "payable": true,
      "stateMutability": "payable",
      "type": "function"
    }
  ],
  "bytecode": "0x608060405267016345785d8a00006006553480156200001d57600080fd5b50336000806101000a81548173ffffffffffffffffffffffffffffffffffffffff021916908373ffffffffffffffffffffffffffffffffffffffff16021790555060006007819055506200007b603060f81b6200008160201b60201c565b62000aa5565b600073ffffffffffffffffffffffffffffffffffffffff16600260009054906101000a900473ffffffffffffffffffffffffffffffffffffffff1673ffffffffffffffffffffffffffffffffffffffff16148062000111575060006200010f600260009054906101000a900473ffffffffffffffffffffffffffffffffffffffff16620003e760201b60201c565b145b156200012b57620001296000620003f260201b60201c565b505b600260009054906101000a900473ffffffffffffffffffffffffffffffffffffffff1673ffffffffffffffffffffffffffffffffffffffff166338cc48316040518163ffffffff1660e01b8152600401602060405180830381600087803b1580156200019657600080fd5b505af1158015620001ab573d6000803e3d6000fd5b505050506040513d6020811015620001c257600080fd5b810190808051906020019092919050505073ffffffffffffffffffffffffffffffffffffffff16600160009054906101000a900473ffffffffffffffffffffffffffffffffffffffff1673ffffffffffffffffffffffffffffffffffffffff16146200031157600260009054906101000a900473ffffffffffffffffffffffffffffffffffffffff1673ffffffffffffffffffffffffffffffffffffffff166338cc48316040518163ffffffff1660e01b8152600401602060405180830381600087803b1580156200029357600080fd5b505af1158015620002a8573d6000803e3d6000fd5b505050506040513d6020811015620002bf57600080fd5b8101908080519060200190929190505050600160006101000a81548173ffffffffffffffffffffffffffffffffffffffff021916908373ffffffffffffffffffffffffffffffffffffffff1602179055505b600160009054906101000a900473ffffffffffffffffffffffffffffffffffffffff1673ffffffffffffffffffffffffffffffffffffffff1663688dcfd7826040518263ffffffff1660e01b815260040180827effffffffffffffffffffffffffffffffffffffffffffffffffffffffffffff19167effffffffffffffffffffffffffffffffffffffffffffffffffffffffffffff19168152602001915050600060405180830381600087803b158015620003cb57600080fd5b505af1158015620003e0573d6000803e3d6000fd5b5050505050565b6000813b9050919050565b6000620004046200040b60201b60201c565b9050919050565b60008062000433731d3b2638a7cc9f2cb3d298a3da7a90b67e5506ed620003e760201b60201c565b1115620004df57731d3b2638a7cc9f2cb3d298a3da7a90b67e5506ed600260006101000a81548173ffffffffffffffffffffffffffffffffffffffff021916908373ffffffffffffffffffffffffffffffffffffffff160217905550620004d56040518060400160405280600b81526020017f6574685f6d61696e6e6574000000000000000000000000000000000000000000815250620009da60201b60201c565b60019050620009d7565b60006200050673c03a2615d5efaf5f49f60b7bb6583eaec212fdf1620003e760201b60201c565b1115620005b25773c03a2615d5efaf5f49f60b7bb6583eaec212fdf1600260006101000a81548173ffffffffffffffffffffffffffffffffffffffff021916908373ffffffffffffffffffffffffffffffffffffffff160217905550620005a86040518060400160405280600c81526020017f6574685f726f707374656e330000000000000000000000000000000000000000815250620009da60201b60201c565b60019050620009d7565b6000620005d973b7a07bcf2ba2f2703b24c0691b5278999c59ac7e620003e760201b60201c565b1115620006855773b7a07bcf2ba2f2703b24c0691b5278999c59ac7e600260006101000a81548173ffffffffffffffffffffffffffffffffffffffff021916908373ffffffffffffffffffffffffffffffffffffffff1602179055506200067b6040518060400160405280600981526020017f6574685f6b6f76616e0000000000000000000000000000000000000000000000815250620009da60201b60201c565b60019050620009d7565b6000620006ac73146500cfd35b22e4a392fe0adc06de1a1368ed48620003e760201b60201c565b1115620007585773146500cfd35b22e4a392fe0adc06de1a1368ed48600260006101000a81548173ffffffffffffffffffffffffffffffffffffffff021916908373ffffffffffffffffffffffffffffffffffffffff1602179055506200074e6040518060400160405280600b81526020017f6574685f72696e6b656279000000000000000000000000000000000000000000815250620009da60201b60201c565b60019050620009d7565b60006200077f73a2998efd205fb9d4b4963afb70778d6354ad3a41620003e760201b60201c565b11156200082b5773a2998efd205fb9d4b4963afb70778d6354ad3a41600260006101000a81548173ffffffffffffffffffffffffffffffffffffffff021916908373ffffffffffffffffffffffffffffffffffffffff160217905550620008216040518060400160405280600a81526020017f6574685f676f65726c6900000000000000000000000000000000000000000000815250620009da60201b60201c565b60019050620009d7565b600062000852736f485c8bf6fc43ea212e93bbf8ce046c7f1cb475620003e760201b60201c565b1115620008b857736f485c8bf6fc43ea212e93bbf8ce046c7f1cb475600260006101000a81548173ffffffffffffffffffffffffffffffffffffffff021916908373ffffffffffffffffffffffffffffffffffffffff16021790555060019050620009d7565b6000620008df7320e12a1f859b3feae5fb2a0a32c18f5a65555bbf620003e760201b60201c565b111562000945577320e12a1f859b3feae5fb2a0a32c18f5a65555bbf600260006101000a81548173ffffffffffffffffffffffffffffffffffffffff021916908373ffffffffffffffffffffffffffffffffffffffff16021790555060019050620009d7565b60006200096c7351efaf4c8b3c9afbd5ab9f4bbc82784ab6ef8faa620003e760201b60201c565b1115620009d2577351efaf4c8b3c9afbd5ab9f4bbc82784ab6ef8faa600260006101000a81548173ffffffffffffffffffffffffffffffffffffffff021916908373ffffffffffffffffffffffffffffffffffffffff16021790555060019050620009d7565b600090505b90565b8060039080519060200190620009f2929190620009f6565b5050565b828054600181600116156101000203166002900490600052602060002090601f016020900481019282601f1062000a3957805160ff191683800117855562000a6a565b8280016001018555821562000a6a579182015b8281111562000a6957825182559160200191906001019062000a4c565b5b50905062000a79919062000a7d565b5090565b62000aa291905b8082111562000a9e57600081600090555060010162000a84565b5090565b90565b614b118062000ab56000396000f3fe60806040526004361061009c5760003560e01c806383197ef01161006457806383197ef01461038a5780638fb730fc146103a15780639e7caf3b146103ef578063b69ef8a814610406578063c0d2515a14610431578063e8078d94146104c15761009c565b8063221e885d146100a157806327dc297e146100cf5780633308f42d146101a157806338bbfa50146101f357806382ab890a1461035c575b600080fd5b6100cd600480360360208110156100b757600080fd5b81019080803590602001909291905050506104df565b005b3480156100db57600080fd5b5061019f600480360360408110156100f257600080fd5b81019080803590602001909291908035906020019064010000000081111561011957600080fd5b82018360208201111561012b57600080fd5b8035906020019184600183028401116401000000008311171561014d57600080fd5b91908080601f016020809104026020016040519081016040528093929190818152602001838380828437600081840152601f19601f82011690508083019250505050505050919291929050505061072b565b005b3480156101ad57600080fd5b506101b661076e565b6040518087815260200186815260200185815260200184815260200183815260200182151515158152602001965050505050505060405180910390f35b3480156101ff57600080fd5b5061035a6004803603606081101561021657600080fd5b81019080803590602001909291908035906020019064010000000081111561023d57600080fd5b82018360208201111561024f57600080fd5b8035906020019184600183028401116401000000008311171561027157600080fd5b91908080601f016020809104026020016040519081016040528093929190818152602001838380828437600081840152601f19601f820116905080830192505050505050509192919290803590602001906401000000008111156102d457600080fd5b8201836020820111156102e657600080fd5b8035906020019184600183028401116401000000008311171561030857600080fd5b91908080601f016020809104026020016040519081016040528093929190818152602001838380828437600081840152601f19601f82011690508083019250505050505050919291929050505061092a565b005b6103886004803603602081101561037257600080fd5b8101908080359060200190929190505050610c5f565b005b34801561039657600080fd5b5061039f610dc7565b005b6103ed600480360360408110156103b757600080fd5b81019080803573ffffffffffffffffffffffffffffffffffffffff16906020019092919080359060200190929190505050610e5a565b005b3480156103fb57600080fd5b5061040461145a565b005b34801561041257600080fd5b5061041b611705565b6040518082815260200191505060405180910390f35b34801561043d57600080fd5b5061044661170b565b6040518080602001828103825283818151815260200191508051906020019080838360005b8381101561048657808201518184015260208101905061046b565b50505050905090810190601f1680156104b35780820380516001836020036101000a031916815260200191505b509250505060405180910390f35b6104c96117a9565b6040518082815260200191505060405180910390f35b60065460065434101561053d576040517f08c379a000000000000000000000000000000000000000000000000000000000815260040180806020018281038252602c815260200180614919602c913960400191505060405180910390fd5b600082148061054c5750600182145b6105a1576040517f08c379a000000000000000000000000000000000000000000000000000000000815260040180806020018281038252602c8152602001806148bb602c913960400191505060405180910390fd5b6000600754116105fc576040517f08c379a000000000000000000000000000000000000000000000000000000000815260040180806020018281038252604a815260200180614945604a913960600191505060405180910390fd5b60001515600960003373ffffffffffffffffffffffffffffffffffffffff1673ffffffffffffffffffffffffffffffffffffffff16815260200190815260200160002060050160009054906101000a900460ff161515146106a8576040517f08c379a00000000000000000000000000000000000000000000000000000000081526004018080602001828103825260328152602001806148e76032913960400191505060405180910390fd5b6001600960003373ffffffffffffffffffffffffffffffffffffffff1673ffffffffffffffffffffffffffffffffffffffff16815260200190815260200160002060050160006101000a81548160ff0219169083151502179055506107183460075461188e90919063ffffffff16565b60078190555061072782610c5f565b5050565b61076a828260006040519080825280601f01601f1916602001820160405280156107645781602001600182028038833980820191505090505b5061092a565b5050565b600080600080600080600960003373ffffffffffffffffffffffffffffffffffffffff1673ffffffffffffffffffffffffffffffffffffffff16815260200190815260200160002060000154600960003373ffffffffffffffffffffffffffffffffffffffff1673ffffffffffffffffffffffffffffffffffffffff16815260200190815260200160002060010154600960003373ffffffffffffffffffffffffffffffffffffffff1673ffffffffffffffffffffffffffffffffffffffff16815260200190815260200160002060020154600960003373ffffffffffffffffffffffffffffffffffffffff1673ffffffffffffffffffffffffffffffffffffffff16815260200190815260200160002060030154600960003373ffffffffffffffffffffffffffffffffffffffff1673ffffffffffffffffffffffffffffffffffffffff16815260200190815260200160002060040154600960003373ffffffffffffffffffffffffffffffffffffffff1673ffffffffffffffffffffffffffffffffffffffff16815260200190815260200160002060050160009054906101000a900460ff16955095509550955095509550909192939495565b610932611916565b73ffffffffffffffffffffffffffffffffffffffff163373ffffffffffffffffffffffffffffffffffffffff161461096957600080fd5b6000610976848484611c36565b60ff1614610a1457600060096000600a600087815260200190815260200160002060000160009054906101000a900473ffffffffffffffffffffffffffffffffffffffff1673ffffffffffffffffffffffffffffffffffffffff1673ffffffffffffffffffffffffffffffffffffffff16815260200190815260200160002060050160006101000a81548160ff021916908315150217905550610c5a565b6002826040516020018082805190602001908083835b60208310610a4d5780518252602082019150602081019050602083039250610a2a565b6001836020036101000a0380198251168184511680821785525050505050509050019150506040516020818303038152906040528051906020012060001c81610a9257fe5b0660096000600a600087815260200190815260200160002060000160009054906101000a900473ffffffffffffffffffffffffffffffffffffffff1673ffffffffffffffffffffffffffffffffffffffff1673ffffffffffffffffffffffffffffffffffffffff168152602001908152602001600020600401819055507fc13d60fe9dffdb6908d2d446cd18134373a51db0738ee04f296eeb9128121cbc60096000600a600087815260200190815260200160002060000160009054906101000a900473ffffffffffffffffffffffffffffffffffffffff1673ffffffffffffffffffffffffffffffffffffffff1673ffffffffffffffffffffffffffffffffffffffff168152602001908152602001600020600401546040518082815260200191505060405180910390a1610c14600a600085815260200190815260200160002060000160009054906101000a900473ffffffffffffffffffffffffffffffffffffffff16600a600086815260200190815260200160002060010154610e5a565b600a6000848152602001908152602001600020600080820160006101000a81549073ffffffffffffffffffffffffffffffffffffffff0219169055600182016000905550505b505050565b60008090506000620493e090506000610c7a83600184611d66565b9050610c846147a4565b33816000019073ffffffffffffffffffffffffffffffffffffffff16908173ffffffffffffffffffffffffffffffffffffffff16815250503481602001818152505080600a600084815260200190815260200160002060008201518160000160006101000a81548173ffffffffffffffffffffffffffffffffffffffff021916908373ffffffffffffffffffffffffffffffffffffffff1602179055506020820151816001015590505084600960003373ffffffffffffffffffffffffffffffffffffffff1673ffffffffffffffffffffffffffffffffffffffff168152602001908152602001600020600301819055507fc4dc360d0a9c0677a3379ae0a3d81e887f761e65fdf3d7e00859d1bcd3c47389604051808060200182810382526036815260200180614a446036913960400191505060405180910390a15050505050565b6000809054906101000a900473ffffffffffffffffffffffffffffffffffffffff1673ffffffffffffffffffffffffffffffffffffffff163373ffffffffffffffffffffffffffffffffffffffff1614610e2057600080fd5b6000809054906101000a900473ffffffffffffffffffffffffffffffffffffffff1673ffffffffffffffffffffffffffffffffffffffff16ff5b6000600960008473ffffffffffffffffffffffffffffffffffffffff1673ffffffffffffffffffffffffffffffffffffffff168152602001908152602001600020600401541480610eed57506001600960008473ffffffffffffffffffffffffffffffffffffffff1673ffffffffffffffffffffffffffffffffffffffff16815260200190815260200160002060040154145b610ef657600080fd5b6000600960008473ffffffffffffffffffffffffffffffffffffffff1673ffffffffffffffffffffffffffffffffffffffff1681526020019081526020016000206003015490506000600960008573ffffffffffffffffffffffffffffffffffffffff1673ffffffffffffffffffffffffffffffffffffffff1681526020019081526020016000206004015490508082141561116c576000610fa260028561230190919063ffffffff16565b9050610ff981600960008873ffffffffffffffffffffffffffffffffffffffff1673ffffffffffffffffffffffffffffffffffffffff1681526020019081526020016000206000015461188e90919063ffffffff16565b600960008773ffffffffffffffffffffffffffffffffffffffff1673ffffffffffffffffffffffffffffffffffffffff168152602001908152602001600020600001819055506110956001600960008873ffffffffffffffffffffffffffffffffffffffff1673ffffffffffffffffffffffffffffffffffffffff1681526020019081526020016000206001015461188e90919063ffffffff16565b600960008773ffffffffffffffffffffffffffffffffffffffff1673ffffffffffffffffffffffffffffffffffffffff168152602001908152602001600020600101819055508183146110e457fe5b6040518060600160405280602d81526020016149d7602d9139600890805190602001906111129291906147d4565b507f723578ae3b662d5dfed8adcfd884af6454efa0b15d7762ae64c800e67ff04c2d8160405180828152602001806020018281038252602d8152602001806149d7602d91396040019250505060405180910390a1506112d7565b8082146112d6576111c96001600960008773ffffffffffffffffffffffffffffffffffffffff1673ffffffffffffffffffffffffffffffffffffffff1681526020019081526020016000206002015461188e90919063ffffffff16565b600960008673ffffffffffffffffffffffffffffffffffffffff1673ffffffffffffffffffffffffffffffffffffffff168152602001908152602001600020600201819055508082141561121957fe5b6040518060400160405280601981526020017f596f752068617665206c6f737420796f7572207374616b652100000000000000815250600890805190602001906112649291906147d4565b507f723578ae3b662d5dfed8adcfd884af6454efa0b15d7762ae64c800e67ff04c2d836040518082815260200180602001828103825260198152602001807f596f752068617665206c6f737420796f7572207374616b6521000000000000008152506020019250505060405180910390a15b5b6000600960008673ffffffffffffffffffffffffffffffffffffffff1673ffffffffffffffffffffffffffffffffffffffff16815260200190815260200160002060050160006101000a81548160ff02191690831515021790555060008114806113415750600181145b61134757fe5b7f235293df99a99d7b45e0bbf70c3fbbea3da5fca8ad9b776c568d46932ad17c64600960008673ffffffffffffffffffffffffffffffffffffffff1673ffffffffffffffffffffffffffffffffffffffff16815260200190815260200160002060000154600960008773ffffffffffffffffffffffffffffffffffffffff1673ffffffffffffffffffffffffffffffffffffffff16815260200190815260200160002060010154600960008873ffffffffffffffffffffffffffffffffffffffff1673ffffffffffffffffffffffffffffffffffffffff1681526020019081526020016000206002015460405180848152602001838152602001828152602001935050505060405180910390a150505050565b6000600960003373ffffffffffffffffffffffffffffffffffffffff1673ffffffffffffffffffffffffffffffffffffffff16815260200190815260200160002060000154116114f5576040517f08c379a000000000000000000000000000000000000000000000000000000000815260040180806020018281038252602781526020018061498f6027913960400191505060405180910390fd5b600960003373ffffffffffffffffffffffffffffffffffffffff1673ffffffffffffffffffffffffffffffffffffffff168152602001908152602001600020600001546007541015611592576040517f08c379a0000000000000000000000000000000000000000000000000000000008152600401808060200182810382526063815260200180614a7a6063913960800191505060405180910390fd5b3373ffffffffffffffffffffffffffffffffffffffff166108fc600960003373ffffffffffffffffffffffffffffffffffffffff1673ffffffffffffffffffffffffffffffffffffffff168152602001908152602001600020600001549081150290604051600060405180830381858888f1935050505015801561161a573d6000803e3d6000fd5b50600960003373ffffffffffffffffffffffffffffffffffffffff1673ffffffffffffffffffffffffffffffffffffffff168152602001908152602001600020600001546007600082825403925050819055506000600960003373ffffffffffffffffffffffffffffffffffffffff1673ffffffffffffffffffffffffffffffffffffffff16815260200190815260200160002060000181905550600960003373ffffffffffffffffffffffffffffffffffffffff1673ffffffffffffffffffffffffffffffffffffffff16815260200190815260200160002060000154600754101561170357fe5b565b60075481565b60088054600181600116156101000203166002900480601f0160208091040260200160405190810160405280929190818152602001828054600181600116156101000203166002900480156117a15780601f10611776576101008083540402835291602001916117a1565b820191906000526020600020905b81548152906001019060200180831161178457829003601f168201915b505050505081565b6000600654600654341015611809576040517f08c379a000000000000000000000000000000000000000000000000000000000815260040180806020018281038252602c815260200180614919602c913960400191505060405180910390fd5b6000809054906101000a900473ffffffffffffffffffffffffffffffffffffffff1673ffffffffffffffffffffffffffffffffffffffff163373ffffffffffffffffffffffffffffffffffffffff161461186257600080fd5b6000600754905034600760008282540192505081905550806007541161188457fe5b6007549250505090565b60008082840190508381101561190c576040517f08c379a000000000000000000000000000000000000000000000000000000000815260040180806020018281038252601b8152602001807f536166654d6174683a206164646974696f6e206f766572666c6f77000000000081525060200191505060405180910390fd5b8091505092915050565b60008073ffffffffffffffffffffffffffffffffffffffff16600260009054906101000a900473ffffffffffffffffffffffffffffffffffffffff1673ffffffffffffffffffffffffffffffffffffffff16148061199e5750600061199c600260009054906101000a900473ffffffffffffffffffffffffffffffffffffffff16612387565b145b156119af576119ad6000612392565b505b600260009054906101000a900473ffffffffffffffffffffffffffffffffffffffff1673ffffffffffffffffffffffffffffffffffffffff166338cc48316040518163ffffffff1660e01b8152600401602060405180830381600087803b158015611a1957600080fd5b505af1158015611a2d573d6000803e3d6000fd5b505050506040513d6020811015611a4357600080fd5b810190808051906020019092919050505073ffffffffffffffffffffffffffffffffffffffff16600160009054906101000a900473ffffffffffffffffffffffffffffffffffffffff1673ffffffffffffffffffffffffffffffffffffffff1614611b8e57600260009054906101000a900473ffffffffffffffffffffffffffffffffffffffff1673ffffffffffffffffffffffffffffffffffffffff166338cc48316040518163ffffffff1660e01b8152600401602060405180830381600087803b158015611b1257600080fd5b505af1158015611b26573d6000803e3d6000fd5b505050506040513d6020811015611b3c57600080fd5b8101908080519060200190929190505050600160006101000a81548173ffffffffffffffffffffffffffffffffffffffff021916908373ffffffffffffffffffffffffffffffffffffffff1602179055505b600160009054906101000a900473ffffffffffffffffffffffffffffffffffffffff1673ffffffffffffffffffffffffffffffffffffffff1663c281d19e6040518163ffffffff1660e01b815260040160206040518083038186803b158015611bf657600080fd5b505afa158015611c0a573d6000803e3d6000fd5b505050506040513d6020811015611c2057600080fd5b8101908080519060200190929190505050905090565b60007f4c0000000000000000000000000000000000000000000000000000000000000082600081518110611c6657fe5b602001015160f81c60f81b7effffffffffffffffffffffffffffffffffffffffffffffffffffffffffffff1916141580611cf957507f500000000000000000000000000000000000000000000000000000000000000082600181518110611cc957fe5b602001015160f81c60f81b7effffffffffffffffffffffffffffffffffffffffffffffffffffffffffffff191614155b80611d255750600160ff1682600281518110611d1157fe5b602001015160f81c60f81b60f81c60ff1614155b15611d335760019050611d5f565b6000611d48838686611d436123a3565b612445565b905080611d59576002915050611d5f565b60009150505b9392505050565b60008083118015611d78575060208311155b611d8157600080fd5b600a84029350606060016040519080825280601f01601f191660200182016040528015611dbd5781602001600182028038833980820191505090505b5090508360f81b81600081518110611dd157fe5b60200101907effffffffffffffffffffffffffffffffffffffffffffffffffffffffffffff1916908160001a905350606060206040519080825280601f01601f191660200182016040528015611e365781602001600182028038833980820191505090505b509050606060206040519080825280601f01601f191660200182016040528015611e6f5781602001600182028038833980820191505090505b5090506000611e7c612af0565b905060208352424118600143034018602084015260208252806020830152606060206040519080825280601f01601f191660200182016040528015611ed05781602001600182028038833980820191505090505b509050886020820152606060086040519080825280601f01601f191660200182016040528015611f0f5781602001600182028038833980820191505090505b509050611f228260186008846000612e10565b50611f2b614854565b60405180608001604052808781526020018881526020018681526020018481525090506000611f906040518060400160405280600681526020017f72616e646f6d0000000000000000000000000000000000000000000000000000815250838c612e6f565b9050606060086040519080825280601f01601f191660200182016040528015611fc85781602001600182028038833980820191505090505b50905060208401517f0100000000000000000000000000000000000000000000000000000000000000810460278301537e01000000000000000000000000000000000000000000000000000000000000810460268301537d010000000000000000000000000000000000000000000000000000000000810460258301537c0100000000000000000000000000000000000000000000000000000000810460248301537b01000000000000000000000000000000000000000000000000000000810460238301537a0100000000000000000000000000000000000000000000000000008104602283015379010000000000000000000000000000000000000000000000000081046021830153780100000000000000000000000000000000000000000000000081046020830153506122ee82828560016004811061210757fe5b602002015160028760006004811061211b57fe5b60200201516040518082805190602001908083835b602083106121535780518252602082019150602081019050602083039250612130565b6001836020036101000a038019825116818451168082178552505050505050905001915050602060405180830381855afa158015612195573d6000803e3d6000fd5b5050506040513d60208110156121aa57600080fd5b8101908080519060200190929190505050876002600481106121c857fe5b60200201516040516020018085805190602001908083835b6020831061220357805182526020820191506020810190506020830392506121e0565b6001836020036101000a03801982511681845116808217855250505050505090500184805190602001908083835b602083106122545780518252602082019150602081019050602083039250612231565b6001836020036101000a03801982511681845116808217855250505050505090500183815260200182805190602001908083835b602083106122ab5780518252602082019150602081019050602083039250612288565b6001836020036101000a038019825116818451168082178552505050505050905001945050505050604051602081830303815290604052805190602001206131de565b8199505050505050505050509392505050565b6000808314156123145760009050612381565b600082840290508284828161232557fe5b041461237c576040517f08c379a00000000000000000000000000000000000000000000000000000000081526004018080602001828103825260218152602001806149b66021913960400191505060405180910390fd5b809150505b92915050565b6000813b9050919050565b600061239c6131fa565b9050919050565b606060038054600181600116156101000203166002900480601f01602080910402602001604051908101604052809291908181526020018280546001816001161561010002031660029004801561243b5780601f106124105761010080835404028352916020019161243b565b820191906000526020600020905b81548152906001019060200180831161241e57829003601f168201915b5050505050905090565b600080602060028760458151811061245957fe5b602001015160f81c60f81b60f81c60ff1601604401019050606060206040519080825280601f01601f1916602001820160405280156124a75781602001600182028038833980820191505090505b5090506124b987836020846000612e10565b50600284876040516020018083805190602001908083835b602083106124f457805182526020820191506020810190506020830392506124d1565b6001836020036101000a038019825116818451168082178552505050505050905001828152602001925050506040516020818303038152906040526040518082805190602001908083835b60208310612562578051825260208201915060208101905060208303925061253f565b6001836020036101000a038019825116818451168082178552505050505050905001915050602060405180830381855afa1580156125a4573d6000803e3d6000fd5b5050506040513d60208110156125b957600080fd5b8101908080519060200190929190505050604051602001808281526020019150506040516020818303038152906040528051906020012081805190602001201461260857600092505050612ae8565b6060600288600160498601018151811061261e57fe5b602001015160f81c60f81b60f81c60ff16016040519080825280601f01601f1916602001820160405280156126625781602001600182028038833980820191505090505b50905061267788604985018351846000612e10565b506127426002826040518082805190602001908083835b602083106126b1578051825260208201915060208101905060208303925061268e565b6001836020036101000a038019825116818451168082178552505050505050905001915050602060405180830381855afa1580156126f3573d6000803e3d6000fd5b5050506040513d602081101561270857600080fd5b8101908080519060200190929190505050878a600860208801018151811061272c57fe5b602001015160f81c60f81b60f81c60ff16613751565b6127525760009350505050612ae8565b606060296040519080825280601f01601f1916602001820160405280156127885781602001600182028038833980820191505090505b50905061279d89602086016029846000612e10565b506060604080519080825280601f01601f1916602001820160405280156127d35781602001600182028038833980820191505090505b50905060006041845160296020890101010190506127f98b604083036040856000612e10565b5060006002836040518082805190602001908083835b60208310612832578051825260208201915060208101905060208303925061280f565b6001836020036101000a038019825116818451168082178552505050505050905001915050602060405180830381855afa158015612874573d6000803e3d6000fd5b5050506040513d602081101561288957600080fd5b8101908080519060200190929190505050905083816040516020018083805190602001908083835b602083106128d457805182526020820191506020810190506020830392506128b1565b6001836020036101000a0380198251168184511680821785525050505050509050018281526020019250505060405160208183030381529060405280519060200120600460008d815260200190815260200160002054141561294c57600460008c81526020019081526020016000206000905561295c565b6000975050505050505050612ae8565b606060496040519080825280601f01601f1916602001820160405280156129925781602001600182028038833980820191505090505b5090506129a48d896049846000612e10565b50612a4d6002826040518082805190602001908083835b602083106129de57805182526020820191506020810190506020830392506129bb565b6001836020036101000a038019825116818451168082178552505050505050905001915050602060405180830381855afa158015612a20573d6000803e3d6000fd5b5050506040513d6020811015612a3557600080fd5b81019080805190602001909291905050508786613801565b612a6257600098505050505050505050612ae8565b6005600083815260200190815260200160002060009054906101000a900460ff16612abc57612a918d846139bf565b6005600084815260200190815260200160002060006101000a81548160ff0219169083151502179055505b6005600083815260200190815260200160002060009054906101000a900460ff16985050505050505050505b949350505050565b60008073ffffffffffffffffffffffffffffffffffffffff16600260009054906101000a900473ffffffffffffffffffffffffffffffffffffffff1673ffffffffffffffffffffffffffffffffffffffff161480612b7857506000612b76600260009054906101000a900473ffffffffffffffffffffffffffffffffffffffff16612387565b145b15612b8957612b876000612392565b505b600260009054906101000a900473ffffffffffffffffffffffffffffffffffffffff1673ffffffffffffffffffffffffffffffffffffffff166338cc48316040518163ffffffff1660e01b8152600401602060405180830381600087803b158015612bf357600080fd5b505af1158015612c07573d6000803e3d6000fd5b505050506040513d6020811015612c1d57600080fd5b810190808051906020019092919050505073ffffffffffffffffffffffffffffffffffffffff16600160009054906101000a900473ffffffffffffffffffffffffffffffffffffffff1673ffffffffffffffffffffffffffffffffffffffff1614612d6857600260009054906101000a900473ffffffffffffffffffffffffffffffffffffffff1673ffffffffffffffffffffffffffffffffffffffff166338cc48316040518163ffffffff1660e01b8152600401602060405180830381600087803b158015612cec57600080fd5b505af1158015612d00573d6000803e3d6000fd5b505050506040513d6020811015612d1657600080fd5b8101908080519060200190929190505050600160006101000a81548173ffffffffffffffffffffffffffffffffffffffff021916908373ffffffffffffffffffffffffffffffffffffffff1602179055505b600160009054906101000a900473ffffffffffffffffffffffffffffffffffffffff1673ffffffffffffffffffffffffffffffffffffffff1663abaa5f3e6040518163ffffffff1660e01b815260040160206040518083038186803b158015612dd057600080fd5b505afa158015612de4573d6000803e3d6000fd5b505050506040513d6020811015612dfa57600080fd5b8101908080519060200190929190505050905090565b6060600082850190508084511015612e2757600080fd5b600086602001905060008460200190505b868860200101821015612e605781890151808288015250602082019150602081019050612e38565b85935050505095945050505050565b60008073ffffffffffffffffffffffffffffffffffffffff16600260009054906101000a900473ffffffffffffffffffffffffffffffffffffffff1673ffffffffffffffffffffffffffffffffffffffff161480612ef757506000612ef5600260009054906101000a900473ffffffffffffffffffffffffffffffffffffffff16612387565b145b15612f0857612f066000612392565b505b600260009054906101000a900473ffffffffffffffffffffffffffffffffffffffff1673ffffffffffffffffffffffffffffffffffffffff166338cc48316040518163ffffffff1660e01b8152600401602060405180830381600087803b158015612f7257600080fd5b505af1158015612f86573d6000803e3d6000fd5b505050506040513d6020811015612f9c57600080fd5b810190808051906020019092919050505073ffffffffffffffffffffffffffffffffffffffff16600160009054906101000a900473ffffffffffffffffffffffffffffffffffffffff1673ffffffffffffffffffffffffffffffffffffffff16146130e757600260009054906101000a900473ffffffffffffffffffffffffffffffffffffffff1673ffffffffffffffffffffffffffffffffffffffff166338cc48316040518163ffffffff1660e01b8152600401602060405180830381600087803b15801561306b57600080fd5b505af115801561307f573d6000803e3d6000fd5b505050506040513d602081101561309557600080fd5b8101908080519060200190929190505050600160006101000a81548173ffffffffffffffffffffffffffffffffffffffff021916908373ffffffffffffffffffffffffffffffffffffffff1602179055505b6060600460405190808252806020026020018201604052801561311e57816020015b60608152602001906001900390816131095790505b5090508360006004811061312e57fe5b60200201518160008151811061314057fe5b60200260200101819052508360016004811061315857fe5b60200201518160018151811061316a57fe5b60200260200101819052508360026004811061318257fe5b60200201518160028151811061319457fe5b6020026020010181905250836003600481106131ac57fe5b6020020151816003815181106131be57fe5b60200260200101819052506131d4858285613dd7565b9150509392505050565b8060046000848152602001908152602001600020819055505050565b60008061321a731d3b2638a7cc9f2cb3d298a3da7a90b67e5506ed612387565b11156132bc57731d3b2638a7cc9f2cb3d298a3da7a90b67e5506ed600260006101000a81548173ffffffffffffffffffffffffffffffffffffffff021916908373ffffffffffffffffffffffffffffffffffffffff1602179055506132b36040518060400160405280600b81526020017f6574685f6d61696e6e657400000000000000000000000000000000000000000081525061433d565b6001905061374e565b60006132db73c03a2615d5efaf5f49f60b7bb6583eaec212fdf1612387565b111561337d5773c03a2615d5efaf5f49f60b7bb6583eaec212fdf1600260006101000a81548173ffffffffffffffffffffffffffffffffffffffff021916908373ffffffffffffffffffffffffffffffffffffffff1602179055506133746040518060400160405280600c81526020017f6574685f726f707374656e33000000000000000000000000000000000000000081525061433d565b6001905061374e565b600061339c73b7a07bcf2ba2f2703b24c0691b5278999c59ac7e612387565b111561343e5773b7a07bcf2ba2f2703b24c0691b5278999c59ac7e600260006101000a81548173ffffffffffffffffffffffffffffffffffffffff021916908373ffffffffffffffffffffffffffffffffffffffff1602179055506134356040518060400160405280600981526020017f6574685f6b6f76616e000000000000000000000000000000000000000000000081525061433d565b6001905061374e565b600061345d73146500cfd35b22e4a392fe0adc06de1a1368ed48612387565b11156134ff5773146500cfd35b22e4a392fe0adc06de1a1368ed48600260006101000a81548173ffffffffffffffffffffffffffffffffffffffff021916908373ffffffffffffffffffffffffffffffffffffffff1602179055506134f66040518060400160405280600b81526020017f6574685f72696e6b65627900000000000000000000000000000000000000000081525061433d565b6001905061374e565b600061351e73a2998efd205fb9d4b4963afb70778d6354ad3a41612387565b11156135c05773a2998efd205fb9d4b4963afb70778d6354ad3a41600260006101000a81548173ffffffffffffffffffffffffffffffffffffffff021916908373ffffffffffffffffffffffffffffffffffffffff1602179055506135b76040518060400160405280600a81526020017f6574685f676f65726c690000000000000000000000000000000000000000000081525061433d565b6001905061374e565b60006135df736f485c8bf6fc43ea212e93bbf8ce046c7f1cb475612387565b111561364357736f485c8bf6fc43ea212e93bbf8ce046c7f1cb475600260006101000a81548173ffffffffffffffffffffffffffffffffffffffff021916908373ffffffffffffffffffffffffffffffffffffffff1602179055506001905061374e565b60006136627320e12a1f859b3feae5fb2a0a32c18f5a65555bbf612387565b11156136c6577320e12a1f859b3feae5fb2a0a32c18f5a65555bbf600260006101000a81548173ffffffffffffffffffffffffffffffffffffffff021916908373ffffffffffffffffffffffffffffffffffffffff1602179055506001905061374e565b60006136e57351efaf4c8b3c9afbd5ab9f4bbc82784ab6ef8faa612387565b1115613749577351efaf4c8b3c9afbd5ab9f4bbc82784ab6ef8faa600260006101000a81548173ffffffffffffffffffffffffffffffffffffffff021916908373ffffffffffffffffffffffffffffffffffffffff1602179055506001905061374e565b600090505b90565b600080600190508284511461376557600080fd5b60008090505b838110156137f55784818151811061377f57fe5b602001015160f81c60f81b7effffffffffffffffffffffffffffffffffffffffffffffffffffffffffffff19168682602081106137b857fe5b1a60f81b7effffffffffffffffffffffffffffffffffffffffffffffffffffffffffffff1916146137e857600091505b808060010191505061376b565b50809150509392505050565b6000806000806000606060206040519080825280601f01601f19166020018201604052801561383f5781602001600182028038833980820191505090505b509050600060208960038151811061385357fe5b602001015160f81c60f81b60f81c60ff1603600401905061387989826020856000612e10565b9150606060206040519080825280601f01601f1916602001820160405280156138b15781602001600182028038833980820191505090505b5090506022820191506138ed8a60208c60018603815181106138cf57fe5b602001015160f81c60f81b60f81c60ff160384016020846000612e10565b9050602083015194506020810151935061390a8b601b8787614357565b80975081985050508573ffffffffffffffffffffffffffffffffffffffff16898051906020012060001c73ffffffffffffffffffffffffffffffffffffffff1614156139605760019750505050505050506139b8565b61396d8b601c8787614357565b80975081985050508573ffffffffffffffffffffffffffffffffffffffff16898051906020012060001c73ffffffffffffffffffffffffffffffffffffffff16149750505050505050505b9392505050565b600080606060028560018601815181106139d557fe5b602001015160f81c60f81b60f81c60ff16016040519080825280601f01601f191660200182016040528015613a195781602001600182028038833980820191505090505b509050613a2b85858351846000612e10565b506060604080519080825280601f01601f191660200182016040528015613a615781602001600182028038833980820191505090505b509050613a748660046040846000612e10565b50606060626040519080825280601f01601f191660200182016040528015613aab5781602001600182028038833980820191505090505b509050600160f81b81600081518110613ac057fe5b60200101907effffffffffffffffffffffffffffffffffffffffffffffffffffffffffffff1916908160001a905350613b0187604188036041846001612e10565b5060606040518060400160405280602081526020017ffd94fa71bc0ba10d39d464d0d8f465efeef0a2764e3887fcc9df41ded20f505c8152509050613b4c8160006020856042612e10565b50613bf56002836040518082805190602001908083835b60208310613b865780518252602082019150602081019050602083039250613b63565b6001836020036101000a038019825116818451168082178552505050505050905001915050602060405180830381855afa158015613bc8573d6000803e3d6000fd5b5050506040513d6020811015613bdd57600080fd5b81019080805190602001909291905050508585613801565b945084613c0a57600095505050505050613dd1565b6060604051806060016040528060408152602001614a04604091399050606060426040519080825280601f01601f191660200182016040528015613c5d5781602001600182028038833980820191505090505b50905060fe60f81b81600081518110613c7257fe5b60200101907effffffffffffffffffffffffffffffffffffffffffffffffffffffffffffff1916908160001a905350613cb18a60036041846001612e10565b50606060028b604581518110613cc357fe5b602001015160f81c60f81b60f81c60ff16016040519080825280601f01601f191660200182016040528015613d075781602001600182028038833980820191505090505b509050613d1a8b60448351846000612e10565b50613dc36002836040518082805190602001908083835b60208310613d545780518252602082019150602081019050602083039250613d31565b6001836020036101000a038019825116818451168082178552505050505050905001915050602060405180830381855afa158015613d96573d6000803e3d6000fd5b5050506040513d6020811015613dab57600080fd5b81019080805190602001909291905050508285613801565b975087985050505050505050505b92915050565b60008073ffffffffffffffffffffffffffffffffffffffff16600260009054906101000a900473ffffffffffffffffffffffffffffffffffffffff1673ffffffffffffffffffffffffffffffffffffffff161480613e5f57506000613e5d600260009054906101000a900473ffffffffffffffffffffffffffffffffffffffff16612387565b145b15613e7057613e6e6000612392565b505b600260009054906101000a900473ffffffffffffffffffffffffffffffffffffffff1673ffffffffffffffffffffffffffffffffffffffff166338cc48316040518163ffffffff1660e01b8152600401602060405180830381600087803b158015613eda57600080fd5b505af1158015613eee573d6000803e3d6000fd5b505050506040513d6020811015613f0457600080fd5b810190808051906020019092919050505073ffffffffffffffffffffffffffffffffffffffff16600160009054906101000a900473ffffffffffffffffffffffffffffffffffffffff1673ffffffffffffffffffffffffffffffffffffffff161461404f57600260009054906101000a900473ffffffffffffffffffffffffffffffffffffffff1673ffffffffffffffffffffffffffffffffffffffff166338cc48316040518163ffffffff1660e01b8152600401602060405180830381600087803b158015613fd357600080fd5b505af1158015613fe7573d6000803e3d6000fd5b505050506040513d6020811015613ffd57600080fd5b8101908080519060200190929190505050600160006101000a81548173ffffffffffffffffffffffffffffffffffffffff021916908373ffffffffffffffffffffffffffffffffffffffff1602179055505b6000600160009054906101000a900473ffffffffffffffffffffffffffffffffffffffff1673ffffffffffffffffffffffffffffffffffffffff16632ef3accc86856040518363ffffffff1660e01b81526004018080602001838152602001828103825284818151815260200191508051906020019080838360005b838110156140e65780820151818401526020810190506140cb565b50505050905090810190601f1680156141135780820380516001836020036101000a031916815260200191505b509350505050602060405180830381600087803b15801561413357600080fd5b505af1158015614147573d6000803e3d6000fd5b505050506040513d602081101561415d57600080fd5b81019080805190602001909291905050509050823a02670de0b6b3a764000001811115614190576000801b915050614336565b606061419b8561439b565b9050600160009054906101000a900473ffffffffffffffffffffffffffffffffffffffff1673ffffffffffffffffffffffffffffffffffffffff1663c55c1cb68360008985896040518663ffffffff1660e01b8152600401808581526020018060200180602001848152602001838103835286818151815260200191508051906020019080838360005b83811015614240578082015181840152602081019050614225565b50505050905090810190601f16801561426d5780820380516001836020036101000a031916815260200191505b50838103825285818151815260200191508051906020019080838360005b838110156142a657808201518184015260208101905061428b565b50505050905090810190601f1680156142d35780820380516001836020036101000a031916815260200191505b5096505050505050506020604051808303818588803b1580156142f557600080fd5b505af1158015614309573d6000803e3d6000fd5b50505050506040513d602081101561432057600080fd5b8101908080519060200190929190505050925050505b9392505050565b80600390805190602001906143539291906147d4565b5050565b60008060008060405188815287602082015286604082015285606082015260208160808360006001610bb8f192508051915050818193509350505094509492505050565b60606143a561441b565b6143ad61487b565b6143b981610400614427565b6143c281614471565b60008090505b8351811015614404576143f78482815181106143e057fe5b60200260200101518361447f90919063ffffffff16565b80806001019150506143c8565b5061440e816144a4565b8060000151915050919050565b60405180590338823950565b600081905060006020828161443857fe5b0614614451576020818161444857fe5b06602003810190505b808360200181815250506040518084526000815281810160405250505050565b61447c8160046144b2565b50565b61448c82600283516144d3565b61449f818361461390919063ffffffff16565b505050565b6144af8160076144b2565b50565b6144cf601f60058360ff16901b17836146be90919063ffffffff16565b5050565b601781116144ff576144fa8160058460ff16901b60ff1617846146be90919063ffffffff16565b61460e565b60ff811161454057614524601860058460ff16901b17846146be90919063ffffffff16565b61453a816001856146fe9092919063ffffffff16565b5061460d565b61ffff811161458257614566601960058460ff16901b17846146be90919063ffffffff16565b61457c816002856146fe9092919063ffffffff16565b5061460c565b63ffffffff81116145c6576145aa601a60058460ff16901b17846146be90919063ffffffff16565b6145c0816004856146fe9092919063ffffffff16565b5061460b565b67ffffffffffffffff811161460a576145f2601b60058460ff16901b17846146be90919063ffffffff16565b614608816008856146fe9092919063ffffffff16565b505b5b5b5b5b505050565b61461b61487b565b8260200151836000015151835101111561464b5761464a83600261464486602001518651614765565b02614781565b5b60008060008451905085518051602081830101945086518101825260208701935050505b60208110614692578151835260208301925060208201915060208103905061466f565b60006001826020036101000a039050801983511681855116818117865250508694505050505092915050565b816020015160018360000151510111156146e4576146e3826002846020015102614781565b5b815180516020818301018381536001820183525050505050565b61470661487b565b8360200151846000015151830111156147345761473384600261472d876020015186614765565b02614781565b5b60006001836101000a0390508451805184818301018684198251161781528582018352505050849150509392505050565b6000818311156147775782905061477b565b8190505b92915050565b6060826000015190506147948383614427565b61479e8382614613565b50505050565b6040518060400160405280600073ffffffffffffffffffffffffffffffffffffffff168152602001600081525090565b828054600181600116156101000203166002900490600052602060002090601f016020900481019282601f1061481557805160ff1916838001178555614843565b82800160010185558215614843579182015b82811115614842578251825591602001919060010190614827565b5b5090506148509190614895565b5090565b60405180608001604052806004905b60608152602001906001900390816148635790505090565b604051806040016040528060608152602001600081525090565b6148b791905b808211156148b357600081600090555060010161489b565b5090565b9056fe706c65617365207069636b206120612077686f6c65206e756d626572206265747765656e203020616e642031706c65617365207761697420756e74696c20796f75722063757272656e742073657373696f6e20697320636f6d706c6574654d7573742073656e64206174206c6561737420302e3120657468657220746f2074686520636f6e7472616374636f6e747261637420697320656d7074792e20506c65617365207761697420666f722074686520636f6e7472616374206f776e657220746f2070726f76696465206c6971756964697479596f7520646f206e6f74206861766520616e792077696e6e696e6720746f207769746864726177536166654d6174683a206d756c7469706c69636174696f6e206f766572666c6f77436f6e67726174756c6174696f6e732120596f75206861766520646f75626c656420796f7572207374616b65217fb956469c5c9b89840d55b43537e66a98dd4811ea0a27224272c2e5622911e8537a2f8e86a46baec82864e98dd01e9ccc2f8bc5dfc9cbe5a91a290498dd96e450726f7661626c65207175657279207761732073656e742c207374616e64696e6720627920666f722074686520616e737765722e2e2e496e73756666696369656e7420636f6e74726163742066756e647320666f72207769746864726177616c2e20506c6561736520776169742074696c6c2074686520636f6e747261637420686173206d6f72652066756e647320617661696c61626c652ea265627a7a72315820a68ec356877730cba745153564fa955042c710fc7ad1429e462973aa09c3fb1764736f6c634300050c0032",
  "source": "import \"./Ownable.sol\";\r\nimport \"./provableAPI.sol\";\r\nimport \"./Destroyable.sol\";\r\nimport \"./SafeMath.sol\";\r\npragma solidity 0.5.12;\r\n\r\n\r\ncontract CoinFlip is Ownable, Destroyable, usingProvable {\r\n\r\n\r\nusing SafeMath for uint256;\r\n\r\nstruct Bet {\r\naddress player;\r\nuint value;\r\n}\r\n\r\nstruct Player {\r\nuint earnings;\r\nuint wins;\r\nuint loss;\r\nuint latestGuess;\r\nuint outcome;\r\nbool isWaiting;\r\n}\r\n\r\nuint256 constant NUM_RANDOM_BYTES_REQUESTED = 1;\r\n\r\nuint private spend = 0.1 ether;\r\n\r\nuint public balance;\r\n\r\nstring public outcomeMessage;\r\n\r\nmapping (address => Player) private players;\r\nmapping (bytes32 => Bet) private waiting;\r\n\r\n\r\nevent playersOutcome(uint value, string outcome);\r\nevent LogNewProvableQuery(string description);\r\nevent playerStats(uint earnings, uint wins, uint loss);\r\nevent generatedRandomNumber(uint256 randomNumber);\r\n\r\n modifier minimumCost(uint cost) {\r\n     require(msg.value >= spend, \"Must send at least 0.1 ether to the contract\");\r\n     _;\r\n}\r\n\r\n constructor() public {\r\n     balance = 0;\r\n     provable_setProof(proofType_Ledger);\r\n }\r\n\r\n\r\nfunction getPlayer() public view returns(uint, uint, uint, uint, uint, bool){\r\n    return(players[msg.sender].earnings, players[msg.sender].wins, players[msg.sender].loss, players[msg.sender].latestGuess, players[msg.sender].outcome, players[msg.sender].isWaiting);\r\n}\r\n\r\n\r\n function __callback(bytes32 _queryId, string memory _result, bytes memory _proof) public {\r\n  require(msg.sender == provable_cbAddress());\r\n\r\n   if (provable_randomDS_proofVerify__returnCode(_queryId, _result, _proof) != 0) {\r\n            players[waiting[_queryId].player].isWaiting = false;\r\n        } else {\r\n\r\n            players[waiting[_queryId].player].outcome = uint256(keccak256(abi.encodePacked(_result))) % 2;\r\n\r\n\r\n            //FOR TESTING ONLY\r\n            emit generatedRandomNumber(players[waiting[_queryId].player].outcome);\r\n\r\n            finaliseOutcome(waiting[_queryId].player, waiting[_queryId].value);\r\n\r\n            delete waiting[_queryId];\r\n\r\n      }\r\n}\r\n\r\nfunction update(uint guess) payable public\r\n{\r\n  uint256 QUERY_EXECUTION_DELAY = 0; // NOTE: The datasource currently does not support delays > 0!\r\n  uint256 GAS_FOR_CALLBACK = 300000;\r\n\r\n  //FOR PRODUCTION\r\n  bytes32 queryId = provable_newRandomDSQuery(\r\n      QUERY_EXECUTION_DELAY,\r\n      NUM_RANDOM_BYTES_REQUESTED,\r\n      GAS_FOR_CALLBACK\r\n  );\r\n\r\n\r\n  Bet memory b;\r\n\r\n  b.player = msg.sender;\r\n  b.value = msg.value;\r\n  waiting[queryId] = b;\r\n\r\n  players[msg.sender].latestGuess = guess;\r\n\r\n\r\n  emit LogNewProvableQuery(\"Provable query was sent, standing by for the answer...\");\r\n\r\n}\r\n\r\n\r\nfunction flip(uint guess) public payable minimumCost(spend) {\r\n    require(guess == 0 || guess == 1, \"please pick a a whole number between 0 and 1\");\r\n    require(balance > 0, \"contract is empty. Please wait for the contract owner to provide liquidity\");\r\n    require(players[msg.sender].isWaiting == false, \"please wait until your current session is complete\");\r\n\r\n    players[msg.sender].isWaiting = true;\r\n    balance = balance.add(msg.value);\r\n    update(guess);\r\n\r\n\r\n}\r\n\r\n\r\nfunction finaliseOutcome(address sender,uint cost) public payable {\r\n  require(players[sender].outcome == 0 || players[sender].outcome == 1);\r\n\r\n  uint expected = players[sender].latestGuess;\r\n  uint result = players[sender].outcome;\r\n\r\n  if(expected == result){\r\n     uint won = cost.mul(2);\r\n\r\n      players[sender].earnings = players[sender].earnings.add(won);\r\n      players[sender].wins = players[sender].wins.add(1);\r\n\r\n      assert(expected == result);\r\n\r\n      outcomeMessage = \"Congratulations! You have doubled your stake!\";\r\n      emit playersOutcome(won, \"Congratulations! You have doubled your stake!\");\r\n\r\n\r\n  } else if(expected != result) {\r\n\r\n     players[sender].loss = players[sender].loss.add(1);\r\n\r\n     assert(expected != result);\r\n\r\n    outcomeMessage =  \"You have lost your stake!\";\r\n    emit playersOutcome(cost , \"You have lost your stake!\");\r\n  }\r\n\r\n  players[sender].isWaiting = false;\r\n\r\n  assert(result == 0 || result == 1);\r\n  emit playerStats(players[sender].earnings, players[sender].wins, players[sender].loss);\r\n\r\n}\r\n\r\n\r\nfunction withdraw_earnings() public {\r\n    require(players[msg.sender].earnings > 0, \"You do not have any winning to withdraw\");\r\n    require(balance >= players[msg.sender].earnings, \"Insufficient contract funds for withdrawal. Please wait till the contract has more funds available.\");\r\n\r\n     msg.sender.transfer(players[msg.sender].earnings);\r\n     balance -= players[msg.sender].earnings;\r\n     players[msg.sender].earnings = 0;\r\n\r\n\r\n     assert(balance >= players[msg.sender].earnings);\r\n}\r\n\r\nfunction addLiquidity() public payable minimumCost(spend) onlyOwner returns(uint) {\r\n\r\n    uint old_balance = balance;\r\n\r\n    balance += msg.value;\r\n\r\n    assert(balance > old_balance);\r\n\r\n    return balance;\r\n\r\n}\r\n\r\n\r\n}\r\n",
  "sourcePath": "D:/Ivan On Tech Academy/Ethereum Programming 201/CoinFlip/contracts/CoinFlip.sol",
  "compiler": {
    "name": "solc",
    "version": "0.5.12+commit.7709ece9.Emscripten.clang"
  },
  "schemaVersion": "3.0.16",
  "updatedAt": "2020-11-18T02:47:25.554Z",
  "devdoc": {
    "methods": {
      "__callback(bytes32,string)": {
        "details": "The following `__callback` functions are just placeholders ideally     meant to be defined in child contract when proofs are used.     The function bodies simply silence compiler warnings."
      }
    }
  },
  "userdoc": {
    "methods": {}
  }
}