{
  "contractName": "CoinFlip",
  "abi": [
    {
      "inputs": [],
      "payable": false,
      "stateMutability": "nonpayable",
      "type": "constructor"
    },
    {
      "anonymous": false,
      "inputs": [
        {
          "indexed": false,
          "internalType": "address",
          "name": "player",
          "type": "address"
        },
        {
          "indexed": false,
          "internalType": "uint256",
          "name": "outcome",
          "type": "uint256"
        }
      ],
      "name": "FlipOutcome",
      "type": "event"
    },
    {
      "anonymous": false,
      "inputs": [
        {
          "indexed": false,
          "internalType": "string",
          "name": "description",
          "type": "string"
        }
      ],
      "name": "LogNewProvableQuery",
      "type": "event"
    },
    {
      "constant": true,
      "inputs": [],
      "name": "balance",
      "outputs": [
        {
          "internalType": "uint256",
          "name": "",
          "type": "uint256"
        }
      ],
      "payable": false,
      "stateMutability": "view",
      "type": "function"
    },
    {
      "constant": false,
      "inputs": [],
      "name": "destroy",
      "outputs": [],
      "payable": false,
      "stateMutability": "nonpayable",
      "type": "function"
    },
    {
      "constant": true,
      "inputs": [],
      "name": "getPlayer",
      "outputs": [
        {
          "internalType": "uint256",
          "name": "",
          "type": "uint256"
        },
        {
          "internalType": "uint256",
          "name": "",
          "type": "uint256"
        },
        {
          "internalType": "uint256",
          "name": "",
          "type": "uint256"
        },
        {
          "internalType": "uint256",
          "name": "",
          "type": "uint256"
        },
        {
          "internalType": "uint256",
          "name": "",
          "type": "uint256"
        },
        {
          "internalType": "bool",
          "name": "",
          "type": "bool"
        }
      ],
      "payable": false,
      "stateMutability": "view",
      "type": "function"
    },
    {
      "constant": false,
      "inputs": [
        {
          "internalType": "bytes32",
          "name": "_myid",
          "type": "bytes32"
        },
        {
          "internalType": "string",
          "name": "_result",
          "type": "string"
        }
      ],
      "name": "__callback",
      "outputs": [],
      "payable": false,
      "stateMutability": "nonpayable",
      "type": "function"
    },
    {
      "constant": false,
      "inputs": [
        {
          "internalType": "bytes32",
          "name": "_queryId",
          "type": "bytes32"
        },
        {
          "internalType": "string",
          "name": "_result",
          "type": "string"
        },
        {
          "internalType": "bytes",
          "name": "_proof",
          "type": "bytes"
        }
      ],
      "name": "__callback",
      "outputs": [],
      "payable": false,
      "stateMutability": "nonpayable",
      "type": "function"
    },
    {
      "constant": false,
      "inputs": [
        {
          "internalType": "uint256",
          "name": "guess",
          "type": "uint256"
        }
      ],
      "name": "flip",
      "outputs": [],
      "payable": true,
      "stateMutability": "payable",
      "type": "function"
    },
    {
      "constant": false,
      "inputs": [
        {
          "internalType": "bytes32",
          "name": "_queryId",
          "type": "bytes32"
        }
      ],
      "name": "finaliseOutcome",
      "outputs": [],
      "payable": true,
      "stateMutability": "payable",
      "type": "function"
    },
    {
      "constant": false,
      "inputs": [],
      "name": "withdraw_earnings",
      "outputs": [],
      "payable": false,
      "stateMutability": "nonpayable",
      "type": "function"
    },
    {
      "constant": false,
      "inputs": [],
      "name": "addLiquidity",
      "outputs": [
        {
          "internalType": "uint256",
          "name": "",
          "type": "uint256"
        }
      ],
      "payable": true,
      "stateMutability": "payable",
      "type": "function"
    }
  ],
  "bytecode": "0x608060405267016345785d8a00006006553480156200001d57600080fd5b50336000806101000a81548173ffffffffffffffffffffffffffffffffffffffff021916908373ffffffffffffffffffffffffffffffffffffffff16021790555060006007819055506200007b603060f81b6200008160201b60201c565b62000aa5565b600073ffffffffffffffffffffffffffffffffffffffff16600260009054906101000a900473ffffffffffffffffffffffffffffffffffffffff1673ffffffffffffffffffffffffffffffffffffffff16148062000111575060006200010f600260009054906101000a900473ffffffffffffffffffffffffffffffffffffffff16620003e760201b60201c565b145b156200012b57620001296000620003f260201b60201c565b505b600260009054906101000a900473ffffffffffffffffffffffffffffffffffffffff1673ffffffffffffffffffffffffffffffffffffffff166338cc48316040518163ffffffff1660e01b8152600401602060405180830381600087803b1580156200019657600080fd5b505af1158015620001ab573d6000803e3d6000fd5b505050506040513d6020811015620001c257600080fd5b810190808051906020019092919050505073ffffffffffffffffffffffffffffffffffffffff16600160009054906101000a900473ffffffffffffffffffffffffffffffffffffffff1673ffffffffffffffffffffffffffffffffffffffff16146200031157600260009054906101000a900473ffffffffffffffffffffffffffffffffffffffff1673ffffffffffffffffffffffffffffffffffffffff166338cc48316040518163ffffffff1660e01b8152600401602060405180830381600087803b1580156200029357600080fd5b505af1158015620002a8573d6000803e3d6000fd5b505050506040513d6020811015620002bf57600080fd5b8101908080519060200190929190505050600160006101000a81548173ffffffffffffffffffffffffffffffffffffffff021916908373ffffffffffffffffffffffffffffffffffffffff1602179055505b600160009054906101000a900473ffffffffffffffffffffffffffffffffffffffff1673ffffffffffffffffffffffffffffffffffffffff1663688dcfd7826040518263ffffffff1660e01b815260040180827effffffffffffffffffffffffffffffffffffffffffffffffffffffffffffff19167effffffffffffffffffffffffffffffffffffffffffffffffffffffffffffff19168152602001915050600060405180830381600087803b158015620003cb57600080fd5b505af1158015620003e0573d6000803e3d6000fd5b5050505050565b6000813b9050919050565b6000620004046200040b60201b60201c565b9050919050565b60008062000433731d3b2638a7cc9f2cb3d298a3da7a90b67e5506ed620003e760201b60201c565b1115620004df57731d3b2638a7cc9f2cb3d298a3da7a90b67e5506ed600260006101000a81548173ffffffffffffffffffffffffffffffffffffffff021916908373ffffffffffffffffffffffffffffffffffffffff160217905550620004d56040518060400160405280600b81526020017f6574685f6d61696e6e6574000000000000000000000000000000000000000000815250620009da60201b60201c565b60019050620009d7565b60006200050673c03a2615d5efaf5f49f60b7bb6583eaec212fdf1620003e760201b60201c565b1115620005b25773c03a2615d5efaf5f49f60b7bb6583eaec212fdf1600260006101000a81548173ffffffffffffffffffffffffffffffffffffffff021916908373ffffffffffffffffffffffffffffffffffffffff160217905550620005a86040518060400160405280600c81526020017f6574685f726f707374656e330000000000000000000000000000000000000000815250620009da60201b60201c565b60019050620009d7565b6000620005d973b7a07bcf2ba2f2703b24c0691b5278999c59ac7e620003e760201b60201c565b1115620006855773b7a07bcf2ba2f2703b24c0691b5278999c59ac7e600260006101000a81548173ffffffffffffffffffffffffffffffffffffffff021916908373ffffffffffffffffffffffffffffffffffffffff1602179055506200067b6040518060400160405280600981526020017f6574685f6b6f76616e0000000000000000000000000000000000000000000000815250620009da60201b60201c565b60019050620009d7565b6000620006ac73146500cfd35b22e4a392fe0adc06de1a1368ed48620003e760201b60201c565b1115620007585773146500cfd35b22e4a392fe0adc06de1a1368ed48600260006101000a81548173ffffffffffffffffffffffffffffffffffffffff021916908373ffffffffffffffffffffffffffffffffffffffff1602179055506200074e6040518060400160405280600b81526020017f6574685f72696e6b656279000000000000000000000000000000000000000000815250620009da60201b60201c565b60019050620009d7565b60006200077f73a2998efd205fb9d4b4963afb70778d6354ad3a41620003e760201b60201c565b11156200082b5773a2998efd205fb9d4b4963afb70778d6354ad3a41600260006101000a81548173ffffffffffffffffffffffffffffffffffffffff021916908373ffffffffffffffffffffffffffffffffffffffff160217905550620008216040518060400160405280600a81526020017f6574685f676f65726c6900000000000000000000000000000000000000000000815250620009da60201b60201c565b60019050620009d7565b600062000852736f485c8bf6fc43ea212e93bbf8ce046c7f1cb475620003e760201b60201c565b1115620008b857736f485c8bf6fc43ea212e93bbf8ce046c7f1cb475600260006101000a81548173ffffffffffffffffffffffffffffffffffffffff021916908373ffffffffffffffffffffffffffffffffffffffff16021790555060019050620009d7565b6000620008df7320e12a1f859b3feae5fb2a0a32c18f5a65555bbf620003e760201b60201c565b111562000945577320e12a1f859b3feae5fb2a0a32c18f5a65555bbf600260006101000a81548173ffffffffffffffffffffffffffffffffffffffff021916908373ffffffffffffffffffffffffffffffffffffffff16021790555060019050620009d7565b60006200096c7351efaf4c8b3c9afbd5ab9f4bbc82784ab6ef8faa620003e760201b60201c565b1115620009d2577351efaf4c8b3c9afbd5ab9f4bbc82784ab6ef8faa600260006101000a81548173ffffffffffffffffffffffffffffffffffffffff021916908373ffffffffffffffffffffffffffffffffffffffff16021790555060019050620009d7565b600090505b90565b8060039080519060200190620009f2929190620009f6565b5050565b828054600181600116156101000203166002900490600052602060002090601f016020900481019282601f1062000a3957805160ff191683800117855562000a6a565b8280016001018555821562000a6a579182015b8281111562000a6957825182559160200191906001019062000a4c565b5b50905062000a79919062000a7d565b5090565b62000aa291905b8082111562000a9e57600081600090555060010162000a84565b5090565b90565b6148478062000ab56000396000f3fe6080604052600436106100865760003560e01c806363ea260b1161005957806363ea260b1461034657806383197ef0146103745780639e7caf3b1461038b578063b69ef8a8146103a2578063e8078d94146103cd57610086565b8063221e885d1461008b57806327dc297e146100b95780633308f42d1461018b57806338bbfa50146101dd575b600080fd5b6100b7600480360360208110156100a157600080fd5b81019080803590602001909291905050506103eb565b005b3480156100c557600080fd5b50610189600480360360408110156100dc57600080fd5b81019080803590602001909291908035906020019064010000000081111561010357600080fd5b82018360208201111561011557600080fd5b8035906020019184600183028401116401000000008311171561013757600080fd5b91908080601f016020809104026020016040519081016040528093929190818152602001838380828437600081840152601f19601f820116905080830192505050505050509192919290505050610793565b005b34801561019757600080fd5b506101a06107d6565b6040518087815260200186815260200185815260200184815260200183815260200182151515158152602001965050505050505060405180910390f35b3480156101e957600080fd5b506103446004803603606081101561020057600080fd5b81019080803590602001909291908035906020019064010000000081111561022757600080fd5b82018360208201111561023957600080fd5b8035906020019184600183028401116401000000008311171561025b57600080fd5b91908080601f016020809104026020016040519081016040528093929190818152602001838380828437600081840152601f19601f820116905080830192505050505050509192919290803590602001906401000000008111156102be57600080fd5b8201836020820111156102d057600080fd5b803590602001918460018302840111640100000000831117156102f257600080fd5b91908080601f016020809104026020016040519081016040528093929190818152602001838380828437600081840152601f19601f820116905080830192505050505050509192919290505050610992565b005b6103726004803603602081101561035c57600080fd5b8101908080359060200190929190505050610ce4565b005b34801561038057600080fd5b506103896111c8565b005b34801561039757600080fd5b506103a061125b565b005b3480156103ae57600080fd5b506103b7611506565b6040518082815260200191505060405180910390f35b6103d561150c565b6040518082815260200191505060405180910390f35b600654600654341015610449576040517f08c379a000000000000000000000000000000000000000000000000000000000815260040180806020018281038252602c81526020018061467c602c913960400191505060405180910390fd5b60008214806104585750600182145b6104ad576040517f08c379a000000000000000000000000000000000000000000000000000000000815260040180806020018281038252602c81526020018061461e602c913960400191505060405180910390fd5b600060075411610508576040517f08c379a000000000000000000000000000000000000000000000000000000000815260040180806020018281038252604a8152602001806146a8604a913960600191505060405180910390fd5b60001515600860003373ffffffffffffffffffffffffffffffffffffffff1673ffffffffffffffffffffffffffffffffffffffff16815260200190815260200160002060050160009054906101000a900460ff161515146105b4576040517f08c379a000000000000000000000000000000000000000000000000000000000815260040180806020018281038252603281526020018061464a6032913960400191505060405180910390fd5b81600860003373ffffffffffffffffffffffffffffffffffffffff1673ffffffffffffffffffffffffffffffffffffffff16815260200190815260200160002060030181905550610610346007546115f190919063ffffffff16565b60078190555060008090506000620493e09050600061063183600184611679565b905061063b614507565b33816000019073ffffffffffffffffffffffffffffffffffffffff16908173ffffffffffffffffffffffffffffffffffffffff168152505034816020018181525050806009600084815260200190815260200160002060008201518160000160006101000a81548173ffffffffffffffffffffffffffffffffffffffff021916908373ffffffffffffffffffffffffffffffffffffffff160217905550602082015181600101559050506001600860003373ffffffffffffffffffffffffffffffffffffffff1673ffffffffffffffffffffffffffffffffffffffff16815260200190815260200160002060050160006101000a81548160ff0219169083151502179055507fc4dc360d0a9c0677a3379ae0a3d81e887f761e65fdf3d7e00859d1bcd3c4738960405180806020018281038252603681526020018061477a6036913960400191505060405180910390a1505050505050565b6107d2828260006040519080825280601f01601f1916602001820160405280156107cc5781602001600182028038833980820191505090505b50610992565b5050565b600080600080600080600860003373ffffffffffffffffffffffffffffffffffffffff1673ffffffffffffffffffffffffffffffffffffffff16815260200190815260200160002060000154600860003373ffffffffffffffffffffffffffffffffffffffff1673ffffffffffffffffffffffffffffffffffffffff16815260200190815260200160002060010154600860003373ffffffffffffffffffffffffffffffffffffffff1673ffffffffffffffffffffffffffffffffffffffff16815260200190815260200160002060020154600860003373ffffffffffffffffffffffffffffffffffffffff1673ffffffffffffffffffffffffffffffffffffffff16815260200190815260200160002060030154600860003373ffffffffffffffffffffffffffffffffffffffff1673ffffffffffffffffffffffffffffffffffffffff16815260200190815260200160002060040154600860003373ffffffffffffffffffffffffffffffffffffffff1673ffffffffffffffffffffffffffffffffffffffff16815260200190815260200160002060050160009054906101000a900460ff16955095509550955095509550909192939495565b61099a611c14565b73ffffffffffffffffffffffffffffffffffffffff163373ffffffffffffffffffffffffffffffffffffffff16146109d157600080fd5b60006109de848484611f34565b60ff1614610a7c576000600860006009600087815260200190815260200160002060000160009054906101000a900473ffffffffffffffffffffffffffffffffffffffff1673ffffffffffffffffffffffffffffffffffffffff1673ffffffffffffffffffffffffffffffffffffffff16815260200190815260200160002060050160006101000a81548160ff021916908315150217905550610cdf565b6002826040516020018082805190602001908083835b60208310610ab55780518252602082019150602081019050602083039250610a92565b6001836020036101000a0380198251168184511680821785525050505050509050019150506040516020818303038152906040528051906020012060001c81610afa57fe5b06600860006009600087815260200190815260200160002060000160009054906101000a900473ffffffffffffffffffffffffffffffffffffffff1673ffffffffffffffffffffffffffffffffffffffff1673ffffffffffffffffffffffffffffffffffffffff16815260200190815260200160002060040181905550610b8083610ce4565b7fa606bf1bb39812847b530ee26f5131e9e559b5fe46d6d994bcdb49519383dc676009600085815260200190815260200160002060000160009054906101000a900473ffffffffffffffffffffffffffffffffffffffff16600860006009600088815260200190815260200160002060000160009054906101000a900473ffffffffffffffffffffffffffffffffffffffff1673ffffffffffffffffffffffffffffffffffffffff1673ffffffffffffffffffffffffffffffffffffffff16815260200190815260200160002060040154604051808373ffffffffffffffffffffffffffffffffffffffff1673ffffffffffffffffffffffffffffffffffffffff1681526020018281526020019250505060405180910390a160096000848152602001908152602001600020600080820160006101000a81549073ffffffffffffffffffffffffffffffffffffffff0219169055600182016000905550505b505050565b6000600860006009600085815260200190815260200160002060000160009054906101000a900473ffffffffffffffffffffffffffffffffffffffff1673ffffffffffffffffffffffffffffffffffffffff1673ffffffffffffffffffffffffffffffffffffffff168152602001908152602001600020600401541480610de357506001600860006009600085815260200190815260200160002060000160009054906101000a900473ffffffffffffffffffffffffffffffffffffffff1673ffffffffffffffffffffffffffffffffffffffff1673ffffffffffffffffffffffffffffffffffffffff16815260200190815260200160002060040154145b610dec57600080fd5b6000600860006009600085815260200190815260200160002060000160009054906101000a900473ffffffffffffffffffffffffffffffffffffffff1673ffffffffffffffffffffffffffffffffffffffff1673ffffffffffffffffffffffffffffffffffffffff1681526020019081526020016000206003015490506000600860006009600086815260200190815260200160002060000160009054906101000a900473ffffffffffffffffffffffffffffffffffffffff1673ffffffffffffffffffffffffffffffffffffffff1673ffffffffffffffffffffffffffffffffffffffff16815260200190815260200160002060040154905060006009600085815260200190815260200160002060000160009054906101000a900473ffffffffffffffffffffffffffffffffffffffff169050600060096000868152602001908152602001600020600101549050828414156110a2576000610f5a60028361206490919063ffffffff16565b9050610fb181600860008673ffffffffffffffffffffffffffffffffffffffff1673ffffffffffffffffffffffffffffffffffffffff168152602001908152602001600020600001546115f190919063ffffffff16565b600860008573ffffffffffffffffffffffffffffffffffffffff1673ffffffffffffffffffffffffffffffffffffffff1681526020019081526020016000206000018190555061104d6001600860008673ffffffffffffffffffffffffffffffffffffffff1673ffffffffffffffffffffffffffffffffffffffff168152602001908152602001600020600101546115f190919063ffffffff16565b600860008573ffffffffffffffffffffffffffffffffffffffff1673ffffffffffffffffffffffffffffffffffffffff1681526020019081526020016000206001018190555083851461109c57fe5b50611151565b828414611150576110ff6001600860008573ffffffffffffffffffffffffffffffffffffffff1673ffffffffffffffffffffffffffffffffffffffff168152602001908152602001600020600201546115f190919063ffffffff16565b600860008473ffffffffffffffffffffffffffffffffffffffff1673ffffffffffffffffffffffffffffffffffffffff168152602001908152602001600020600201819055508284141561114f57fe5b5b5b6000600860008473ffffffffffffffffffffffffffffffffffffffff1673ffffffffffffffffffffffffffffffffffffffff16815260200190815260200160002060050160006101000a81548160ff02191690831515021790555060008314806111bb5750600183145b6111c157fe5b5050505050565b6000809054906101000a900473ffffffffffffffffffffffffffffffffffffffff1673ffffffffffffffffffffffffffffffffffffffff163373ffffffffffffffffffffffffffffffffffffffff161461122157600080fd5b6000809054906101000a900473ffffffffffffffffffffffffffffffffffffffff1673ffffffffffffffffffffffffffffffffffffffff16ff5b6000600860003373ffffffffffffffffffffffffffffffffffffffff1673ffffffffffffffffffffffffffffffffffffffff16815260200190815260200160002060000154116112f6576040517f08c379a00000000000000000000000000000000000000000000000000000000081526004018080602001828103825260278152602001806146f26027913960400191505060405180910390fd5b600860003373ffffffffffffffffffffffffffffffffffffffff1673ffffffffffffffffffffffffffffffffffffffff168152602001908152602001600020600001546007541015611393576040517f08c379a00000000000000000000000000000000000000000000000000000000081526004018080602001828103825260638152602001806147b06063913960800191505060405180910390fd5b3373ffffffffffffffffffffffffffffffffffffffff166108fc600860003373ffffffffffffffffffffffffffffffffffffffff1673ffffffffffffffffffffffffffffffffffffffff168152602001908152602001600020600001549081150290604051600060405180830381858888f1935050505015801561141b573d6000803e3d6000fd5b50600860003373ffffffffffffffffffffffffffffffffffffffff1673ffffffffffffffffffffffffffffffffffffffff168152602001908152602001600020600001546007600082825403925050819055506000600860003373ffffffffffffffffffffffffffffffffffffffff1673ffffffffffffffffffffffffffffffffffffffff16815260200190815260200160002060000181905550600860003373ffffffffffffffffffffffffffffffffffffffff1673ffffffffffffffffffffffffffffffffffffffff16815260200190815260200160002060000154600754101561150457fe5b565b60075481565b600060065460065434101561156c576040517f08c379a000000000000000000000000000000000000000000000000000000000815260040180806020018281038252602c81526020018061467c602c913960400191505060405180910390fd5b6000809054906101000a900473ffffffffffffffffffffffffffffffffffffffff1673ffffffffffffffffffffffffffffffffffffffff163373ffffffffffffffffffffffffffffffffffffffff16146115c557600080fd5b600060075490503460076000828254019250508190555080600754116115e757fe5b6007549250505090565b60008082840190508381101561166f576040517f08c379a000000000000000000000000000000000000000000000000000000000815260040180806020018281038252601b8152602001807f536166654d6174683a206164646974696f6e206f766572666c6f77000000000081525060200191505060405180910390fd5b8091505092915050565b6000808311801561168b575060208311155b61169457600080fd5b600a84029350606060016040519080825280601f01601f1916602001820160405280156116d05781602001600182028038833980820191505090505b5090508360f81b816000815181106116e457fe5b60200101907effffffffffffffffffffffffffffffffffffffffffffffffffffffffffffff1916908160001a905350606060206040519080825280601f01601f1916602001820160405280156117495781602001600182028038833980820191505090505b509050606060206040519080825280601f01601f1916602001820160405280156117825781602001600182028038833980820191505090505b509050600061178f6120ea565b905060208352424118600143034018602084015260208252806020830152606060206040519080825280601f01601f1916602001820160405280156117e35781602001600182028038833980820191505090505b509050886020820152606060086040519080825280601f01601f1916602001820160405280156118225781602001600182028038833980820191505090505b509050611835826018600884600061240a565b5061183e614537565b604051806080016040528087815260200188815260200186815260200184815250905060006118a36040518060400160405280600681526020017f72616e646f6d0000000000000000000000000000000000000000000000000000815250838c612469565b9050606060086040519080825280601f01601f1916602001820160405280156118db5781602001600182028038833980820191505090505b50905060208401517f0100000000000000000000000000000000000000000000000000000000000000810460278301537e01000000000000000000000000000000000000000000000000000000000000810460268301537d010000000000000000000000000000000000000000000000000000000000810460258301537c0100000000000000000000000000000000000000000000000000000000810460248301537b01000000000000000000000000000000000000000000000000000000810460238301537a010000000000000000000000000000000000000000000000000000810460228301537901000000000000000000000000000000000000000000000000008104602183015378010000000000000000000000000000000000000000000000008104602083015350611c01828285600160048110611a1a57fe5b6020020151600287600060048110611a2e57fe5b60200201516040518082805190602001908083835b60208310611a665780518252602082019150602081019050602083039250611a43565b6001836020036101000a038019825116818451168082178552505050505050905001915050602060405180830381855afa158015611aa8573d6000803e3d6000fd5b5050506040513d6020811015611abd57600080fd5b810190808051906020019092919050505087600260048110611adb57fe5b60200201516040516020018085805190602001908083835b60208310611b165780518252602082019150602081019050602083039250611af3565b6001836020036101000a03801982511681845116808217855250505050505090500184805190602001908083835b60208310611b675780518252602082019150602081019050602083039250611b44565b6001836020036101000a03801982511681845116808217855250505050505090500183815260200182805190602001908083835b60208310611bbe5780518252602082019150602081019050602083039250611b9b565b6001836020036101000a038019825116818451168082178552505050505050905001945050505050604051602081830303815290604052805190602001206127d8565b8199505050505050505050509392505050565b60008073ffffffffffffffffffffffffffffffffffffffff16600260009054906101000a900473ffffffffffffffffffffffffffffffffffffffff1673ffffffffffffffffffffffffffffffffffffffff161480611c9c57506000611c9a600260009054906101000a900473ffffffffffffffffffffffffffffffffffffffff166127f4565b145b15611cad57611cab60006127ff565b505b600260009054906101000a900473ffffffffffffffffffffffffffffffffffffffff1673ffffffffffffffffffffffffffffffffffffffff166338cc48316040518163ffffffff1660e01b8152600401602060405180830381600087803b158015611d1757600080fd5b505af1158015611d2b573d6000803e3d6000fd5b505050506040513d6020811015611d4157600080fd5b810190808051906020019092919050505073ffffffffffffffffffffffffffffffffffffffff16600160009054906101000a900473ffffffffffffffffffffffffffffffffffffffff1673ffffffffffffffffffffffffffffffffffffffff1614611e8c57600260009054906101000a900473ffffffffffffffffffffffffffffffffffffffff1673ffffffffffffffffffffffffffffffffffffffff166338cc48316040518163ffffffff1660e01b8152600401602060405180830381600087803b158015611e1057600080fd5b505af1158015611e24573d6000803e3d6000fd5b505050506040513d6020811015611e3a57600080fd5b8101908080519060200190929190505050600160006101000a81548173ffffffffffffffffffffffffffffffffffffffff021916908373ffffffffffffffffffffffffffffffffffffffff1602179055505b600160009054906101000a900473ffffffffffffffffffffffffffffffffffffffff1673ffffffffffffffffffffffffffffffffffffffff1663c281d19e6040518163ffffffff1660e01b815260040160206040518083038186803b158015611ef457600080fd5b505afa158015611f08573d6000803e3d6000fd5b505050506040513d6020811015611f1e57600080fd5b8101908080519060200190929190505050905090565b60007f4c0000000000000000000000000000000000000000000000000000000000000082600081518110611f6457fe5b602001015160f81c60f81b7effffffffffffffffffffffffffffffffffffffffffffffffffffffffffffff1916141580611ff757507f500000000000000000000000000000000000000000000000000000000000000082600181518110611fc757fe5b602001015160f81c60f81b7effffffffffffffffffffffffffffffffffffffffffffffffffffffffffffff191614155b806120235750600160ff168260028151811061200f57fe5b602001015160f81c60f81b60f81c60ff1614155b15612031576001905061205d565b6000612046838686612041612810565b6128b2565b90508061205757600291505061205d565b60009150505b9392505050565b60008083141561207757600090506120e4565b600082840290508284828161208857fe5b04146120df576040517f08c379a00000000000000000000000000000000000000000000000000000000081526004018080602001828103825260218152602001806147196021913960400191505060405180910390fd5b809150505b92915050565b60008073ffffffffffffffffffffffffffffffffffffffff16600260009054906101000a900473ffffffffffffffffffffffffffffffffffffffff1673ffffffffffffffffffffffffffffffffffffffff16148061217257506000612170600260009054906101000a900473ffffffffffffffffffffffffffffffffffffffff166127f4565b145b156121835761218160006127ff565b505b600260009054906101000a900473ffffffffffffffffffffffffffffffffffffffff1673ffffffffffffffffffffffffffffffffffffffff166338cc48316040518163ffffffff1660e01b8152600401602060405180830381600087803b1580156121ed57600080fd5b505af1158015612201573d6000803e3d6000fd5b505050506040513d602081101561221757600080fd5b810190808051906020019092919050505073ffffffffffffffffffffffffffffffffffffffff16600160009054906101000a900473ffffffffffffffffffffffffffffffffffffffff1673ffffffffffffffffffffffffffffffffffffffff161461236257600260009054906101000a900473ffffffffffffffffffffffffffffffffffffffff1673ffffffffffffffffffffffffffffffffffffffff166338cc48316040518163ffffffff1660e01b8152600401602060405180830381600087803b1580156122e657600080fd5b505af11580156122fa573d6000803e3d6000fd5b505050506040513d602081101561231057600080fd5b8101908080519060200190929190505050600160006101000a81548173ffffffffffffffffffffffffffffffffffffffff021916908373ffffffffffffffffffffffffffffffffffffffff1602179055505b600160009054906101000a900473ffffffffffffffffffffffffffffffffffffffff1673ffffffffffffffffffffffffffffffffffffffff1663abaa5f3e6040518163ffffffff1660e01b815260040160206040518083038186803b1580156123ca57600080fd5b505afa1580156123de573d6000803e3d6000fd5b505050506040513d60208110156123f457600080fd5b8101908080519060200190929190505050905090565b606060008285019050808451101561242157600080fd5b600086602001905060008460200190505b86886020010182101561245a5781890151808288015250602082019150602081019050612432565b85935050505095945050505050565b60008073ffffffffffffffffffffffffffffffffffffffff16600260009054906101000a900473ffffffffffffffffffffffffffffffffffffffff1673ffffffffffffffffffffffffffffffffffffffff1614806124f1575060006124ef600260009054906101000a900473ffffffffffffffffffffffffffffffffffffffff166127f4565b145b156125025761250060006127ff565b505b600260009054906101000a900473ffffffffffffffffffffffffffffffffffffffff1673ffffffffffffffffffffffffffffffffffffffff166338cc48316040518163ffffffff1660e01b8152600401602060405180830381600087803b15801561256c57600080fd5b505af1158015612580573d6000803e3d6000fd5b505050506040513d602081101561259657600080fd5b810190808051906020019092919050505073ffffffffffffffffffffffffffffffffffffffff16600160009054906101000a900473ffffffffffffffffffffffffffffffffffffffff1673ffffffffffffffffffffffffffffffffffffffff16146126e157600260009054906101000a900473ffffffffffffffffffffffffffffffffffffffff1673ffffffffffffffffffffffffffffffffffffffff166338cc48316040518163ffffffff1660e01b8152600401602060405180830381600087803b15801561266557600080fd5b505af1158015612679573d6000803e3d6000fd5b505050506040513d602081101561268f57600080fd5b8101908080519060200190929190505050600160006101000a81548173ffffffffffffffffffffffffffffffffffffffff021916908373ffffffffffffffffffffffffffffffffffffffff1602179055505b6060600460405190808252806020026020018201604052801561271857816020015b60608152602001906001900390816127035790505b5090508360006004811061272857fe5b60200201518160008151811061273a57fe5b60200260200101819052508360016004811061275257fe5b60200201518160018151811061276457fe5b60200260200101819052508360026004811061277c57fe5b60200201518160028151811061278e57fe5b6020026020010181905250836003600481106127a657fe5b6020020151816003815181106127b857fe5b60200260200101819052506127ce858285612f5d565b9150509392505050565b8060046000848152602001908152602001600020819055505050565b6000813b9050919050565b60006128096134c3565b9050919050565b606060038054600181600116156101000203166002900480601f0160208091040260200160405190810160405280929190818152602001828054600181600116156101000203166002900480156128a85780601f1061287d576101008083540402835291602001916128a8565b820191906000526020600020905b81548152906001019060200180831161288b57829003601f168201915b5050505050905090565b60008060206002876045815181106128c657fe5b602001015160f81c60f81b60f81c60ff1601604401019050606060206040519080825280601f01601f1916602001820160405280156129145781602001600182028038833980820191505090505b5090506129268783602084600061240a565b50600284876040516020018083805190602001908083835b60208310612961578051825260208201915060208101905060208303925061293e565b6001836020036101000a038019825116818451168082178552505050505050905001828152602001925050506040516020818303038152906040526040518082805190602001908083835b602083106129cf57805182526020820191506020810190506020830392506129ac565b6001836020036101000a038019825116818451168082178552505050505050905001915050602060405180830381855afa158015612a11573d6000803e3d6000fd5b5050506040513d6020811015612a2657600080fd5b81019080805190602001909291905050506040516020018082815260200191505060405160208183030381529060405280519060200120818051906020012014612a7557600092505050612f55565b60606002886001604986010181518110612a8b57fe5b602001015160f81c60f81b60f81c60ff16016040519080825280601f01601f191660200182016040528015612acf5781602001600182028038833980820191505090505b509050612ae48860498501835184600061240a565b50612baf6002826040518082805190602001908083835b60208310612b1e5780518252602082019150602081019050602083039250612afb565b6001836020036101000a038019825116818451168082178552505050505050905001915050602060405180830381855afa158015612b60573d6000803e3d6000fd5b5050506040513d6020811015612b7557600080fd5b8101908080519060200190929190505050878a6008602088010181518110612b9957fe5b602001015160f81c60f81b60f81c60ff16613a1a565b612bbf5760009350505050612f55565b606060296040519080825280601f01601f191660200182016040528015612bf55781602001600182028038833980820191505090505b509050612c0a8960208601602984600061240a565b506060604080519080825280601f01601f191660200182016040528015612c405781602001600182028038833980820191505090505b5090506000604184516029602089010101019050612c668b60408303604085600061240a565b5060006002836040518082805190602001908083835b60208310612c9f5780518252602082019150602081019050602083039250612c7c565b6001836020036101000a038019825116818451168082178552505050505050905001915050602060405180830381855afa158015612ce1573d6000803e3d6000fd5b5050506040513d6020811015612cf657600080fd5b8101908080519060200190929190505050905083816040516020018083805190602001908083835b60208310612d415780518252602082019150602081019050602083039250612d1e565b6001836020036101000a0380198251168184511680821785525050505050509050018281526020019250505060405160208183030381529060405280519060200120600460008d8152602001908152602001600020541415612db957600460008c815260200190815260200160002060009055612dc9565b6000975050505050505050612f55565b606060496040519080825280601f01601f191660200182016040528015612dff5781602001600182028038833980820191505090505b509050612e118d89604984600061240a565b50612eba6002826040518082805190602001908083835b60208310612e4b5780518252602082019150602081019050602083039250612e28565b6001836020036101000a038019825116818451168082178552505050505050905001915050602060405180830381855afa158015612e8d573d6000803e3d6000fd5b5050506040513d6020811015612ea257600080fd5b81019080805190602001909291905050508786613aca565b612ecf57600098505050505050505050612f55565b6005600083815260200190815260200160002060009054906101000a900460ff16612f2957612efe8d84613c88565b6005600084815260200190815260200160002060006101000a81548160ff0219169083151502179055505b6005600083815260200190815260200160002060009054906101000a900460ff16985050505050505050505b949350505050565b60008073ffffffffffffffffffffffffffffffffffffffff16600260009054906101000a900473ffffffffffffffffffffffffffffffffffffffff1673ffffffffffffffffffffffffffffffffffffffff161480612fe557506000612fe3600260009054906101000a900473ffffffffffffffffffffffffffffffffffffffff166127f4565b145b15612ff657612ff460006127ff565b505b600260009054906101000a900473ffffffffffffffffffffffffffffffffffffffff1673ffffffffffffffffffffffffffffffffffffffff166338cc48316040518163ffffffff1660e01b8152600401602060405180830381600087803b15801561306057600080fd5b505af1158015613074573d6000803e3d6000fd5b505050506040513d602081101561308a57600080fd5b810190808051906020019092919050505073ffffffffffffffffffffffffffffffffffffffff16600160009054906101000a900473ffffffffffffffffffffffffffffffffffffffff1673ffffffffffffffffffffffffffffffffffffffff16146131d557600260009054906101000a900473ffffffffffffffffffffffffffffffffffffffff1673ffffffffffffffffffffffffffffffffffffffff166338cc48316040518163ffffffff1660e01b8152600401602060405180830381600087803b15801561315957600080fd5b505af115801561316d573d6000803e3d6000fd5b505050506040513d602081101561318357600080fd5b8101908080519060200190929190505050600160006101000a81548173ffffffffffffffffffffffffffffffffffffffff021916908373ffffffffffffffffffffffffffffffffffffffff1602179055505b6000600160009054906101000a900473ffffffffffffffffffffffffffffffffffffffff1673ffffffffffffffffffffffffffffffffffffffff16632ef3accc86856040518363ffffffff1660e01b81526004018080602001838152602001828103825284818151815260200191508051906020019080838360005b8381101561326c578082015181840152602081019050613251565b50505050905090810190601f1680156132995780820380516001836020036101000a031916815260200191505b509350505050602060405180830381600087803b1580156132b957600080fd5b505af11580156132cd573d6000803e3d6000fd5b505050506040513d60208110156132e357600080fd5b81019080805190602001909291905050509050823a02670de0b6b3a764000001811115613316576000801b9150506134bc565b6060613321856140a0565b9050600160009054906101000a900473ffffffffffffffffffffffffffffffffffffffff1673ffffffffffffffffffffffffffffffffffffffff1663c55c1cb68360008985896040518663ffffffff1660e01b8152600401808581526020018060200180602001848152602001838103835286818151815260200191508051906020019080838360005b838110156133c65780820151818401526020810190506133ab565b50505050905090810190601f1680156133f35780820380516001836020036101000a031916815260200191505b50838103825285818151815260200191508051906020019080838360005b8381101561342c578082015181840152602081019050613411565b50505050905090810190601f1680156134595780820380516001836020036101000a031916815260200191505b5096505050505050506020604051808303818588803b15801561347b57600080fd5b505af115801561348f573d6000803e3d6000fd5b50505050506040513d60208110156134a657600080fd5b8101908080519060200190929190505050925050505b9392505050565b6000806134e3731d3b2638a7cc9f2cb3d298a3da7a90b67e5506ed6127f4565b111561358557731d3b2638a7cc9f2cb3d298a3da7a90b67e5506ed600260006101000a81548173ffffffffffffffffffffffffffffffffffffffff021916908373ffffffffffffffffffffffffffffffffffffffff16021790555061357c6040518060400160405280600b81526020017f6574685f6d61696e6e6574000000000000000000000000000000000000000000815250614120565b60019050613a17565b60006135a473c03a2615d5efaf5f49f60b7bb6583eaec212fdf16127f4565b11156136465773c03a2615d5efaf5f49f60b7bb6583eaec212fdf1600260006101000a81548173ffffffffffffffffffffffffffffffffffffffff021916908373ffffffffffffffffffffffffffffffffffffffff16021790555061363d6040518060400160405280600c81526020017f6574685f726f707374656e330000000000000000000000000000000000000000815250614120565b60019050613a17565b600061366573b7a07bcf2ba2f2703b24c0691b5278999c59ac7e6127f4565b11156137075773b7a07bcf2ba2f2703b24c0691b5278999c59ac7e600260006101000a81548173ffffffffffffffffffffffffffffffffffffffff021916908373ffffffffffffffffffffffffffffffffffffffff1602179055506136fe6040518060400160405280600981526020017f6574685f6b6f76616e0000000000000000000000000000000000000000000000815250614120565b60019050613a17565b600061372673146500cfd35b22e4a392fe0adc06de1a1368ed486127f4565b11156137c85773146500cfd35b22e4a392fe0adc06de1a1368ed48600260006101000a81548173ffffffffffffffffffffffffffffffffffffffff021916908373ffffffffffffffffffffffffffffffffffffffff1602179055506137bf6040518060400160405280600b81526020017f6574685f72696e6b656279000000000000000000000000000000000000000000815250614120565b60019050613a17565b60006137e773a2998efd205fb9d4b4963afb70778d6354ad3a416127f4565b11156138895773a2998efd205fb9d4b4963afb70778d6354ad3a41600260006101000a81548173ffffffffffffffffffffffffffffffffffffffff021916908373ffffffffffffffffffffffffffffffffffffffff1602179055506138806040518060400160405280600a81526020017f6574685f676f65726c6900000000000000000000000000000000000000000000815250614120565b60019050613a17565b60006138a8736f485c8bf6fc43ea212e93bbf8ce046c7f1cb4756127f4565b111561390c57736f485c8bf6fc43ea212e93bbf8ce046c7f1cb475600260006101000a81548173ffffffffffffffffffffffffffffffffffffffff021916908373ffffffffffffffffffffffffffffffffffffffff16021790555060019050613a17565b600061392b7320e12a1f859b3feae5fb2a0a32c18f5a65555bbf6127f4565b111561398f577320e12a1f859b3feae5fb2a0a32c18f5a65555bbf600260006101000a81548173ffffffffffffffffffffffffffffffffffffffff021916908373ffffffffffffffffffffffffffffffffffffffff16021790555060019050613a17565b60006139ae7351efaf4c8b3c9afbd5ab9f4bbc82784ab6ef8faa6127f4565b1115613a12577351efaf4c8b3c9afbd5ab9f4bbc82784ab6ef8faa600260006101000a81548173ffffffffffffffffffffffffffffffffffffffff021916908373ffffffffffffffffffffffffffffffffffffffff16021790555060019050613a17565b600090505b90565b6000806001905082845114613a2e57600080fd5b60008090505b83811015613abe57848181518110613a4857fe5b602001015160f81c60f81b7effffffffffffffffffffffffffffffffffffffffffffffffffffffffffffff1916868260208110613a8157fe5b1a60f81b7effffffffffffffffffffffffffffffffffffffffffffffffffffffffffffff191614613ab157600091505b8080600101915050613a34565b50809150509392505050565b6000806000806000606060206040519080825280601f01601f191660200182016040528015613b085781602001600182028038833980820191505090505b5090506000602089600381518110613b1c57fe5b602001015160f81c60f81b60f81c60ff16036004019050613b428982602085600061240a565b9150606060206040519080825280601f01601f191660200182016040528015613b7a5781602001600182028038833980820191505090505b509050602282019150613bb68a60208c6001860381518110613b9857fe5b602001015160f81c60f81b60f81c60ff16038401602084600061240a565b90506020830151945060208101519350613bd38b601b878761413a565b80975081985050508573ffffffffffffffffffffffffffffffffffffffff16898051906020012060001c73ffffffffffffffffffffffffffffffffffffffff161415613c29576001975050505050505050613c81565b613c368b601c878761413a565b80975081985050508573ffffffffffffffffffffffffffffffffffffffff16898051906020012060001c73ffffffffffffffffffffffffffffffffffffffff16149750505050505050505b9392505050565b60008060606002856001860181518110613c9e57fe5b602001015160f81c60f81b60f81c60ff16016040519080825280601f01601f191660200182016040528015613ce25781602001600182028038833980820191505090505b509050613cf48585835184600061240a565b506060604080519080825280601f01601f191660200182016040528015613d2a5781602001600182028038833980820191505090505b509050613d3d866004604084600061240a565b50606060626040519080825280601f01601f191660200182016040528015613d745781602001600182028038833980820191505090505b509050600160f81b81600081518110613d8957fe5b60200101907effffffffffffffffffffffffffffffffffffffffffffffffffffffffffffff1916908160001a905350613dca8760418803604184600161240a565b5060606040518060400160405280602081526020017ffd94fa71bc0ba10d39d464d0d8f465efeef0a2764e3887fcc9df41ded20f505c8152509050613e15816000602085604261240a565b50613ebe6002836040518082805190602001908083835b60208310613e4f5780518252602082019150602081019050602083039250613e2c565b6001836020036101000a038019825116818451168082178552505050505050905001915050602060405180830381855afa158015613e91573d6000803e3d6000fd5b5050506040513d6020811015613ea657600080fd5b81019080805190602001909291905050508585613aca565b945084613ed35760009550505050505061409a565b606060405180606001604052806040815260200161473a604091399050606060426040519080825280601f01601f191660200182016040528015613f265781602001600182028038833980820191505090505b50905060fe60f81b81600081518110613f3b57fe5b60200101907effffffffffffffffffffffffffffffffffffffffffffffffffffffffffffff1916908160001a905350613f7a8a6003604184600161240a565b50606060028b604581518110613f8c57fe5b602001015160f81c60f81b60f81c60ff16016040519080825280601f01601f191660200182016040528015613fd05781602001600182028038833980820191505090505b509050613fe38b6044835184600061240a565b5061408c6002836040518082805190602001908083835b6020831061401d5780518252602082019150602081019050602083039250613ffa565b6001836020036101000a038019825116818451168082178552505050505050905001915050602060405180830381855afa15801561405f573d6000803e3d6000fd5b5050506040513d602081101561407457600080fd5b81019080805190602001909291905050508285613aca565b975087985050505050505050505b92915050565b60606140aa61417e565b6140b261455e565b6140be8161040061418a565b6140c7816141d4565b60008090505b8351811015614109576140fc8482815181106140e557fe5b6020026020010151836141e290919063ffffffff16565b80806001019150506140cd565b5061411381614207565b8060000151915050919050565b8060039080519060200190614136929190614578565b5050565b60008060008060405188815287602082015286604082015285606082015260208160808360006001610bb8f192508051915050818193509350505094509492505050565b60405180590338823950565b600081905060006020828161419b57fe5b06146141b457602081816141ab57fe5b06602003810190505b808360200181815250506040518084526000815281810160405250505050565b6141df816004614215565b50565b6141ef8260028351614236565b614202818361437690919063ffffffff16565b505050565b614212816007614215565b50565b614232601f60058360ff16901b178361442190919063ffffffff16565b5050565b601781116142625761425d8160058460ff16901b60ff16178461442190919063ffffffff16565b614371565b60ff81116142a357614287601860058460ff16901b178461442190919063ffffffff16565b61429d816001856144619092919063ffffffff16565b50614370565b61ffff81116142e5576142c9601960058460ff16901b178461442190919063ffffffff16565b6142df816002856144619092919063ffffffff16565b5061436f565b63ffffffff81116143295761430d601a60058460ff16901b178461442190919063ffffffff16565b614323816004856144619092919063ffffffff16565b5061436e565b67ffffffffffffffff811161436d57614355601b60058460ff16901b178461442190919063ffffffff16565b61436b816008856144619092919063ffffffff16565b505b5b5b5b5b505050565b61437e61455e565b826020015183600001515183510111156143ae576143ad8360026143a7866020015186516144c8565b026144e4565b5b60008060008451905085518051602081830101945086518101825260208701935050505b602081106143f557815183526020830192506020820191506020810390506143d2565b60006001826020036101000a039050801983511681855116818117865250508694505050505092915050565b81602001516001836000015151011115614447576144468260028460200151026144e4565b5b815180516020818301018381536001820183525050505050565b61446961455e565b836020015184600001515183011115614497576144968460026144908760200151866144c8565b026144e4565b5b60006001836101000a0390508451805184818301018684198251161781528582018352505050849150509392505050565b6000818311156144da578290506144de565b8190505b92915050565b6060826000015190506144f7838361418a565b6145018382614376565b50505050565b6040518060400160405280600073ffffffffffffffffffffffffffffffffffffffff168152602001600081525090565b60405180608001604052806004905b60608152602001906001900390816145465790505090565b604051806040016040528060608152602001600081525090565b828054600181600116156101000203166002900490600052602060002090601f016020900481019282601f106145b957805160ff19168380011785556145e7565b828001600101855582156145e7579182015b828111156145e65782518255916020019190600101906145cb565b5b5090506145f491906145f8565b5090565b61461a91905b808211156146165760008160009055506001016145fe565b5090565b9056fe706c65617365207069636b206120612077686f6c65206e756d626572206265747765656e203020616e642031706c65617365207761697420756e74696c20796f75722063757272656e742073657373696f6e20697320636f6d706c6574654d7573742073656e64206174206c6561737420302e3120657468657220746f2074686520636f6e7472616374636f6e747261637420697320656d7074792e20506c65617365207761697420666f722074686520636f6e7472616374206f776e657220746f2070726f76696465206c6971756964697479596f7520646f206e6f74206861766520616e792077696e6e696e6720746f207769746864726177536166654d6174683a206d756c7469706c69636174696f6e206f766572666c6f777fb956469c5c9b89840d55b43537e66a98dd4811ea0a27224272c2e5622911e8537a2f8e86a46baec82864e98dd01e9ccc2f8bc5dfc9cbe5a91a290498dd96e450726f7661626c65207175657279207761732073656e742c207374616e64696e6720627920666f722074686520616e737765722e2e2e496e73756666696369656e7420636f6e74726163742066756e647320666f72207769746864726177616c2e20506c6561736520776169742074696c6c2074686520636f6e747261637420686173206d6f72652066756e647320617661696c61626c652ea265627a7a723158208e8cfac7c503a1100b55f6d3ca4a79c45db7e8c104f0dd3471f056ae1371fe1a64736f6c634300050c0032",
  "source": "import \"./Ownable.sol\";\r\nimport \"./provableAPI.sol\";\r\nimport \"./Destroyable.sol\";\r\nimport \"./SafeMath.sol\";\r\npragma solidity 0.5.12;\r\n\r\n\r\ncontract CoinFlip is Ownable, Destroyable, usingProvable {\r\n\r\n\r\nusing SafeMath for uint256;\r\n\r\nstruct Bet {\r\naddress player;\r\nuint value;\r\n}\r\n\r\nstruct Player {\r\nuint earnings;\r\nuint wins;\r\nuint loss;\r\nuint latestGuess;\r\nuint outcome;\r\nbool isWaiting;\r\n}\r\n\r\nuint256 constant NUM_RANDOM_BYTES_REQUESTED = 1;\r\n\r\nuint private spend = 0.1 ether;\r\n\r\nuint public balance;\r\n\r\nmapping (address => Player) private players;\r\nmapping (bytes32 => Bet) private waiting;\r\n\r\n\r\nevent FlipOutcome(address player, uint outcome);\r\nevent LogNewProvableQuery(string description);\r\n\r\n modifier minimumCost(uint cost) {\r\n     require(msg.value >= spend, \"Must send at least 0.1 ether to the contract\");\r\n     _;\r\n}\r\n\r\n constructor() public {\r\n     balance = 0;\r\n     provable_setProof(proofType_Ledger);\r\n }\r\n\r\n\r\nfunction getPlayer() public view returns(uint, uint, uint, uint, uint, bool){\r\n    return(players[msg.sender].earnings, players[msg.sender].wins, players[msg.sender].loss, players[msg.sender].latestGuess, players[msg.sender].outcome, players[msg.sender].isWaiting);\r\n}\r\n\r\n\r\n function __callback(bytes32 _queryId, string memory _result, bytes memory _proof) public {\r\n  require(msg.sender == provable_cbAddress());\r\n\r\n   if (provable_randomDS_proofVerify__returnCode(_queryId, _result, _proof) != 0) {\r\n            players[waiting[_queryId].player].isWaiting = false;\r\n        } else {\r\n\r\n            players[waiting[_queryId].player].outcome = uint256(keccak256(abi.encodePacked(_result))) % 2;\r\n\r\n\r\n            finaliseOutcome(_queryId);\r\n\r\n            emit FlipOutcome(waiting[_queryId].player, players[waiting[_queryId].player].outcome);\r\n\r\n            delete waiting[_queryId];\r\n\r\n      }\r\n}\r\n\r\nfunction flip(uint guess) public payable minimumCost(spend)\r\n{\r\n  require(guess == 0 || guess == 1, \"please pick a a whole number between 0 and 1\");\r\n  require(balance > 0, \"contract is empty. Please wait for the contract owner to provide liquidity\");\r\n  require(players[msg.sender].isWaiting == false, \"please wait until your current session is complete\");\r\n\r\n\r\n  players[msg.sender].latestGuess = guess;\r\n  balance = balance.add(msg.value);\r\n\r\n  uint256 QUERY_EXECUTION_DELAY = 0; // NOTE: The datasource currently does not support delays > 0!\r\n  uint256 GAS_FOR_CALLBACK = 300000;\r\n\r\n  //FOR PRODUCTION\r\n  bytes32 queryId = provable_newRandomDSQuery(\r\n      QUERY_EXECUTION_DELAY,\r\n      NUM_RANDOM_BYTES_REQUESTED,\r\n      GAS_FOR_CALLBACK\r\n  );\r\n\r\n  Bet memory b;\r\n\r\n  b.player = msg.sender;\r\n  b.value = msg.value;\r\n  waiting[queryId] = b;\r\n  players[msg.sender].isWaiting = true;\r\n\r\n  emit LogNewProvableQuery(\"Provable query was sent, standing by for the answer...\");\r\n\r\n}\r\n\r\n\r\nfunction finaliseOutcome(bytes32 _queryId) public payable {\r\n  require(players[waiting[_queryId].player].outcome == 0 || players[waiting[_queryId].player].outcome == 1);\r\n\r\n  uint expected = players[waiting[_queryId].player].latestGuess;\r\n  uint result = players[waiting[_queryId].player].outcome;\r\n\r\n  address sender = waiting[_queryId].player;\r\n  uint cost = waiting[_queryId].value;\r\n\r\n  if(expected == result){\r\n     uint won = cost.mul(2);\r\n\r\n      players[sender].earnings = players[sender].earnings.add(won);\r\n      players[sender].wins = players[sender].wins.add(1);\r\n\r\n      assert(expected == result);\r\n\r\n\r\n  } else if(expected != result) {\r\n\r\n     players[sender].loss = players[sender].loss.add(1);\r\n\r\n     assert(expected != result);\r\n\r\n  }\r\n\r\n  players[sender].isWaiting = false;\r\n\r\n  assert(result == 0 || result == 1);\r\n\r\n}\r\n\r\n\r\nfunction withdraw_earnings() public {\r\n    require(players[msg.sender].earnings > 0, \"You do not have any winning to withdraw\");\r\n    require(balance >= players[msg.sender].earnings, \"Insufficient contract funds for withdrawal. Please wait till the contract has more funds available.\");\r\n\r\n     msg.sender.transfer(players[msg.sender].earnings);\r\n     balance -= players[msg.sender].earnings;\r\n     players[msg.sender].earnings = 0;\r\n\r\n\r\n     assert(balance >= players[msg.sender].earnings);\r\n}\r\n\r\nfunction addLiquidity() public payable minimumCost(spend) onlyOwner returns(uint) {\r\n\r\n    uint old_balance = balance;\r\n\r\n    balance += msg.value;\r\n\r\n    assert(balance > old_balance);\r\n\r\n    return balance;\r\n\r\n}\r\n\r\n\r\n}\r\n",
  "sourcePath": "D:/Ivan On Tech Academy/Ethereum Programming 201/CoinFlip/contracts/CoinFlip.sol",
  "compiler": {
    "name": "solc",
    "version": "0.5.12+commit.7709ece9.Emscripten.clang"
  },
  "schemaVersion": "3.0.16",
  "updatedAt": "2020-11-18T20:53:50.830Z",
  "devdoc": {
    "methods": {
      "__callback(bytes32,string)": {
        "details": "The following `__callback` functions are just placeholders ideally     meant to be defined in child contract when proofs are used.     The function bodies simply silence compiler warnings."
      }
    }
  },
  "userdoc": {
    "methods": {}
  }
}