{
  "contractName": "CoinFlip",
  "abi": [
    {
      "inputs": [],
      "payable": false,
      "stateMutability": "nonpayable",
      "type": "constructor"
    },
    {
      "anonymous": false,
      "inputs": [
        {
          "indexed": false,
          "internalType": "address",
          "name": "player",
          "type": "address"
        },
        {
          "indexed": false,
          "internalType": "uint256",
          "name": "outcome",
          "type": "uint256"
        }
      ],
      "name": "FlipOutcome",
      "type": "event"
    },
    {
      "anonymous": false,
      "inputs": [
        {
          "indexed": false,
          "internalType": "uint256",
          "name": "guess",
          "type": "uint256"
        },
        {
          "indexed": false,
          "internalType": "bytes32",
          "name": "queryId",
          "type": "bytes32"
        },
        {
          "indexed": false,
          "internalType": "bool",
          "name": "isWaiting",
          "type": "bool"
        }
      ],
      "name": "LatestGuess",
      "type": "event"
    },
    {
      "anonymous": false,
      "inputs": [
        {
          "indexed": false,
          "internalType": "string",
          "name": "description",
          "type": "string"
        }
      ],
      "name": "LogNewProvableQuery",
      "type": "event"
    },
    {
      "anonymous": false,
      "inputs": [
        {
          "indexed": false,
          "internalType": "address",
          "name": "player",
          "type": "address"
        },
        {
          "indexed": false,
          "internalType": "uint256",
          "name": "earnings",
          "type": "uint256"
        }
      ],
      "name": "WithdrawEarnings",
      "type": "event"
    },
    {
      "constant": true,
      "inputs": [],
      "name": "balance",
      "outputs": [
        {
          "internalType": "uint256",
          "name": "",
          "type": "uint256"
        }
      ],
      "payable": false,
      "stateMutability": "view",
      "type": "function"
    },
    {
      "constant": false,
      "inputs": [],
      "name": "destroy",
      "outputs": [],
      "payable": false,
      "stateMutability": "nonpayable",
      "type": "function"
    },
    {
      "constant": true,
      "inputs": [],
      "name": "getPlayer",
      "outputs": [
        {
          "internalType": "uint256",
          "name": "",
          "type": "uint256"
        },
        {
          "internalType": "uint256",
          "name": "",
          "type": "uint256"
        },
        {
          "internalType": "uint256",
          "name": "",
          "type": "uint256"
        },
        {
          "internalType": "uint256",
          "name": "",
          "type": "uint256"
        },
        {
          "internalType": "uint256",
          "name": "",
          "type": "uint256"
        },
        {
          "internalType": "bool",
          "name": "",
          "type": "bool"
        }
      ],
      "payable": false,
      "stateMutability": "view",
      "type": "function"
    },
    {
      "constant": false,
      "inputs": [
        {
          "internalType": "bytes32",
          "name": "_myid",
          "type": "bytes32"
        },
        {
          "internalType": "string",
          "name": "_result",
          "type": "string"
        }
      ],
      "name": "__callback",
      "outputs": [],
      "payable": false,
      "stateMutability": "nonpayable",
      "type": "function"
    },
    {
      "constant": false,
      "inputs": [
        {
          "internalType": "bytes32",
          "name": "_queryId",
          "type": "bytes32"
        },
        {
          "internalType": "string",
          "name": "_result",
          "type": "string"
        },
        {
          "internalType": "bytes",
          "name": "_proof",
          "type": "bytes"
        }
      ],
      "name": "__callback",
      "outputs": [],
      "payable": false,
      "stateMutability": "nonpayable",
      "type": "function"
    },
    {
      "constant": false,
      "inputs": [
        {
          "internalType": "uint256",
          "name": "guess",
          "type": "uint256"
        }
      ],
      "name": "flip",
      "outputs": [],
      "payable": true,
      "stateMutability": "payable",
      "type": "function"
    },
    {
      "constant": false,
      "inputs": [
        {
          "internalType": "bytes32",
          "name": "_queryId",
          "type": "bytes32"
        }
      ],
      "name": "finaliseOutcome",
      "outputs": [],
      "payable": true,
      "stateMutability": "payable",
      "type": "function"
    },
    {
      "constant": false,
      "inputs": [],
      "name": "withdraw_earnings",
      "outputs": [],
      "payable": false,
      "stateMutability": "nonpayable",
      "type": "function"
    },
    {
      "constant": false,
      "inputs": [],
      "name": "addLiquidity",
      "outputs": [
        {
          "internalType": "uint256",
          "name": "",
          "type": "uint256"
        }
      ],
      "payable": true,
      "stateMutability": "payable",
      "type": "function"
    },
    {
      "constant": false,
      "inputs": [
        {
          "internalType": "address",
          "name": "player",
          "type": "address"
        }
      ],
      "name": "stopWaiting",
      "outputs": [],
      "payable": false,
      "stateMutability": "nonpayable",
      "type": "function"
    }
  ],
  "bytecode": "0x608060405267016345785d8a00006006553480156200001d57600080fd5b50336000806101000a81548173ffffffffffffffffffffffffffffffffffffffff021916908373ffffffffffffffffffffffffffffffffffffffff16021790555060006007819055506200007b603060f81b6200008160201b60201c565b62000aa5565b600073ffffffffffffffffffffffffffffffffffffffff16600260009054906101000a900473ffffffffffffffffffffffffffffffffffffffff1673ffffffffffffffffffffffffffffffffffffffff16148062000111575060006200010f600260009054906101000a900473ffffffffffffffffffffffffffffffffffffffff16620003e760201b60201c565b145b156200012b57620001296000620003f260201b60201c565b505b600260009054906101000a900473ffffffffffffffffffffffffffffffffffffffff1673ffffffffffffffffffffffffffffffffffffffff166338cc48316040518163ffffffff1660e01b8152600401602060405180830381600087803b1580156200019657600080fd5b505af1158015620001ab573d6000803e3d6000fd5b505050506040513d6020811015620001c257600080fd5b810190808051906020019092919050505073ffffffffffffffffffffffffffffffffffffffff16600160009054906101000a900473ffffffffffffffffffffffffffffffffffffffff1673ffffffffffffffffffffffffffffffffffffffff16146200031157600260009054906101000a900473ffffffffffffffffffffffffffffffffffffffff1673ffffffffffffffffffffffffffffffffffffffff166338cc48316040518163ffffffff1660e01b8152600401602060405180830381600087803b1580156200029357600080fd5b505af1158015620002a8573d6000803e3d6000fd5b505050506040513d6020811015620002bf57600080fd5b8101908080519060200190929190505050600160006101000a81548173ffffffffffffffffffffffffffffffffffffffff021916908373ffffffffffffffffffffffffffffffffffffffff1602179055505b600160009054906101000a900473ffffffffffffffffffffffffffffffffffffffff1673ffffffffffffffffffffffffffffffffffffffff1663688dcfd7826040518263ffffffff1660e01b815260040180827effffffffffffffffffffffffffffffffffffffffffffffffffffffffffffff19167effffffffffffffffffffffffffffffffffffffffffffffffffffffffffffff19168152602001915050600060405180830381600087803b158015620003cb57600080fd5b505af1158015620003e0573d6000803e3d6000fd5b5050505050565b6000813b9050919050565b6000620004046200040b60201b60201c565b9050919050565b60008062000433731d3b2638a7cc9f2cb3d298a3da7a90b67e5506ed620003e760201b60201c565b1115620004df57731d3b2638a7cc9f2cb3d298a3da7a90b67e5506ed600260006101000a81548173ffffffffffffffffffffffffffffffffffffffff021916908373ffffffffffffffffffffffffffffffffffffffff160217905550620004d56040518060400160405280600b81526020017f6574685f6d61696e6e6574000000000000000000000000000000000000000000815250620009da60201b60201c565b60019050620009d7565b60006200050673c03a2615d5efaf5f49f60b7bb6583eaec212fdf1620003e760201b60201c565b1115620005b25773c03a2615d5efaf5f49f60b7bb6583eaec212fdf1600260006101000a81548173ffffffffffffffffffffffffffffffffffffffff021916908373ffffffffffffffffffffffffffffffffffffffff160217905550620005a86040518060400160405280600c81526020017f6574685f726f707374656e330000000000000000000000000000000000000000815250620009da60201b60201c565b60019050620009d7565b6000620005d973b7a07bcf2ba2f2703b24c0691b5278999c59ac7e620003e760201b60201c565b1115620006855773b7a07bcf2ba2f2703b24c0691b5278999c59ac7e600260006101000a81548173ffffffffffffffffffffffffffffffffffffffff021916908373ffffffffffffffffffffffffffffffffffffffff1602179055506200067b6040518060400160405280600981526020017f6574685f6b6f76616e0000000000000000000000000000000000000000000000815250620009da60201b60201c565b60019050620009d7565b6000620006ac73146500cfd35b22e4a392fe0adc06de1a1368ed48620003e760201b60201c565b1115620007585773146500cfd35b22e4a392fe0adc06de1a1368ed48600260006101000a81548173ffffffffffffffffffffffffffffffffffffffff021916908373ffffffffffffffffffffffffffffffffffffffff1602179055506200074e6040518060400160405280600b81526020017f6574685f72696e6b656279000000000000000000000000000000000000000000815250620009da60201b60201c565b60019050620009d7565b60006200077f73a2998efd205fb9d4b4963afb70778d6354ad3a41620003e760201b60201c565b11156200082b5773a2998efd205fb9d4b4963afb70778d6354ad3a41600260006101000a81548173ffffffffffffffffffffffffffffffffffffffff021916908373ffffffffffffffffffffffffffffffffffffffff160217905550620008216040518060400160405280600a81526020017f6574685f676f65726c6900000000000000000000000000000000000000000000815250620009da60201b60201c565b60019050620009d7565b600062000852736f485c8bf6fc43ea212e93bbf8ce046c7f1cb475620003e760201b60201c565b1115620008b857736f485c8bf6fc43ea212e93bbf8ce046c7f1cb475600260006101000a81548173ffffffffffffffffffffffffffffffffffffffff021916908373ffffffffffffffffffffffffffffffffffffffff16021790555060019050620009d7565b6000620008df7320e12a1f859b3feae5fb2a0a32c18f5a65555bbf620003e760201b60201c565b111562000945577320e12a1f859b3feae5fb2a0a32c18f5a65555bbf600260006101000a81548173ffffffffffffffffffffffffffffffffffffffff021916908373ffffffffffffffffffffffffffffffffffffffff16021790555060019050620009d7565b60006200096c7351efaf4c8b3c9afbd5ab9f4bbc82784ab6ef8faa620003e760201b60201c565b1115620009d2577351efaf4c8b3c9afbd5ab9f4bbc82784ab6ef8faa600260006101000a81548173ffffffffffffffffffffffffffffffffffffffff021916908373ffffffffffffffffffffffffffffffffffffffff16021790555060019050620009d7565b600090505b90565b8060039080519060200190620009f2929190620009f6565b5050565b828054600181600116156101000203166002900490600052602060002090601f016020900481019282601f1062000a3957805160ff191683800117855562000a6a565b8280016001018555821562000a6a579182015b8281111562000a6957825182559160200191906001019062000a4c565b5b50905062000a79919062000a7d565b5090565b62000aa291905b8082111562000a9e57600081600090555060010162000a84565b5090565b90565b6149d58062000ab56000396000f3fe6080604052600436106100915760003560e01c806363ea260b1161005957806363ea260b146103a257806383197ef0146103d05780639e7caf3b146103e7578063b69ef8a8146103fe578063e8078d941461042957610091565b8063221e885d1461009657806327dc297e146100c45780633308f42d1461019657806338bbfa50146101e857806358933b7a14610351575b600080fd5b6100c2600480360360208110156100ac57600080fd5b8101908080359060200190929190505050610447565b005b3480156100d057600080fd5b50610194600480360360408110156100e757600080fd5b81019080803590602001909291908035906020019064010000000081111561010e57600080fd5b82018360208201111561012057600080fd5b8035906020019184600183028401116401000000008311171561014257600080fd5b91908080601f016020809104026020016040519081016040528093929190818152602001838380828437600081840152601f19601f82011690508083019250505050505050919291929050505061083b565b005b3480156101a257600080fd5b506101ab61087e565b6040518087815260200186815260200185815260200184815260200183815260200182151515158152602001965050505050505060405180910390f35b3480156101f457600080fd5b5061034f6004803603606081101561020b57600080fd5b81019080803590602001909291908035906020019064010000000081111561023257600080fd5b82018360208201111561024457600080fd5b8035906020019184600183028401116401000000008311171561026657600080fd5b91908080601f016020809104026020016040519081016040528093929190818152602001838380828437600081840152601f19601f820116905080830192505050505050509192919290803590602001906401000000008111156102c957600080fd5b8201836020820111156102db57600080fd5b803590602001918460018302840111640100000000831117156102fd57600080fd5b91908080601f016020809104026020016040519081016040528093929190818152602001838380828437600081840152601f19601f820116905080830192505050505050509192919290505050610a3a565b005b34801561035d57600080fd5b506103a06004803603602081101561037457600080fd5b81019080803573ffffffffffffffffffffffffffffffffffffffff169060200190929190505050610d8c565b005b6103ce600480360360208110156103b857600080fd5b8101908080359060200190929190505050610e43565b005b3480156103dc57600080fd5b506103e5611327565b005b3480156103f357600080fd5b506103fc6113ba565b005b34801561040a57600080fd5b50610413611694565b6040518082815260200191505060405180910390f35b61043161169a565b6040518082815260200191505060405180910390f35b6006546006543410156104a5576040517f08c379a000000000000000000000000000000000000000000000000000000000815260040180806020018281038252602c81526020018061480a602c913960400191505060405180910390fd5b60008214806104b45750600182145b610509576040517f08c379a000000000000000000000000000000000000000000000000000000000815260040180806020018281038252602c8152602001806147ac602c913960400191505060405180910390fd5b600060075411610564576040517f08c379a000000000000000000000000000000000000000000000000000000000815260040180806020018281038252604a815260200180614836604a913960600191505060405180910390fd5b60001515600860003373ffffffffffffffffffffffffffffffffffffffff1673ffffffffffffffffffffffffffffffffffffffff16815260200190815260200160002060050160009054906101000a900460ff16151514610610576040517f08c379a00000000000000000000000000000000000000000000000000000000081526004018080602001828103825260328152602001806147d86032913960400191505060405180910390fd5b81600860003373ffffffffffffffffffffffffffffffffffffffff1673ffffffffffffffffffffffffffffffffffffffff1681526020019081526020016000206003018190555061066c3460075461177f90919063ffffffff16565b60078190555060008090506000620493e09050600061068d83600184611807565b9050610697614695565b33816000019073ffffffffffffffffffffffffffffffffffffffff16908173ffffffffffffffffffffffffffffffffffffffff168152505034816020018181525050806009600084815260200190815260200160002060008201518160000160006101000a81548173ffffffffffffffffffffffffffffffffffffffff021916908373ffffffffffffffffffffffffffffffffffffffff160217905550602082015181600101559050506001600860003373ffffffffffffffffffffffffffffffffffffffff1673ffffffffffffffffffffffffffffffffffffffff16815260200190815260200160002060050160006101000a81548160ff0219169083151502179055507fc4dc360d0a9c0677a3379ae0a3d81e887f761e65fdf3d7e00859d1bcd3c473896040518080602001828103825260368152602001806149086036913960400191505060405180910390a17fa88895be7d7183726391b99d6e564a75aa41fda80d95c999606995a19709d405868360016040518084815260200183815260200182151515158152602001935050505060405180910390a1505050505050565b61087a828260006040519080825280601f01601f1916602001820160405280156108745781602001600182028038833980820191505090505b50610a3a565b5050565b600080600080600080600860003373ffffffffffffffffffffffffffffffffffffffff1673ffffffffffffffffffffffffffffffffffffffff16815260200190815260200160002060000154600860003373ffffffffffffffffffffffffffffffffffffffff1673ffffffffffffffffffffffffffffffffffffffff16815260200190815260200160002060010154600860003373ffffffffffffffffffffffffffffffffffffffff1673ffffffffffffffffffffffffffffffffffffffff16815260200190815260200160002060020154600860003373ffffffffffffffffffffffffffffffffffffffff1673ffffffffffffffffffffffffffffffffffffffff16815260200190815260200160002060030154600860003373ffffffffffffffffffffffffffffffffffffffff1673ffffffffffffffffffffffffffffffffffffffff16815260200190815260200160002060040154600860003373ffffffffffffffffffffffffffffffffffffffff1673ffffffffffffffffffffffffffffffffffffffff16815260200190815260200160002060050160009054906101000a900460ff16955095509550955095509550909192939495565b610a42611da2565b73ffffffffffffffffffffffffffffffffffffffff163373ffffffffffffffffffffffffffffffffffffffff1614610a7957600080fd5b6000610a868484846120c2565b60ff1614610b24576000600860006009600087815260200190815260200160002060000160009054906101000a900473ffffffffffffffffffffffffffffffffffffffff1673ffffffffffffffffffffffffffffffffffffffff1673ffffffffffffffffffffffffffffffffffffffff16815260200190815260200160002060050160006101000a81548160ff021916908315150217905550610d87565b6002826040516020018082805190602001908083835b60208310610b5d5780518252602082019150602081019050602083039250610b3a565b6001836020036101000a0380198251168184511680821785525050505050509050019150506040516020818303038152906040528051906020012060001c81610ba257fe5b06600860006009600087815260200190815260200160002060000160009054906101000a900473ffffffffffffffffffffffffffffffffffffffff1673ffffffffffffffffffffffffffffffffffffffff1673ffffffffffffffffffffffffffffffffffffffff16815260200190815260200160002060040181905550610c2883610e43565b7fa606bf1bb39812847b530ee26f5131e9e559b5fe46d6d994bcdb49519383dc676009600085815260200190815260200160002060000160009054906101000a900473ffffffffffffffffffffffffffffffffffffffff16600860006009600088815260200190815260200160002060000160009054906101000a900473ffffffffffffffffffffffffffffffffffffffff1673ffffffffffffffffffffffffffffffffffffffff1673ffffffffffffffffffffffffffffffffffffffff16815260200190815260200160002060040154604051808373ffffffffffffffffffffffffffffffffffffffff1673ffffffffffffffffffffffffffffffffffffffff1681526020018281526020019250505060405180910390a160096000848152602001908152602001600020600080820160006101000a81549073ffffffffffffffffffffffffffffffffffffffff0219169055600182016000905550505b505050565b6000809054906101000a900473ffffffffffffffffffffffffffffffffffffffff1673ffffffffffffffffffffffffffffffffffffffff163373ffffffffffffffffffffffffffffffffffffffff1614610de557600080fd5b6000600860008373ffffffffffffffffffffffffffffffffffffffff1673ffffffffffffffffffffffffffffffffffffffff16815260200190815260200160002060050160006101000a81548160ff02191690831515021790555050565b6000600860006009600085815260200190815260200160002060000160009054906101000a900473ffffffffffffffffffffffffffffffffffffffff1673ffffffffffffffffffffffffffffffffffffffff1673ffffffffffffffffffffffffffffffffffffffff168152602001908152602001600020600401541480610f4257506001600860006009600085815260200190815260200160002060000160009054906101000a900473ffffffffffffffffffffffffffffffffffffffff1673ffffffffffffffffffffffffffffffffffffffff1673ffffffffffffffffffffffffffffffffffffffff16815260200190815260200160002060040154145b610f4b57600080fd5b6000600860006009600085815260200190815260200160002060000160009054906101000a900473ffffffffffffffffffffffffffffffffffffffff1673ffffffffffffffffffffffffffffffffffffffff1673ffffffffffffffffffffffffffffffffffffffff1681526020019081526020016000206003015490506000600860006009600086815260200190815260200160002060000160009054906101000a900473ffffffffffffffffffffffffffffffffffffffff1673ffffffffffffffffffffffffffffffffffffffff1673ffffffffffffffffffffffffffffffffffffffff16815260200190815260200160002060040154905060006009600085815260200190815260200160002060000160009054906101000a900473ffffffffffffffffffffffffffffffffffffffff169050600060096000868152602001908152602001600020600101549050828414156112015760006110b96002836121f290919063ffffffff16565b905061111081600860008673ffffffffffffffffffffffffffffffffffffffff1673ffffffffffffffffffffffffffffffffffffffff1681526020019081526020016000206000015461177f90919063ffffffff16565b600860008573ffffffffffffffffffffffffffffffffffffffff1673ffffffffffffffffffffffffffffffffffffffff168152602001908152602001600020600001819055506111ac6001600860008673ffffffffffffffffffffffffffffffffffffffff1673ffffffffffffffffffffffffffffffffffffffff1681526020019081526020016000206001015461177f90919063ffffffff16565b600860008573ffffffffffffffffffffffffffffffffffffffff1673ffffffffffffffffffffffffffffffffffffffff168152602001908152602001600020600101819055508385146111fb57fe5b506112b0565b8284146112af5761125e6001600860008573ffffffffffffffffffffffffffffffffffffffff1673ffffffffffffffffffffffffffffffffffffffff1681526020019081526020016000206002015461177f90919063ffffffff16565b600860008473ffffffffffffffffffffffffffffffffffffffff1673ffffffffffffffffffffffffffffffffffffffff16815260200190815260200160002060020181905550828414156112ae57fe5b5b5b6000600860008473ffffffffffffffffffffffffffffffffffffffff1673ffffffffffffffffffffffffffffffffffffffff16815260200190815260200160002060050160006101000a81548160ff021916908315150217905550600083148061131a5750600183145b61132057fe5b5050505050565b6000809054906101000a900473ffffffffffffffffffffffffffffffffffffffff1673ffffffffffffffffffffffffffffffffffffffff163373ffffffffffffffffffffffffffffffffffffffff161461138057600080fd5b6000809054906101000a900473ffffffffffffffffffffffffffffffffffffffff1673ffffffffffffffffffffffffffffffffffffffff16ff5b6000600860003373ffffffffffffffffffffffffffffffffffffffff1673ffffffffffffffffffffffffffffffffffffffff1681526020019081526020016000206000015411611455576040517f08c379a00000000000000000000000000000000000000000000000000000000081526004018080602001828103825260278152602001806148806027913960400191505060405180910390fd5b600860003373ffffffffffffffffffffffffffffffffffffffff1673ffffffffffffffffffffffffffffffffffffffff1681526020019081526020016000206000015460075410156114f2576040517f08c379a000000000000000000000000000000000000000000000000000000000815260040180806020018281038252606381526020018061493e6063913960800191505060405180910390fd5b6000600860003373ffffffffffffffffffffffffffffffffffffffff1673ffffffffffffffffffffffffffffffffffffffff1681526020019081526020016000206000015490503373ffffffffffffffffffffffffffffffffffffffff166108fc829081150290604051600060405180830381858888f1935050505015801561157f573d6000803e3d6000fd5b50806007600082825403925050819055506000600860003373ffffffffffffffffffffffffffffffffffffffff1673ffffffffffffffffffffffffffffffffffffffff16815260200190815260200160002060000181905550600860003373ffffffffffffffffffffffffffffffffffffffff1673ffffffffffffffffffffffffffffffffffffffff16815260200190815260200160002060000154600754101561162657fe5b7f64757b9a00f193ad19794cab4d1545a2f93edb93a4b18ec8e5e46583924d08763382604051808373ffffffffffffffffffffffffffffffffffffffff1673ffffffffffffffffffffffffffffffffffffffff1681526020018281526020019250505060405180910390a150565b60075481565b60006006546006543410156116fa576040517f08c379a000000000000000000000000000000000000000000000000000000000815260040180806020018281038252602c81526020018061480a602c913960400191505060405180910390fd5b6000809054906101000a900473ffffffffffffffffffffffffffffffffffffffff1673ffffffffffffffffffffffffffffffffffffffff163373ffffffffffffffffffffffffffffffffffffffff161461175357600080fd5b6000600754905034600760008282540192505081905550806007541161177557fe5b6007549250505090565b6000808284019050838110156117fd576040517f08c379a000000000000000000000000000000000000000000000000000000000815260040180806020018281038252601b8152602001807f536166654d6174683a206164646974696f6e206f766572666c6f77000000000081525060200191505060405180910390fd5b8091505092915050565b60008083118015611819575060208311155b61182257600080fd5b600a84029350606060016040519080825280601f01601f19166020018201604052801561185e5781602001600182028038833980820191505090505b5090508360f81b8160008151811061187257fe5b60200101907effffffffffffffffffffffffffffffffffffffffffffffffffffffffffffff1916908160001a905350606060206040519080825280601f01601f1916602001820160405280156118d75781602001600182028038833980820191505090505b509050606060206040519080825280601f01601f1916602001820160405280156119105781602001600182028038833980820191505090505b509050600061191d612278565b905060208352424118600143034018602084015260208252806020830152606060206040519080825280601f01601f1916602001820160405280156119715781602001600182028038833980820191505090505b509050886020820152606060086040519080825280601f01601f1916602001820160405280156119b05781602001600182028038833980820191505090505b5090506119c38260186008846000612598565b506119cc6146c5565b60405180608001604052808781526020018881526020018681526020018481525090506000611a316040518060400160405280600681526020017f72616e646f6d0000000000000000000000000000000000000000000000000000815250838c6125f7565b9050606060086040519080825280601f01601f191660200182016040528015611a695781602001600182028038833980820191505090505b50905060208401517f0100000000000000000000000000000000000000000000000000000000000000810460278301537e01000000000000000000000000000000000000000000000000000000000000810460268301537d010000000000000000000000000000000000000000000000000000000000810460258301537c0100000000000000000000000000000000000000000000000000000000810460248301537b01000000000000000000000000000000000000000000000000000000810460238301537a010000000000000000000000000000000000000000000000000000810460228301537901000000000000000000000000000000000000000000000000008104602183015378010000000000000000000000000000000000000000000000008104602083015350611d8f828285600160048110611ba857fe5b6020020151600287600060048110611bbc57fe5b60200201516040518082805190602001908083835b60208310611bf45780518252602082019150602081019050602083039250611bd1565b6001836020036101000a038019825116818451168082178552505050505050905001915050602060405180830381855afa158015611c36573d6000803e3d6000fd5b5050506040513d6020811015611c4b57600080fd5b810190808051906020019092919050505087600260048110611c6957fe5b60200201516040516020018085805190602001908083835b60208310611ca45780518252602082019150602081019050602083039250611c81565b6001836020036101000a03801982511681845116808217855250505050505090500184805190602001908083835b60208310611cf55780518252602082019150602081019050602083039250611cd2565b6001836020036101000a03801982511681845116808217855250505050505090500183815260200182805190602001908083835b60208310611d4c5780518252602082019150602081019050602083039250611d29565b6001836020036101000a03801982511681845116808217855250505050505090500194505050505060405160208183030381529060405280519060200120612966565b8199505050505050505050509392505050565b60008073ffffffffffffffffffffffffffffffffffffffff16600260009054906101000a900473ffffffffffffffffffffffffffffffffffffffff1673ffffffffffffffffffffffffffffffffffffffff161480611e2a57506000611e28600260009054906101000a900473ffffffffffffffffffffffffffffffffffffffff16612982565b145b15611e3b57611e39600061298d565b505b600260009054906101000a900473ffffffffffffffffffffffffffffffffffffffff1673ffffffffffffffffffffffffffffffffffffffff166338cc48316040518163ffffffff1660e01b8152600401602060405180830381600087803b158015611ea557600080fd5b505af1158015611eb9573d6000803e3d6000fd5b505050506040513d6020811015611ecf57600080fd5b810190808051906020019092919050505073ffffffffffffffffffffffffffffffffffffffff16600160009054906101000a900473ffffffffffffffffffffffffffffffffffffffff1673ffffffffffffffffffffffffffffffffffffffff161461201a57600260009054906101000a900473ffffffffffffffffffffffffffffffffffffffff1673ffffffffffffffffffffffffffffffffffffffff166338cc48316040518163ffffffff1660e01b8152600401602060405180830381600087803b158015611f9e57600080fd5b505af1158015611fb2573d6000803e3d6000fd5b505050506040513d6020811015611fc857600080fd5b8101908080519060200190929190505050600160006101000a81548173ffffffffffffffffffffffffffffffffffffffff021916908373ffffffffffffffffffffffffffffffffffffffff1602179055505b600160009054906101000a900473ffffffffffffffffffffffffffffffffffffffff1673ffffffffffffffffffffffffffffffffffffffff1663c281d19e6040518163ffffffff1660e01b815260040160206040518083038186803b15801561208257600080fd5b505afa158015612096573d6000803e3d6000fd5b505050506040513d60208110156120ac57600080fd5b8101908080519060200190929190505050905090565b60007f4c00000000000000000000000000000000000000000000000000000000000000826000815181106120f257fe5b602001015160f81c60f81b7effffffffffffffffffffffffffffffffffffffffffffffffffffffffffffff191614158061218557507f50000000000000000000000000000000000000000000000000000000000000008260018151811061215557fe5b602001015160f81c60f81b7effffffffffffffffffffffffffffffffffffffffffffffffffffffffffffff191614155b806121b15750600160ff168260028151811061219d57fe5b602001015160f81c60f81b60f81c60ff1614155b156121bf57600190506121eb565b60006121d48386866121cf61299e565b612a40565b9050806121e55760029150506121eb565b60009150505b9392505050565b6000808314156122055760009050612272565b600082840290508284828161221657fe5b041461226d576040517f08c379a00000000000000000000000000000000000000000000000000000000081526004018080602001828103825260218152602001806148a76021913960400191505060405180910390fd5b809150505b92915050565b60008073ffffffffffffffffffffffffffffffffffffffff16600260009054906101000a900473ffffffffffffffffffffffffffffffffffffffff1673ffffffffffffffffffffffffffffffffffffffff161480612300575060006122fe600260009054906101000a900473ffffffffffffffffffffffffffffffffffffffff16612982565b145b156123115761230f600061298d565b505b600260009054906101000a900473ffffffffffffffffffffffffffffffffffffffff1673ffffffffffffffffffffffffffffffffffffffff166338cc48316040518163ffffffff1660e01b8152600401602060405180830381600087803b15801561237b57600080fd5b505af115801561238f573d6000803e3d6000fd5b505050506040513d60208110156123a557600080fd5b810190808051906020019092919050505073ffffffffffffffffffffffffffffffffffffffff16600160009054906101000a900473ffffffffffffffffffffffffffffffffffffffff1673ffffffffffffffffffffffffffffffffffffffff16146124f057600260009054906101000a900473ffffffffffffffffffffffffffffffffffffffff1673ffffffffffffffffffffffffffffffffffffffff166338cc48316040518163ffffffff1660e01b8152600401602060405180830381600087803b15801561247457600080fd5b505af1158015612488573d6000803e3d6000fd5b505050506040513d602081101561249e57600080fd5b8101908080519060200190929190505050600160006101000a81548173ffffffffffffffffffffffffffffffffffffffff021916908373ffffffffffffffffffffffffffffffffffffffff1602179055505b600160009054906101000a900473ffffffffffffffffffffffffffffffffffffffff1673ffffffffffffffffffffffffffffffffffffffff1663abaa5f3e6040518163ffffffff1660e01b815260040160206040518083038186803b15801561255857600080fd5b505afa15801561256c573d6000803e3d6000fd5b505050506040513d602081101561258257600080fd5b8101908080519060200190929190505050905090565b60606000828501905080845110156125af57600080fd5b600086602001905060008460200190505b8688602001018210156125e857818901518082880152506020820191506020810190506125c0565b85935050505095945050505050565b60008073ffffffffffffffffffffffffffffffffffffffff16600260009054906101000a900473ffffffffffffffffffffffffffffffffffffffff1673ffffffffffffffffffffffffffffffffffffffff16148061267f5750600061267d600260009054906101000a900473ffffffffffffffffffffffffffffffffffffffff16612982565b145b156126905761268e600061298d565b505b600260009054906101000a900473ffffffffffffffffffffffffffffffffffffffff1673ffffffffffffffffffffffffffffffffffffffff166338cc48316040518163ffffffff1660e01b8152600401602060405180830381600087803b1580156126fa57600080fd5b505af115801561270e573d6000803e3d6000fd5b505050506040513d602081101561272457600080fd5b810190808051906020019092919050505073ffffffffffffffffffffffffffffffffffffffff16600160009054906101000a900473ffffffffffffffffffffffffffffffffffffffff1673ffffffffffffffffffffffffffffffffffffffff161461286f57600260009054906101000a900473ffffffffffffffffffffffffffffffffffffffff1673ffffffffffffffffffffffffffffffffffffffff166338cc48316040518163ffffffff1660e01b8152600401602060405180830381600087803b1580156127f357600080fd5b505af1158015612807573d6000803e3d6000fd5b505050506040513d602081101561281d57600080fd5b8101908080519060200190929190505050600160006101000a81548173ffffffffffffffffffffffffffffffffffffffff021916908373ffffffffffffffffffffffffffffffffffffffff1602179055505b606060046040519080825280602002602001820160405280156128a657816020015b60608152602001906001900390816128915790505b509050836000600481106128b657fe5b6020020151816000815181106128c857fe5b6020026020010181905250836001600481106128e057fe5b6020020151816001815181106128f257fe5b60200260200101819052508360026004811061290a57fe5b60200201518160028151811061291c57fe5b60200260200101819052508360036004811061293457fe5b60200201518160038151811061294657fe5b602002602001018190525061295c8582856130eb565b9150509392505050565b8060046000848152602001908152602001600020819055505050565b6000813b9050919050565b6000612997613651565b9050919050565b606060038054600181600116156101000203166002900480601f016020809104026020016040519081016040528092919081815260200182805460018160011615610100020316600290048015612a365780601f10612a0b57610100808354040283529160200191612a36565b820191906000526020600020905b815481529060010190602001808311612a1957829003601f168201915b5050505050905090565b6000806020600287604581518110612a5457fe5b602001015160f81c60f81b60f81c60ff1601604401019050606060206040519080825280601f01601f191660200182016040528015612aa25781602001600182028038833980820191505090505b509050612ab487836020846000612598565b50600284876040516020018083805190602001908083835b60208310612aef5780518252602082019150602081019050602083039250612acc565b6001836020036101000a038019825116818451168082178552505050505050905001828152602001925050506040516020818303038152906040526040518082805190602001908083835b60208310612b5d5780518252602082019150602081019050602083039250612b3a565b6001836020036101000a038019825116818451168082178552505050505050905001915050602060405180830381855afa158015612b9f573d6000803e3d6000fd5b5050506040513d6020811015612bb457600080fd5b81019080805190602001909291905050506040516020018082815260200191505060405160208183030381529060405280519060200120818051906020012014612c03576000925050506130e3565b60606002886001604986010181518110612c1957fe5b602001015160f81c60f81b60f81c60ff16016040519080825280601f01601f191660200182016040528015612c5d5781602001600182028038833980820191505090505b509050612c7288604985018351846000612598565b50612d3d6002826040518082805190602001908083835b60208310612cac5780518252602082019150602081019050602083039250612c89565b6001836020036101000a038019825116818451168082178552505050505050905001915050602060405180830381855afa158015612cee573d6000803e3d6000fd5b5050506040513d6020811015612d0357600080fd5b8101908080519060200190929190505050878a6008602088010181518110612d2757fe5b602001015160f81c60f81b60f81c60ff16613ba8565b612d4d57600093505050506130e3565b606060296040519080825280601f01601f191660200182016040528015612d835781602001600182028038833980820191505090505b509050612d9889602086016029846000612598565b506060604080519080825280601f01601f191660200182016040528015612dce5781602001600182028038833980820191505090505b5090506000604184516029602089010101019050612df48b604083036040856000612598565b5060006002836040518082805190602001908083835b60208310612e2d5780518252602082019150602081019050602083039250612e0a565b6001836020036101000a038019825116818451168082178552505050505050905001915050602060405180830381855afa158015612e6f573d6000803e3d6000fd5b5050506040513d6020811015612e8457600080fd5b8101908080519060200190929190505050905083816040516020018083805190602001908083835b60208310612ecf5780518252602082019150602081019050602083039250612eac565b6001836020036101000a0380198251168184511680821785525050505050509050018281526020019250505060405160208183030381529060405280519060200120600460008d8152602001908152602001600020541415612f4757600460008c815260200190815260200160002060009055612f57565b60009750505050505050506130e3565b606060496040519080825280601f01601f191660200182016040528015612f8d5781602001600182028038833980820191505090505b509050612f9f8d896049846000612598565b506130486002826040518082805190602001908083835b60208310612fd95780518252602082019150602081019050602083039250612fb6565b6001836020036101000a038019825116818451168082178552505050505050905001915050602060405180830381855afa15801561301b573d6000803e3d6000fd5b5050506040513d602081101561303057600080fd5b81019080805190602001909291905050508786613c58565b61305d576000985050505050505050506130e3565b6005600083815260200190815260200160002060009054906101000a900460ff166130b75761308c8d84613e16565b6005600084815260200190815260200160002060006101000a81548160ff0219169083151502179055505b6005600083815260200190815260200160002060009054906101000a900460ff16985050505050505050505b949350505050565b60008073ffffffffffffffffffffffffffffffffffffffff16600260009054906101000a900473ffffffffffffffffffffffffffffffffffffffff1673ffffffffffffffffffffffffffffffffffffffff16148061317357506000613171600260009054906101000a900473ffffffffffffffffffffffffffffffffffffffff16612982565b145b1561318457613182600061298d565b505b600260009054906101000a900473ffffffffffffffffffffffffffffffffffffffff1673ffffffffffffffffffffffffffffffffffffffff166338cc48316040518163ffffffff1660e01b8152600401602060405180830381600087803b1580156131ee57600080fd5b505af1158015613202573d6000803e3d6000fd5b505050506040513d602081101561321857600080fd5b810190808051906020019092919050505073ffffffffffffffffffffffffffffffffffffffff16600160009054906101000a900473ffffffffffffffffffffffffffffffffffffffff1673ffffffffffffffffffffffffffffffffffffffff161461336357600260009054906101000a900473ffffffffffffffffffffffffffffffffffffffff1673ffffffffffffffffffffffffffffffffffffffff166338cc48316040518163ffffffff1660e01b8152600401602060405180830381600087803b1580156132e757600080fd5b505af11580156132fb573d6000803e3d6000fd5b505050506040513d602081101561331157600080fd5b8101908080519060200190929190505050600160006101000a81548173ffffffffffffffffffffffffffffffffffffffff021916908373ffffffffffffffffffffffffffffffffffffffff1602179055505b6000600160009054906101000a900473ffffffffffffffffffffffffffffffffffffffff1673ffffffffffffffffffffffffffffffffffffffff16632ef3accc86856040518363ffffffff1660e01b81526004018080602001838152602001828103825284818151815260200191508051906020019080838360005b838110156133fa5780820151818401526020810190506133df565b50505050905090810190601f1680156134275780820380516001836020036101000a031916815260200191505b509350505050602060405180830381600087803b15801561344757600080fd5b505af115801561345b573d6000803e3d6000fd5b505050506040513d602081101561347157600080fd5b81019080805190602001909291905050509050823a02670de0b6b3a7640000018111156134a4576000801b91505061364a565b60606134af8561422e565b9050600160009054906101000a900473ffffffffffffffffffffffffffffffffffffffff1673ffffffffffffffffffffffffffffffffffffffff1663c55c1cb68360008985896040518663ffffffff1660e01b8152600401808581526020018060200180602001848152602001838103835286818151815260200191508051906020019080838360005b83811015613554578082015181840152602081019050613539565b50505050905090810190601f1680156135815780820380516001836020036101000a031916815260200191505b50838103825285818151815260200191508051906020019080838360005b838110156135ba57808201518184015260208101905061359f565b50505050905090810190601f1680156135e75780820380516001836020036101000a031916815260200191505b5096505050505050506020604051808303818588803b15801561360957600080fd5b505af115801561361d573d6000803e3d6000fd5b50505050506040513d602081101561363457600080fd5b8101908080519060200190929190505050925050505b9392505050565b600080613671731d3b2638a7cc9f2cb3d298a3da7a90b67e5506ed612982565b111561371357731d3b2638a7cc9f2cb3d298a3da7a90b67e5506ed600260006101000a81548173ffffffffffffffffffffffffffffffffffffffff021916908373ffffffffffffffffffffffffffffffffffffffff16021790555061370a6040518060400160405280600b81526020017f6574685f6d61696e6e65740000000000000000000000000000000000000000008152506142ae565b60019050613ba5565b600061373273c03a2615d5efaf5f49f60b7bb6583eaec212fdf1612982565b11156137d45773c03a2615d5efaf5f49f60b7bb6583eaec212fdf1600260006101000a81548173ffffffffffffffffffffffffffffffffffffffff021916908373ffffffffffffffffffffffffffffffffffffffff1602179055506137cb6040518060400160405280600c81526020017f6574685f726f707374656e3300000000000000000000000000000000000000008152506142ae565b60019050613ba5565b60006137f373b7a07bcf2ba2f2703b24c0691b5278999c59ac7e612982565b11156138955773b7a07bcf2ba2f2703b24c0691b5278999c59ac7e600260006101000a81548173ffffffffffffffffffffffffffffffffffffffff021916908373ffffffffffffffffffffffffffffffffffffffff16021790555061388c6040518060400160405280600981526020017f6574685f6b6f76616e00000000000000000000000000000000000000000000008152506142ae565b60019050613ba5565b60006138b473146500cfd35b22e4a392fe0adc06de1a1368ed48612982565b11156139565773146500cfd35b22e4a392fe0adc06de1a1368ed48600260006101000a81548173ffffffffffffffffffffffffffffffffffffffff021916908373ffffffffffffffffffffffffffffffffffffffff16021790555061394d6040518060400160405280600b81526020017f6574685f72696e6b6562790000000000000000000000000000000000000000008152506142ae565b60019050613ba5565b600061397573a2998efd205fb9d4b4963afb70778d6354ad3a41612982565b1115613a175773a2998efd205fb9d4b4963afb70778d6354ad3a41600260006101000a81548173ffffffffffffffffffffffffffffffffffffffff021916908373ffffffffffffffffffffffffffffffffffffffff160217905550613a0e6040518060400160405280600a81526020017f6574685f676f65726c69000000000000000000000000000000000000000000008152506142ae565b60019050613ba5565b6000613a36736f485c8bf6fc43ea212e93bbf8ce046c7f1cb475612982565b1115613a9a57736f485c8bf6fc43ea212e93bbf8ce046c7f1cb475600260006101000a81548173ffffffffffffffffffffffffffffffffffffffff021916908373ffffffffffffffffffffffffffffffffffffffff16021790555060019050613ba5565b6000613ab97320e12a1f859b3feae5fb2a0a32c18f5a65555bbf612982565b1115613b1d577320e12a1f859b3feae5fb2a0a32c18f5a65555bbf600260006101000a81548173ffffffffffffffffffffffffffffffffffffffff021916908373ffffffffffffffffffffffffffffffffffffffff16021790555060019050613ba5565b6000613b3c7351efaf4c8b3c9afbd5ab9f4bbc82784ab6ef8faa612982565b1115613ba0577351efaf4c8b3c9afbd5ab9f4bbc82784ab6ef8faa600260006101000a81548173ffffffffffffffffffffffffffffffffffffffff021916908373ffffffffffffffffffffffffffffffffffffffff16021790555060019050613ba5565b600090505b90565b6000806001905082845114613bbc57600080fd5b60008090505b83811015613c4c57848181518110613bd657fe5b602001015160f81c60f81b7effffffffffffffffffffffffffffffffffffffffffffffffffffffffffffff1916868260208110613c0f57fe5b1a60f81b7effffffffffffffffffffffffffffffffffffffffffffffffffffffffffffff191614613c3f57600091505b8080600101915050613bc2565b50809150509392505050565b6000806000806000606060206040519080825280601f01601f191660200182016040528015613c965781602001600182028038833980820191505090505b5090506000602089600381518110613caa57fe5b602001015160f81c60f81b60f81c60ff16036004019050613cd089826020856000612598565b9150606060206040519080825280601f01601f191660200182016040528015613d085781602001600182028038833980820191505090505b509050602282019150613d448a60208c6001860381518110613d2657fe5b602001015160f81c60f81b60f81c60ff160384016020846000612598565b90506020830151945060208101519350613d618b601b87876142c8565b80975081985050508573ffffffffffffffffffffffffffffffffffffffff16898051906020012060001c73ffffffffffffffffffffffffffffffffffffffff161415613db7576001975050505050505050613e0f565b613dc48b601c87876142c8565b80975081985050508573ffffffffffffffffffffffffffffffffffffffff16898051906020012060001c73ffffffffffffffffffffffffffffffffffffffff16149750505050505050505b9392505050565b60008060606002856001860181518110613e2c57fe5b602001015160f81c60f81b60f81c60ff16016040519080825280601f01601f191660200182016040528015613e705781602001600182028038833980820191505090505b509050613e8285858351846000612598565b506060604080519080825280601f01601f191660200182016040528015613eb85781602001600182028038833980820191505090505b509050613ecb8660046040846000612598565b50606060626040519080825280601f01601f191660200182016040528015613f025781602001600182028038833980820191505090505b509050600160f81b81600081518110613f1757fe5b60200101907effffffffffffffffffffffffffffffffffffffffffffffffffffffffffffff1916908160001a905350613f5887604188036041846001612598565b5060606040518060400160405280602081526020017ffd94fa71bc0ba10d39d464d0d8f465efeef0a2764e3887fcc9df41ded20f505c8152509050613fa38160006020856042612598565b5061404c6002836040518082805190602001908083835b60208310613fdd5780518252602082019150602081019050602083039250613fba565b6001836020036101000a038019825116818451168082178552505050505050905001915050602060405180830381855afa15801561401f573d6000803e3d6000fd5b5050506040513d602081101561403457600080fd5b81019080805190602001909291905050508585613c58565b94508461406157600095505050505050614228565b60606040518060600160405280604081526020016148c8604091399050606060426040519080825280601f01601f1916602001820160405280156140b45781602001600182028038833980820191505090505b50905060fe60f81b816000815181106140c957fe5b60200101907effffffffffffffffffffffffffffffffffffffffffffffffffffffffffffff1916908160001a9053506141088a60036041846001612598565b50606060028b60458151811061411a57fe5b602001015160f81c60f81b60f81c60ff16016040519080825280601f01601f19166020018201604052801561415e5781602001600182028038833980820191505090505b5090506141718b60448351846000612598565b5061421a6002836040518082805190602001908083835b602083106141ab5780518252602082019150602081019050602083039250614188565b6001836020036101000a038019825116818451168082178552505050505050905001915050602060405180830381855afa1580156141ed573d6000803e3d6000fd5b5050506040513d602081101561420257600080fd5b81019080805190602001909291905050508285613c58565b975087985050505050505050505b92915050565b606061423861430c565b6142406146ec565b61424c81610400614318565b61425581614362565b60008090505b83518110156142975761428a84828151811061427357fe5b60200260200101518361437090919063ffffffff16565b808060010191505061425b565b506142a181614395565b8060000151915050919050565b80600390805190602001906142c4929190614706565b5050565b60008060008060405188815287602082015286604082015285606082015260208160808360006001610bb8f192508051915050818193509350505094509492505050565b60405180590338823950565b600081905060006020828161432957fe5b0614614342576020818161433957fe5b06602003810190505b808360200181815250506040518084526000815281810160405250505050565b61436d8160046143a3565b50565b61437d82600283516143c4565b614390818361450490919063ffffffff16565b505050565b6143a08160076143a3565b50565b6143c0601f60058360ff16901b17836145af90919063ffffffff16565b5050565b601781116143f0576143eb8160058460ff16901b60ff1617846145af90919063ffffffff16565b6144ff565b60ff811161443157614415601860058460ff16901b17846145af90919063ffffffff16565b61442b816001856145ef9092919063ffffffff16565b506144fe565b61ffff811161447357614457601960058460ff16901b17846145af90919063ffffffff16565b61446d816002856145ef9092919063ffffffff16565b506144fd565b63ffffffff81116144b75761449b601a60058460ff16901b17846145af90919063ffffffff16565b6144b1816004856145ef9092919063ffffffff16565b506144fc565b67ffffffffffffffff81116144fb576144e3601b60058460ff16901b17846145af90919063ffffffff16565b6144f9816008856145ef9092919063ffffffff16565b505b5b5b5b5b505050565b61450c6146ec565b8260200151836000015151835101111561453c5761453b83600261453586602001518651614656565b02614672565b5b60008060008451905085518051602081830101945086518101825260208701935050505b602081106145835781518352602083019250602082019150602081039050614560565b60006001826020036101000a039050801983511681855116818117865250508694505050505092915050565b816020015160018360000151510111156145d5576145d4826002846020015102614672565b5b815180516020818301018381536001820183525050505050565b6145f76146ec565b8360200151846000015151830111156146255761462484600261461e876020015186614656565b02614672565b5b60006001836101000a0390508451805184818301018684198251161781528582018352505050849150509392505050565b6000818311156146685782905061466c565b8190505b92915050565b6060826000015190506146858383614318565b61468f8382614504565b50505050565b6040518060400160405280600073ffffffffffffffffffffffffffffffffffffffff168152602001600081525090565b60405180608001604052806004905b60608152602001906001900390816146d45790505090565b604051806040016040528060608152602001600081525090565b828054600181600116156101000203166002900490600052602060002090601f016020900481019282601f1061474757805160ff1916838001178555614775565b82800160010185558215614775579182015b82811115614774578251825591602001919060010190614759565b5b5090506147829190614786565b5090565b6147a891905b808211156147a457600081600090555060010161478c565b5090565b9056fe706c65617365207069636b206120612077686f6c65206e756d626572206265747765656e203020616e642031706c65617365207761697420756e74696c20796f75722063757272656e742073657373696f6e20697320636f6d706c6574654d7573742073656e64206174206c6561737420302e3120657468657220746f2074686520636f6e7472616374636f6e747261637420697320656d7074792e20506c65617365207761697420666f722074686520636f6e7472616374206f776e657220746f2070726f76696465206c6971756964697479596f7520646f206e6f74206861766520616e792077696e6e696e6720746f207769746864726177536166654d6174683a206d756c7469706c69636174696f6e206f766572666c6f777fb956469c5c9b89840d55b43537e66a98dd4811ea0a27224272c2e5622911e8537a2f8e86a46baec82864e98dd01e9ccc2f8bc5dfc9cbe5a91a290498dd96e450726f7661626c65207175657279207761732073656e742c207374616e64696e6720627920666f722074686520616e737765722e2e2e496e73756666696369656e7420636f6e74726163742066756e647320666f72207769746864726177616c2e20506c6561736520776169742074696c6c2074686520636f6e747261637420686173206d6f72652066756e647320617661696c61626c652ea265627a7a7231582009b82cbcdabb180ef8d600b45be698ce570ce9f80449bd7526cad2db4e192cda64736f6c634300050c0032",
  "source": "import \"./Ownable.sol\";\r\nimport \"./provableAPI.sol\";\r\nimport \"./Destroyable.sol\";\r\nimport \"./SafeMath.sol\";\r\npragma solidity 0.5.12;\r\n\r\n\r\ncontract CoinFlip is Ownable, Destroyable, usingProvable {\r\n\r\n\r\nusing SafeMath for uint256;\r\n\r\nstruct Bet {\r\naddress player;\r\nuint value;\r\n}\r\n\r\nstruct Player {\r\nuint earnings;\r\nuint wins;\r\nuint loss;\r\nuint latestGuess;\r\nuint outcome;\r\nbool isWaiting;\r\n}\r\n\r\nuint256 constant NUM_RANDOM_BYTES_REQUESTED = 1;\r\n\r\nuint private spend = 0.1 ether;\r\n\r\nuint public balance;\r\n\r\nmapping (address => Player) private players;\r\nmapping (bytes32 => Bet) private waiting;\r\n\r\nevent LatestGuess(uint guess, bytes32 queryId, bool isWaiting);\r\nevent FlipOutcome(address player, uint outcome);\r\nevent LogNewProvableQuery(string description);\r\nevent WithdrawEarnings(address player, uint earnings);\r\n\r\n modifier minimumCost(uint cost) {\r\n     require(msg.value >= spend, \"Must send at least 0.1 ether to the contract\");\r\n     _;\r\n}\r\n\r\n constructor() public {\r\n     balance = 0;\r\n     provable_setProof(proofType_Ledger);\r\n }\r\n\r\n\r\nfunction getPlayer() public view returns(uint, uint, uint, uint, uint, bool){\r\n    return(players[msg.sender].earnings, players[msg.sender].wins, players[msg.sender].loss, players[msg.sender].latestGuess, players[msg.sender].outcome, players[msg.sender].isWaiting);\r\n}\r\n\r\n\r\n function __callback(bytes32 _queryId, string memory _result, bytes memory _proof) public {\r\n  require(msg.sender == provable_cbAddress());\r\n\r\n   if (provable_randomDS_proofVerify__returnCode(_queryId, _result, _proof) != 0) {\r\n            players[waiting[_queryId].player].isWaiting = false;\r\n        } else {\r\n\r\n            players[waiting[_queryId].player].outcome = uint256(keccak256(abi.encodePacked(_result))) % 2;\r\n\r\n            finaliseOutcome(_queryId);\r\n\r\n            emit FlipOutcome(waiting[_queryId].player, players[waiting[_queryId].player].outcome);\r\n\r\n            delete waiting[_queryId];\r\n\r\n      }\r\n}\r\n\r\nfunction flip(uint guess) public payable minimumCost(spend)\r\n{\r\n  require(guess == 0 || guess == 1, \"please pick a a whole number between 0 and 1\");\r\n  require(balance > 0, \"contract is empty. Please wait for the contract owner to provide liquidity\");\r\n  require(players[msg.sender].isWaiting == false, \"please wait until your current session is complete\");\r\n\r\n\r\n  players[msg.sender].latestGuess = guess;\r\n\r\n  balance = balance.add(msg.value);\r\n\r\n  uint256 QUERY_EXECUTION_DELAY = 0; // NOTE: The datasource currently does not support delays > 0!\r\n  uint256 GAS_FOR_CALLBACK = 300000;\r\n\r\n  //FOR PRODUCTION\r\n  bytes32 queryId = provable_newRandomDSQuery(\r\n      QUERY_EXECUTION_DELAY,\r\n      NUM_RANDOM_BYTES_REQUESTED,\r\n      GAS_FOR_CALLBACK\r\n  );\r\n\r\n  Bet memory b;\r\n\r\n  b.player = msg.sender;\r\n  b.value = msg.value;\r\n  waiting[queryId] = b;\r\n  players[msg.sender].isWaiting = true;\r\n\r\n  emit LogNewProvableQuery(\"Provable query was sent, standing by for the answer...\");\r\n  emit LatestGuess(guess, queryId, true);\r\n\r\n}\r\n\r\n\r\nfunction finaliseOutcome(bytes32 _queryId) public payable {\r\n  require(players[waiting[_queryId].player].outcome == 0 || players[waiting[_queryId].player].outcome == 1);\r\n\r\n  uint expected = players[waiting[_queryId].player].latestGuess;\r\n  uint result = players[waiting[_queryId].player].outcome;\r\n\r\n  address sender = waiting[_queryId].player;\r\n  uint cost = waiting[_queryId].value;\r\n\r\n  if(expected == result){\r\n     uint won = cost.mul(2);\r\n\r\n      players[sender].earnings = players[sender].earnings.add(won);\r\n      players[sender].wins = players[sender].wins.add(1);\r\n\r\n      assert(expected == result);\r\n\r\n\r\n  } else if(expected != result) {\r\n\r\n     players[sender].loss = players[sender].loss.add(1);\r\n\r\n     assert(expected != result);\r\n\r\n  }\r\n\r\n  players[sender].isWaiting = false;\r\n\r\n  assert(result == 0 || result == 1);\r\n\r\n}\r\n\r\n\r\nfunction withdraw_earnings() public {\r\n    require(players[msg.sender].earnings > 0, \"You do not have any winning to withdraw\");\r\n    require(balance >= players[msg.sender].earnings, \"Insufficient contract funds for withdrawal. Please wait till the contract has more funds available.\");\r\n\r\n     uint tmp_earnings = players[msg.sender].earnings;\r\n     msg.sender.transfer(tmp_earnings);\r\n     balance -= tmp_earnings;\r\n     players[msg.sender].earnings = 0;\r\n\r\n     assert(balance >= players[msg.sender].earnings);\r\n\r\n     emit WithdrawEarnings(msg.sender, tmp_earnings);\r\n}\r\n\r\nfunction addLiquidity() public payable minimumCost(spend) onlyOwner returns(uint) {\r\n\r\n    uint old_balance = balance;\r\n\r\n    balance += msg.value;\r\n\r\n    assert(balance > old_balance);\r\n\r\n    return balance;\r\n\r\n}\r\n\r\n//FOR TESTING PURPOSES ONLY - ISSUES WITH ORACLE NOT RETURNING THE CALLBACK HENCE TO SAVE TIME FOR TESTING...\r\nfunction stopWaiting(address player) public onlyOwner {\r\n  players[player].isWaiting = false;\r\n}\r\n\r\n\r\n}\r\n",
  "sourcePath": "D:/Ivan On Tech Academy/Ethereum Programming 201/CoinFlip/contracts/CoinFlip.sol",
  "compiler": {
    "name": "solc",
    "version": "0.5.12+commit.7709ece9.Emscripten.clang"
  },
  "schemaVersion": "3.0.16",
  "updatedAt": "2020-11-21T20:14:57.972Z",
  "devdoc": {
    "methods": {
      "__callback(bytes32,string)": {
        "details": "The following `__callback` functions are just placeholders ideally     meant to be defined in child contract when proofs are used.     The function bodies simply silence compiler warnings."
      }
    }
  },
  "userdoc": {
    "methods": {}
  }
}