{
  "contractName": "CoinFlip",
  "abi": [
    {
      "inputs": [],
      "payable": false,
      "stateMutability": "nonpayable",
      "type": "constructor"
    },
    {
      "anonymous": false,
      "inputs": [
        {
          "indexed": false,
          "internalType": "address",
          "name": "player",
          "type": "address"
        },
        {
          "indexed": false,
          "internalType": "uint256",
          "name": "outcome",
          "type": "uint256"
        }
      ],
      "name": "FlipOutcome",
      "type": "event"
    },
    {
      "anonymous": false,
      "inputs": [
        {
          "indexed": false,
          "internalType": "string",
          "name": "description",
          "type": "string"
        }
      ],
      "name": "LogNewProvableQuery",
      "type": "event"
    },
    {
      "anonymous": false,
      "inputs": [
        {
          "indexed": false,
          "internalType": "address",
          "name": "player",
          "type": "address"
        },
        {
          "indexed": false,
          "internalType": "uint256",
          "name": "earnings",
          "type": "uint256"
        }
      ],
      "name": "WithdrawEarnings",
      "type": "event"
    },
    {
      "constant": true,
      "inputs": [],
      "name": "balance",
      "outputs": [
        {
          "internalType": "uint256",
          "name": "",
          "type": "uint256"
        }
      ],
      "payable": false,
      "stateMutability": "view",
      "type": "function"
    },
    {
      "constant": false,
      "inputs": [],
      "name": "destroy",
      "outputs": [],
      "payable": false,
      "stateMutability": "nonpayable",
      "type": "function"
    },
    {
      "constant": true,
      "inputs": [],
      "name": "getPlayer",
      "outputs": [
        {
          "internalType": "uint256",
          "name": "",
          "type": "uint256"
        },
        {
          "internalType": "uint256",
          "name": "",
          "type": "uint256"
        },
        {
          "internalType": "uint256",
          "name": "",
          "type": "uint256"
        },
        {
          "internalType": "uint256",
          "name": "",
          "type": "uint256"
        },
        {
          "internalType": "uint256",
          "name": "",
          "type": "uint256"
        },
        {
          "internalType": "bool",
          "name": "",
          "type": "bool"
        }
      ],
      "payable": false,
      "stateMutability": "view",
      "type": "function"
    },
    {
      "constant": false,
      "inputs": [
        {
          "internalType": "bytes32",
          "name": "_myid",
          "type": "bytes32"
        },
        {
          "internalType": "string",
          "name": "_result",
          "type": "string"
        }
      ],
      "name": "__callback",
      "outputs": [],
      "payable": false,
      "stateMutability": "nonpayable",
      "type": "function"
    },
    {
      "constant": false,
      "inputs": [
        {
          "internalType": "bytes32",
          "name": "_queryId",
          "type": "bytes32"
        },
        {
          "internalType": "string",
          "name": "_result",
          "type": "string"
        },
        {
          "internalType": "bytes",
          "name": "_proof",
          "type": "bytes"
        }
      ],
      "name": "__callback",
      "outputs": [],
      "payable": false,
      "stateMutability": "nonpayable",
      "type": "function"
    },
    {
      "constant": false,
      "inputs": [
        {
          "internalType": "uint256",
          "name": "guess",
          "type": "uint256"
        }
      ],
      "name": "flip",
      "outputs": [],
      "payable": true,
      "stateMutability": "payable",
      "type": "function"
    },
    {
      "constant": false,
      "inputs": [
        {
          "internalType": "bytes32",
          "name": "_queryId",
          "type": "bytes32"
        }
      ],
      "name": "finaliseOutcome",
      "outputs": [],
      "payable": true,
      "stateMutability": "payable",
      "type": "function"
    },
    {
      "constant": false,
      "inputs": [],
      "name": "withdraw_earnings",
      "outputs": [],
      "payable": false,
      "stateMutability": "nonpayable",
      "type": "function"
    },
    {
      "constant": false,
      "inputs": [],
      "name": "addLiquidity",
      "outputs": [
        {
          "internalType": "uint256",
          "name": "",
          "type": "uint256"
        }
      ],
      "payable": true,
      "stateMutability": "payable",
      "type": "function"
    }
  ],
  "bytecode": "0x608060405267016345785d8a00006006553480156200001d57600080fd5b50336000806101000a81548173ffffffffffffffffffffffffffffffffffffffff021916908373ffffffffffffffffffffffffffffffffffffffff16021790555060006007819055506200007b603060f81b6200008160201b60201c565b62000aa5565b600073ffffffffffffffffffffffffffffffffffffffff16600260009054906101000a900473ffffffffffffffffffffffffffffffffffffffff1673ffffffffffffffffffffffffffffffffffffffff16148062000111575060006200010f600260009054906101000a900473ffffffffffffffffffffffffffffffffffffffff16620003e760201b60201c565b145b156200012b57620001296000620003f260201b60201c565b505b600260009054906101000a900473ffffffffffffffffffffffffffffffffffffffff1673ffffffffffffffffffffffffffffffffffffffff166338cc48316040518163ffffffff1660e01b8152600401602060405180830381600087803b1580156200019657600080fd5b505af1158015620001ab573d6000803e3d6000fd5b505050506040513d6020811015620001c257600080fd5b810190808051906020019092919050505073ffffffffffffffffffffffffffffffffffffffff16600160009054906101000a900473ffffffffffffffffffffffffffffffffffffffff1673ffffffffffffffffffffffffffffffffffffffff16146200031157600260009054906101000a900473ffffffffffffffffffffffffffffffffffffffff1673ffffffffffffffffffffffffffffffffffffffff166338cc48316040518163ffffffff1660e01b8152600401602060405180830381600087803b1580156200029357600080fd5b505af1158015620002a8573d6000803e3d6000fd5b505050506040513d6020811015620002bf57600080fd5b8101908080519060200190929190505050600160006101000a81548173ffffffffffffffffffffffffffffffffffffffff021916908373ffffffffffffffffffffffffffffffffffffffff1602179055505b600160009054906101000a900473ffffffffffffffffffffffffffffffffffffffff1673ffffffffffffffffffffffffffffffffffffffff1663688dcfd7826040518263ffffffff1660e01b815260040180827effffffffffffffffffffffffffffffffffffffffffffffffffffffffffffff19167effffffffffffffffffffffffffffffffffffffffffffffffffffffffffffff19168152602001915050600060405180830381600087803b158015620003cb57600080fd5b505af1158015620003e0573d6000803e3d6000fd5b5050505050565b6000813b9050919050565b6000620004046200040b60201b60201c565b9050919050565b60008062000433731d3b2638a7cc9f2cb3d298a3da7a90b67e5506ed620003e760201b60201c565b1115620004df57731d3b2638a7cc9f2cb3d298a3da7a90b67e5506ed600260006101000a81548173ffffffffffffffffffffffffffffffffffffffff021916908373ffffffffffffffffffffffffffffffffffffffff160217905550620004d56040518060400160405280600b81526020017f6574685f6d61696e6e6574000000000000000000000000000000000000000000815250620009da60201b60201c565b60019050620009d7565b60006200050673c03a2615d5efaf5f49f60b7bb6583eaec212fdf1620003e760201b60201c565b1115620005b25773c03a2615d5efaf5f49f60b7bb6583eaec212fdf1600260006101000a81548173ffffffffffffffffffffffffffffffffffffffff021916908373ffffffffffffffffffffffffffffffffffffffff160217905550620005a86040518060400160405280600c81526020017f6574685f726f707374656e330000000000000000000000000000000000000000815250620009da60201b60201c565b60019050620009d7565b6000620005d973b7a07bcf2ba2f2703b24c0691b5278999c59ac7e620003e760201b60201c565b1115620006855773b7a07bcf2ba2f2703b24c0691b5278999c59ac7e600260006101000a81548173ffffffffffffffffffffffffffffffffffffffff021916908373ffffffffffffffffffffffffffffffffffffffff1602179055506200067b6040518060400160405280600981526020017f6574685f6b6f76616e0000000000000000000000000000000000000000000000815250620009da60201b60201c565b60019050620009d7565b6000620006ac73146500cfd35b22e4a392fe0adc06de1a1368ed48620003e760201b60201c565b1115620007585773146500cfd35b22e4a392fe0adc06de1a1368ed48600260006101000a81548173ffffffffffffffffffffffffffffffffffffffff021916908373ffffffffffffffffffffffffffffffffffffffff1602179055506200074e6040518060400160405280600b81526020017f6574685f72696e6b656279000000000000000000000000000000000000000000815250620009da60201b60201c565b60019050620009d7565b60006200077f73a2998efd205fb9d4b4963afb70778d6354ad3a41620003e760201b60201c565b11156200082b5773a2998efd205fb9d4b4963afb70778d6354ad3a41600260006101000a81548173ffffffffffffffffffffffffffffffffffffffff021916908373ffffffffffffffffffffffffffffffffffffffff160217905550620008216040518060400160405280600a81526020017f6574685f676f65726c6900000000000000000000000000000000000000000000815250620009da60201b60201c565b60019050620009d7565b600062000852736f485c8bf6fc43ea212e93bbf8ce046c7f1cb475620003e760201b60201c565b1115620008b857736f485c8bf6fc43ea212e93bbf8ce046c7f1cb475600260006101000a81548173ffffffffffffffffffffffffffffffffffffffff021916908373ffffffffffffffffffffffffffffffffffffffff16021790555060019050620009d7565b6000620008df7320e12a1f859b3feae5fb2a0a32c18f5a65555bbf620003e760201b60201c565b111562000945577320e12a1f859b3feae5fb2a0a32c18f5a65555bbf600260006101000a81548173ffffffffffffffffffffffffffffffffffffffff021916908373ffffffffffffffffffffffffffffffffffffffff16021790555060019050620009d7565b60006200096c7351efaf4c8b3c9afbd5ab9f4bbc82784ab6ef8faa620003e760201b60201c565b1115620009d2577351efaf4c8b3c9afbd5ab9f4bbc82784ab6ef8faa600260006101000a81548173ffffffffffffffffffffffffffffffffffffffff021916908373ffffffffffffffffffffffffffffffffffffffff16021790555060019050620009d7565b600090505b90565b8060039080519060200190620009f2929190620009f6565b5050565b828054600181600116156101000203166002900490600052602060002090601f016020900481019282601f1062000a3957805160ff191683800117855562000a6a565b8280016001018555821562000a6a579182015b8281111562000a6957825182559160200191906001019062000a4c565b5b50905062000a79919062000a7d565b5090565b62000aa291905b8082111562000a9e57600081600090555060010162000a84565b5090565b90565b6148768062000ab56000396000f3fe6080604052600436106100865760003560e01c806363ea260b1161005957806363ea260b1461034657806383197ef0146103745780639e7caf3b1461038b578063b69ef8a8146103a2578063e8078d94146103cd57610086565b8063221e885d1461008b57806327dc297e146100b95780633308f42d1461018b57806338bbfa50146101dd575b600080fd5b6100b7600480360360208110156100a157600080fd5b81019080803590602001909291905050506103eb565b005b3480156100c557600080fd5b50610189600480360360408110156100dc57600080fd5b81019080803590602001909291908035906020019064010000000081111561010357600080fd5b82018360208201111561011557600080fd5b8035906020019184600183028401116401000000008311171561013757600080fd5b91908080601f016020809104026020016040519081016040528093929190818152602001838380828437600081840152601f19601f820116905080830192505050505050509192919290505050610793565b005b34801561019757600080fd5b506101a06107d6565b6040518087815260200186815260200185815260200184815260200183815260200182151515158152602001965050505050505060405180910390f35b3480156101e957600080fd5b506103446004803603606081101561020057600080fd5b81019080803590602001909291908035906020019064010000000081111561022757600080fd5b82018360208201111561023957600080fd5b8035906020019184600183028401116401000000008311171561025b57600080fd5b91908080601f016020809104026020016040519081016040528093929190818152602001838380828437600081840152601f19601f820116905080830192505050505050509192919290803590602001906401000000008111156102be57600080fd5b8201836020820111156102d057600080fd5b803590602001918460018302840111640100000000831117156102f257600080fd5b91908080601f016020809104026020016040519081016040528093929190818152602001838380828437600081840152601f19601f820116905080830192505050505050509192919290505050610992565b005b6103726004803603602081101561035c57600080fd5b8101908080359060200190929190505050610ce4565b005b34801561038057600080fd5b506103896111c8565b005b34801561039757600080fd5b506103a061125b565b005b3480156103ae57600080fd5b506103b7611535565b6040518082815260200191505060405180910390f35b6103d561153b565b6040518082815260200191505060405180910390f35b600654600654341015610449576040517f08c379a000000000000000000000000000000000000000000000000000000000815260040180806020018281038252602c8152602001806146ab602c913960400191505060405180910390fd5b60008214806104585750600182145b6104ad576040517f08c379a000000000000000000000000000000000000000000000000000000000815260040180806020018281038252602c81526020018061464d602c913960400191505060405180910390fd5b600060075411610508576040517f08c379a000000000000000000000000000000000000000000000000000000000815260040180806020018281038252604a8152602001806146d7604a913960600191505060405180910390fd5b60001515600860003373ffffffffffffffffffffffffffffffffffffffff1673ffffffffffffffffffffffffffffffffffffffff16815260200190815260200160002060050160009054906101000a900460ff161515146105b4576040517f08c379a00000000000000000000000000000000000000000000000000000000081526004018080602001828103825260328152602001806146796032913960400191505060405180910390fd5b81600860003373ffffffffffffffffffffffffffffffffffffffff1673ffffffffffffffffffffffffffffffffffffffff168152602001908152602001600020600301819055506106103460075461162090919063ffffffff16565b60078190555060008090506000620493e090506000610631836001846116a8565b905061063b614536565b33816000019073ffffffffffffffffffffffffffffffffffffffff16908173ffffffffffffffffffffffffffffffffffffffff168152505034816020018181525050806009600084815260200190815260200160002060008201518160000160006101000a81548173ffffffffffffffffffffffffffffffffffffffff021916908373ffffffffffffffffffffffffffffffffffffffff160217905550602082015181600101559050506001600860003373ffffffffffffffffffffffffffffffffffffffff1673ffffffffffffffffffffffffffffffffffffffff16815260200190815260200160002060050160006101000a81548160ff0219169083151502179055507fc4dc360d0a9c0677a3379ae0a3d81e887f761e65fdf3d7e00859d1bcd3c473896040518080602001828103825260368152602001806147a96036913960400191505060405180910390a1505050505050565b6107d2828260006040519080825280601f01601f1916602001820160405280156107cc5781602001600182028038833980820191505090505b50610992565b5050565b600080600080600080600860003373ffffffffffffffffffffffffffffffffffffffff1673ffffffffffffffffffffffffffffffffffffffff16815260200190815260200160002060000154600860003373ffffffffffffffffffffffffffffffffffffffff1673ffffffffffffffffffffffffffffffffffffffff16815260200190815260200160002060010154600860003373ffffffffffffffffffffffffffffffffffffffff1673ffffffffffffffffffffffffffffffffffffffff16815260200190815260200160002060020154600860003373ffffffffffffffffffffffffffffffffffffffff1673ffffffffffffffffffffffffffffffffffffffff16815260200190815260200160002060030154600860003373ffffffffffffffffffffffffffffffffffffffff1673ffffffffffffffffffffffffffffffffffffffff16815260200190815260200160002060040154600860003373ffffffffffffffffffffffffffffffffffffffff1673ffffffffffffffffffffffffffffffffffffffff16815260200190815260200160002060050160009054906101000a900460ff16955095509550955095509550909192939495565b61099a611c43565b73ffffffffffffffffffffffffffffffffffffffff163373ffffffffffffffffffffffffffffffffffffffff16146109d157600080fd5b60006109de848484611f63565b60ff1614610a7c576000600860006009600087815260200190815260200160002060000160009054906101000a900473ffffffffffffffffffffffffffffffffffffffff1673ffffffffffffffffffffffffffffffffffffffff1673ffffffffffffffffffffffffffffffffffffffff16815260200190815260200160002060050160006101000a81548160ff021916908315150217905550610cdf565b6002826040516020018082805190602001908083835b60208310610ab55780518252602082019150602081019050602083039250610a92565b6001836020036101000a0380198251168184511680821785525050505050509050019150506040516020818303038152906040528051906020012060001c81610afa57fe5b06600860006009600087815260200190815260200160002060000160009054906101000a900473ffffffffffffffffffffffffffffffffffffffff1673ffffffffffffffffffffffffffffffffffffffff1673ffffffffffffffffffffffffffffffffffffffff16815260200190815260200160002060040181905550610b8083610ce4565b7fa606bf1bb39812847b530ee26f5131e9e559b5fe46d6d994bcdb49519383dc676009600085815260200190815260200160002060000160009054906101000a900473ffffffffffffffffffffffffffffffffffffffff16600860006009600088815260200190815260200160002060000160009054906101000a900473ffffffffffffffffffffffffffffffffffffffff1673ffffffffffffffffffffffffffffffffffffffff1673ffffffffffffffffffffffffffffffffffffffff16815260200190815260200160002060040154604051808373ffffffffffffffffffffffffffffffffffffffff1673ffffffffffffffffffffffffffffffffffffffff1681526020018281526020019250505060405180910390a160096000848152602001908152602001600020600080820160006101000a81549073ffffffffffffffffffffffffffffffffffffffff0219169055600182016000905550505b505050565b6000600860006009600085815260200190815260200160002060000160009054906101000a900473ffffffffffffffffffffffffffffffffffffffff1673ffffffffffffffffffffffffffffffffffffffff1673ffffffffffffffffffffffffffffffffffffffff168152602001908152602001600020600401541480610de357506001600860006009600085815260200190815260200160002060000160009054906101000a900473ffffffffffffffffffffffffffffffffffffffff1673ffffffffffffffffffffffffffffffffffffffff1673ffffffffffffffffffffffffffffffffffffffff16815260200190815260200160002060040154145b610dec57600080fd5b6000600860006009600085815260200190815260200160002060000160009054906101000a900473ffffffffffffffffffffffffffffffffffffffff1673ffffffffffffffffffffffffffffffffffffffff1673ffffffffffffffffffffffffffffffffffffffff1681526020019081526020016000206003015490506000600860006009600086815260200190815260200160002060000160009054906101000a900473ffffffffffffffffffffffffffffffffffffffff1673ffffffffffffffffffffffffffffffffffffffff1673ffffffffffffffffffffffffffffffffffffffff16815260200190815260200160002060040154905060006009600085815260200190815260200160002060000160009054906101000a900473ffffffffffffffffffffffffffffffffffffffff169050600060096000868152602001908152602001600020600101549050828414156110a2576000610f5a60028361209390919063ffffffff16565b9050610fb181600860008673ffffffffffffffffffffffffffffffffffffffff1673ffffffffffffffffffffffffffffffffffffffff1681526020019081526020016000206000015461162090919063ffffffff16565b600860008573ffffffffffffffffffffffffffffffffffffffff1673ffffffffffffffffffffffffffffffffffffffff1681526020019081526020016000206000018190555061104d6001600860008673ffffffffffffffffffffffffffffffffffffffff1673ffffffffffffffffffffffffffffffffffffffff1681526020019081526020016000206001015461162090919063ffffffff16565b600860008573ffffffffffffffffffffffffffffffffffffffff1673ffffffffffffffffffffffffffffffffffffffff1681526020019081526020016000206001018190555083851461109c57fe5b50611151565b828414611150576110ff6001600860008573ffffffffffffffffffffffffffffffffffffffff1673ffffffffffffffffffffffffffffffffffffffff1681526020019081526020016000206002015461162090919063ffffffff16565b600860008473ffffffffffffffffffffffffffffffffffffffff1673ffffffffffffffffffffffffffffffffffffffff168152602001908152602001600020600201819055508284141561114f57fe5b5b5b6000600860008473ffffffffffffffffffffffffffffffffffffffff1673ffffffffffffffffffffffffffffffffffffffff16815260200190815260200160002060050160006101000a81548160ff02191690831515021790555060008314806111bb5750600183145b6111c157fe5b5050505050565b6000809054906101000a900473ffffffffffffffffffffffffffffffffffffffff1673ffffffffffffffffffffffffffffffffffffffff163373ffffffffffffffffffffffffffffffffffffffff161461122157600080fd5b6000809054906101000a900473ffffffffffffffffffffffffffffffffffffffff1673ffffffffffffffffffffffffffffffffffffffff16ff5b6000600860003373ffffffffffffffffffffffffffffffffffffffff1673ffffffffffffffffffffffffffffffffffffffff16815260200190815260200160002060000154116112f6576040517f08c379a00000000000000000000000000000000000000000000000000000000081526004018080602001828103825260278152602001806147216027913960400191505060405180910390fd5b600860003373ffffffffffffffffffffffffffffffffffffffff1673ffffffffffffffffffffffffffffffffffffffff168152602001908152602001600020600001546007541015611393576040517f08c379a00000000000000000000000000000000000000000000000000000000081526004018080602001828103825260638152602001806147df6063913960800191505060405180910390fd5b6000600860003373ffffffffffffffffffffffffffffffffffffffff1673ffffffffffffffffffffffffffffffffffffffff1681526020019081526020016000206000015490503373ffffffffffffffffffffffffffffffffffffffff166108fc829081150290604051600060405180830381858888f19350505050158015611420573d6000803e3d6000fd5b50806007600082825403925050819055506000600860003373ffffffffffffffffffffffffffffffffffffffff1673ffffffffffffffffffffffffffffffffffffffff16815260200190815260200160002060000181905550600860003373ffffffffffffffffffffffffffffffffffffffff1673ffffffffffffffffffffffffffffffffffffffff1681526020019081526020016000206000015460075410156114c757fe5b7f64757b9a00f193ad19794cab4d1545a2f93edb93a4b18ec8e5e46583924d08763382604051808373ffffffffffffffffffffffffffffffffffffffff1673ffffffffffffffffffffffffffffffffffffffff1681526020018281526020019250505060405180910390a150565b60075481565b600060065460065434101561159b576040517f08c379a000000000000000000000000000000000000000000000000000000000815260040180806020018281038252602c8152602001806146ab602c913960400191505060405180910390fd5b6000809054906101000a900473ffffffffffffffffffffffffffffffffffffffff1673ffffffffffffffffffffffffffffffffffffffff163373ffffffffffffffffffffffffffffffffffffffff16146115f457600080fd5b6000600754905034600760008282540192505081905550806007541161161657fe5b6007549250505090565b60008082840190508381101561169e576040517f08c379a000000000000000000000000000000000000000000000000000000000815260040180806020018281038252601b8152602001807f536166654d6174683a206164646974696f6e206f766572666c6f77000000000081525060200191505060405180910390fd5b8091505092915050565b600080831180156116ba575060208311155b6116c357600080fd5b600a84029350606060016040519080825280601f01601f1916602001820160405280156116ff5781602001600182028038833980820191505090505b5090508360f81b8160008151811061171357fe5b60200101907effffffffffffffffffffffffffffffffffffffffffffffffffffffffffffff1916908160001a905350606060206040519080825280601f01601f1916602001820160405280156117785781602001600182028038833980820191505090505b509050606060206040519080825280601f01601f1916602001820160405280156117b15781602001600182028038833980820191505090505b50905060006117be612119565b905060208352424118600143034018602084015260208252806020830152606060206040519080825280601f01601f1916602001820160405280156118125781602001600182028038833980820191505090505b509050886020820152606060086040519080825280601f01601f1916602001820160405280156118515781602001600182028038833980820191505090505b5090506118648260186008846000612439565b5061186d614566565b604051806080016040528087815260200188815260200186815260200184815250905060006118d26040518060400160405280600681526020017f72616e646f6d0000000000000000000000000000000000000000000000000000815250838c612498565b9050606060086040519080825280601f01601f19166020018201604052801561190a5781602001600182028038833980820191505090505b50905060208401517f0100000000000000000000000000000000000000000000000000000000000000810460278301537e01000000000000000000000000000000000000000000000000000000000000810460268301537d010000000000000000000000000000000000000000000000000000000000810460258301537c0100000000000000000000000000000000000000000000000000000000810460248301537b01000000000000000000000000000000000000000000000000000000810460238301537a010000000000000000000000000000000000000000000000000000810460228301537901000000000000000000000000000000000000000000000000008104602183015378010000000000000000000000000000000000000000000000008104602083015350611c30828285600160048110611a4957fe5b6020020151600287600060048110611a5d57fe5b60200201516040518082805190602001908083835b60208310611a955780518252602082019150602081019050602083039250611a72565b6001836020036101000a038019825116818451168082178552505050505050905001915050602060405180830381855afa158015611ad7573d6000803e3d6000fd5b5050506040513d6020811015611aec57600080fd5b810190808051906020019092919050505087600260048110611b0a57fe5b60200201516040516020018085805190602001908083835b60208310611b455780518252602082019150602081019050602083039250611b22565b6001836020036101000a03801982511681845116808217855250505050505090500184805190602001908083835b60208310611b965780518252602082019150602081019050602083039250611b73565b6001836020036101000a03801982511681845116808217855250505050505090500183815260200182805190602001908083835b60208310611bed5780518252602082019150602081019050602083039250611bca565b6001836020036101000a03801982511681845116808217855250505050505090500194505050505060405160208183030381529060405280519060200120612807565b8199505050505050505050509392505050565b60008073ffffffffffffffffffffffffffffffffffffffff16600260009054906101000a900473ffffffffffffffffffffffffffffffffffffffff1673ffffffffffffffffffffffffffffffffffffffff161480611ccb57506000611cc9600260009054906101000a900473ffffffffffffffffffffffffffffffffffffffff16612823565b145b15611cdc57611cda600061282e565b505b600260009054906101000a900473ffffffffffffffffffffffffffffffffffffffff1673ffffffffffffffffffffffffffffffffffffffff166338cc48316040518163ffffffff1660e01b8152600401602060405180830381600087803b158015611d4657600080fd5b505af1158015611d5a573d6000803e3d6000fd5b505050506040513d6020811015611d7057600080fd5b810190808051906020019092919050505073ffffffffffffffffffffffffffffffffffffffff16600160009054906101000a900473ffffffffffffffffffffffffffffffffffffffff1673ffffffffffffffffffffffffffffffffffffffff1614611ebb57600260009054906101000a900473ffffffffffffffffffffffffffffffffffffffff1673ffffffffffffffffffffffffffffffffffffffff166338cc48316040518163ffffffff1660e01b8152600401602060405180830381600087803b158015611e3f57600080fd5b505af1158015611e53573d6000803e3d6000fd5b505050506040513d6020811015611e6957600080fd5b8101908080519060200190929190505050600160006101000a81548173ffffffffffffffffffffffffffffffffffffffff021916908373ffffffffffffffffffffffffffffffffffffffff1602179055505b600160009054906101000a900473ffffffffffffffffffffffffffffffffffffffff1673ffffffffffffffffffffffffffffffffffffffff1663c281d19e6040518163ffffffff1660e01b815260040160206040518083038186803b158015611f2357600080fd5b505afa158015611f37573d6000803e3d6000fd5b505050506040513d6020811015611f4d57600080fd5b8101908080519060200190929190505050905090565b60007f4c0000000000000000000000000000000000000000000000000000000000000082600081518110611f9357fe5b602001015160f81c60f81b7effffffffffffffffffffffffffffffffffffffffffffffffffffffffffffff191614158061202657507f500000000000000000000000000000000000000000000000000000000000000082600181518110611ff657fe5b602001015160f81c60f81b7effffffffffffffffffffffffffffffffffffffffffffffffffffffffffffff191614155b806120525750600160ff168260028151811061203e57fe5b602001015160f81c60f81b60f81c60ff1614155b15612060576001905061208c565b600061207583868661207061283f565b6128e1565b90508061208657600291505061208c565b60009150505b9392505050565b6000808314156120a65760009050612113565b60008284029050828482816120b757fe5b041461210e576040517f08c379a00000000000000000000000000000000000000000000000000000000081526004018080602001828103825260218152602001806147486021913960400191505060405180910390fd5b809150505b92915050565b60008073ffffffffffffffffffffffffffffffffffffffff16600260009054906101000a900473ffffffffffffffffffffffffffffffffffffffff1673ffffffffffffffffffffffffffffffffffffffff1614806121a15750600061219f600260009054906101000a900473ffffffffffffffffffffffffffffffffffffffff16612823565b145b156121b2576121b0600061282e565b505b600260009054906101000a900473ffffffffffffffffffffffffffffffffffffffff1673ffffffffffffffffffffffffffffffffffffffff166338cc48316040518163ffffffff1660e01b8152600401602060405180830381600087803b15801561221c57600080fd5b505af1158015612230573d6000803e3d6000fd5b505050506040513d602081101561224657600080fd5b810190808051906020019092919050505073ffffffffffffffffffffffffffffffffffffffff16600160009054906101000a900473ffffffffffffffffffffffffffffffffffffffff1673ffffffffffffffffffffffffffffffffffffffff161461239157600260009054906101000a900473ffffffffffffffffffffffffffffffffffffffff1673ffffffffffffffffffffffffffffffffffffffff166338cc48316040518163ffffffff1660e01b8152600401602060405180830381600087803b15801561231557600080fd5b505af1158015612329573d6000803e3d6000fd5b505050506040513d602081101561233f57600080fd5b8101908080519060200190929190505050600160006101000a81548173ffffffffffffffffffffffffffffffffffffffff021916908373ffffffffffffffffffffffffffffffffffffffff1602179055505b600160009054906101000a900473ffffffffffffffffffffffffffffffffffffffff1673ffffffffffffffffffffffffffffffffffffffff1663abaa5f3e6040518163ffffffff1660e01b815260040160206040518083038186803b1580156123f957600080fd5b505afa15801561240d573d6000803e3d6000fd5b505050506040513d602081101561242357600080fd5b8101908080519060200190929190505050905090565b606060008285019050808451101561245057600080fd5b600086602001905060008460200190505b8688602001018210156124895781890151808288015250602082019150602081019050612461565b85935050505095945050505050565b60008073ffffffffffffffffffffffffffffffffffffffff16600260009054906101000a900473ffffffffffffffffffffffffffffffffffffffff1673ffffffffffffffffffffffffffffffffffffffff1614806125205750600061251e600260009054906101000a900473ffffffffffffffffffffffffffffffffffffffff16612823565b145b156125315761252f600061282e565b505b600260009054906101000a900473ffffffffffffffffffffffffffffffffffffffff1673ffffffffffffffffffffffffffffffffffffffff166338cc48316040518163ffffffff1660e01b8152600401602060405180830381600087803b15801561259b57600080fd5b505af11580156125af573d6000803e3d6000fd5b505050506040513d60208110156125c557600080fd5b810190808051906020019092919050505073ffffffffffffffffffffffffffffffffffffffff16600160009054906101000a900473ffffffffffffffffffffffffffffffffffffffff1673ffffffffffffffffffffffffffffffffffffffff161461271057600260009054906101000a900473ffffffffffffffffffffffffffffffffffffffff1673ffffffffffffffffffffffffffffffffffffffff166338cc48316040518163ffffffff1660e01b8152600401602060405180830381600087803b15801561269457600080fd5b505af11580156126a8573d6000803e3d6000fd5b505050506040513d60208110156126be57600080fd5b8101908080519060200190929190505050600160006101000a81548173ffffffffffffffffffffffffffffffffffffffff021916908373ffffffffffffffffffffffffffffffffffffffff1602179055505b6060600460405190808252806020026020018201604052801561274757816020015b60608152602001906001900390816127325790505b5090508360006004811061275757fe5b60200201518160008151811061276957fe5b60200260200101819052508360016004811061278157fe5b60200201518160018151811061279357fe5b6020026020010181905250836002600481106127ab57fe5b6020020151816002815181106127bd57fe5b6020026020010181905250836003600481106127d557fe5b6020020151816003815181106127e757fe5b60200260200101819052506127fd858285612f8c565b9150509392505050565b8060046000848152602001908152602001600020819055505050565b6000813b9050919050565b60006128386134f2565b9050919050565b606060038054600181600116156101000203166002900480601f0160208091040260200160405190810160405280929190818152602001828054600181600116156101000203166002900480156128d75780601f106128ac576101008083540402835291602001916128d7565b820191906000526020600020905b8154815290600101906020018083116128ba57829003601f168201915b5050505050905090565b60008060206002876045815181106128f557fe5b602001015160f81c60f81b60f81c60ff1601604401019050606060206040519080825280601f01601f1916602001820160405280156129435781602001600182028038833980820191505090505b50905061295587836020846000612439565b50600284876040516020018083805190602001908083835b60208310612990578051825260208201915060208101905060208303925061296d565b6001836020036101000a038019825116818451168082178552505050505050905001828152602001925050506040516020818303038152906040526040518082805190602001908083835b602083106129fe57805182526020820191506020810190506020830392506129db565b6001836020036101000a038019825116818451168082178552505050505050905001915050602060405180830381855afa158015612a40573d6000803e3d6000fd5b5050506040513d6020811015612a5557600080fd5b81019080805190602001909291905050506040516020018082815260200191505060405160208183030381529060405280519060200120818051906020012014612aa457600092505050612f84565b60606002886001604986010181518110612aba57fe5b602001015160f81c60f81b60f81c60ff16016040519080825280601f01601f191660200182016040528015612afe5781602001600182028038833980820191505090505b509050612b1388604985018351846000612439565b50612bde6002826040518082805190602001908083835b60208310612b4d5780518252602082019150602081019050602083039250612b2a565b6001836020036101000a038019825116818451168082178552505050505050905001915050602060405180830381855afa158015612b8f573d6000803e3d6000fd5b5050506040513d6020811015612ba457600080fd5b8101908080519060200190929190505050878a6008602088010181518110612bc857fe5b602001015160f81c60f81b60f81c60ff16613a49565b612bee5760009350505050612f84565b606060296040519080825280601f01601f191660200182016040528015612c245781602001600182028038833980820191505090505b509050612c3989602086016029846000612439565b506060604080519080825280601f01601f191660200182016040528015612c6f5781602001600182028038833980820191505090505b5090506000604184516029602089010101019050612c958b604083036040856000612439565b5060006002836040518082805190602001908083835b60208310612cce5780518252602082019150602081019050602083039250612cab565b6001836020036101000a038019825116818451168082178552505050505050905001915050602060405180830381855afa158015612d10573d6000803e3d6000fd5b5050506040513d6020811015612d2557600080fd5b8101908080519060200190929190505050905083816040516020018083805190602001908083835b60208310612d705780518252602082019150602081019050602083039250612d4d565b6001836020036101000a0380198251168184511680821785525050505050509050018281526020019250505060405160208183030381529060405280519060200120600460008d8152602001908152602001600020541415612de857600460008c815260200190815260200160002060009055612df8565b6000975050505050505050612f84565b606060496040519080825280601f01601f191660200182016040528015612e2e5781602001600182028038833980820191505090505b509050612e408d896049846000612439565b50612ee96002826040518082805190602001908083835b60208310612e7a5780518252602082019150602081019050602083039250612e57565b6001836020036101000a038019825116818451168082178552505050505050905001915050602060405180830381855afa158015612ebc573d6000803e3d6000fd5b5050506040513d6020811015612ed157600080fd5b81019080805190602001909291905050508786613af9565b612efe57600098505050505050505050612f84565b6005600083815260200190815260200160002060009054906101000a900460ff16612f5857612f2d8d84613cb7565b6005600084815260200190815260200160002060006101000a81548160ff0219169083151502179055505b6005600083815260200190815260200160002060009054906101000a900460ff16985050505050505050505b949350505050565b60008073ffffffffffffffffffffffffffffffffffffffff16600260009054906101000a900473ffffffffffffffffffffffffffffffffffffffff1673ffffffffffffffffffffffffffffffffffffffff16148061301457506000613012600260009054906101000a900473ffffffffffffffffffffffffffffffffffffffff16612823565b145b1561302557613023600061282e565b505b600260009054906101000a900473ffffffffffffffffffffffffffffffffffffffff1673ffffffffffffffffffffffffffffffffffffffff166338cc48316040518163ffffffff1660e01b8152600401602060405180830381600087803b15801561308f57600080fd5b505af11580156130a3573d6000803e3d6000fd5b505050506040513d60208110156130b957600080fd5b810190808051906020019092919050505073ffffffffffffffffffffffffffffffffffffffff16600160009054906101000a900473ffffffffffffffffffffffffffffffffffffffff1673ffffffffffffffffffffffffffffffffffffffff161461320457600260009054906101000a900473ffffffffffffffffffffffffffffffffffffffff1673ffffffffffffffffffffffffffffffffffffffff166338cc48316040518163ffffffff1660e01b8152600401602060405180830381600087803b15801561318857600080fd5b505af115801561319c573d6000803e3d6000fd5b505050506040513d60208110156131b257600080fd5b8101908080519060200190929190505050600160006101000a81548173ffffffffffffffffffffffffffffffffffffffff021916908373ffffffffffffffffffffffffffffffffffffffff1602179055505b6000600160009054906101000a900473ffffffffffffffffffffffffffffffffffffffff1673ffffffffffffffffffffffffffffffffffffffff16632ef3accc86856040518363ffffffff1660e01b81526004018080602001838152602001828103825284818151815260200191508051906020019080838360005b8381101561329b578082015181840152602081019050613280565b50505050905090810190601f1680156132c85780820380516001836020036101000a031916815260200191505b509350505050602060405180830381600087803b1580156132e857600080fd5b505af11580156132fc573d6000803e3d6000fd5b505050506040513d602081101561331257600080fd5b81019080805190602001909291905050509050823a02670de0b6b3a764000001811115613345576000801b9150506134eb565b6060613350856140cf565b9050600160009054906101000a900473ffffffffffffffffffffffffffffffffffffffff1673ffffffffffffffffffffffffffffffffffffffff1663c55c1cb68360008985896040518663ffffffff1660e01b8152600401808581526020018060200180602001848152602001838103835286818151815260200191508051906020019080838360005b838110156133f55780820151818401526020810190506133da565b50505050905090810190601f1680156134225780820380516001836020036101000a031916815260200191505b50838103825285818151815260200191508051906020019080838360005b8381101561345b578082015181840152602081019050613440565b50505050905090810190601f1680156134885780820380516001836020036101000a031916815260200191505b5096505050505050506020604051808303818588803b1580156134aa57600080fd5b505af11580156134be573d6000803e3d6000fd5b50505050506040513d60208110156134d557600080fd5b8101908080519060200190929190505050925050505b9392505050565b600080613512731d3b2638a7cc9f2cb3d298a3da7a90b67e5506ed612823565b11156135b457731d3b2638a7cc9f2cb3d298a3da7a90b67e5506ed600260006101000a81548173ffffffffffffffffffffffffffffffffffffffff021916908373ffffffffffffffffffffffffffffffffffffffff1602179055506135ab6040518060400160405280600b81526020017f6574685f6d61696e6e657400000000000000000000000000000000000000000081525061414f565b60019050613a46565b60006135d373c03a2615d5efaf5f49f60b7bb6583eaec212fdf1612823565b11156136755773c03a2615d5efaf5f49f60b7bb6583eaec212fdf1600260006101000a81548173ffffffffffffffffffffffffffffffffffffffff021916908373ffffffffffffffffffffffffffffffffffffffff16021790555061366c6040518060400160405280600c81526020017f6574685f726f707374656e33000000000000000000000000000000000000000081525061414f565b60019050613a46565b600061369473b7a07bcf2ba2f2703b24c0691b5278999c59ac7e612823565b11156137365773b7a07bcf2ba2f2703b24c0691b5278999c59ac7e600260006101000a81548173ffffffffffffffffffffffffffffffffffffffff021916908373ffffffffffffffffffffffffffffffffffffffff16021790555061372d6040518060400160405280600981526020017f6574685f6b6f76616e000000000000000000000000000000000000000000000081525061414f565b60019050613a46565b600061375573146500cfd35b22e4a392fe0adc06de1a1368ed48612823565b11156137f75773146500cfd35b22e4a392fe0adc06de1a1368ed48600260006101000a81548173ffffffffffffffffffffffffffffffffffffffff021916908373ffffffffffffffffffffffffffffffffffffffff1602179055506137ee6040518060400160405280600b81526020017f6574685f72696e6b65627900000000000000000000000000000000000000000081525061414f565b60019050613a46565b600061381673a2998efd205fb9d4b4963afb70778d6354ad3a41612823565b11156138b85773a2998efd205fb9d4b4963afb70778d6354ad3a41600260006101000a81548173ffffffffffffffffffffffffffffffffffffffff021916908373ffffffffffffffffffffffffffffffffffffffff1602179055506138af6040518060400160405280600a81526020017f6574685f676f65726c690000000000000000000000000000000000000000000081525061414f565b60019050613a46565b60006138d7736f485c8bf6fc43ea212e93bbf8ce046c7f1cb475612823565b111561393b57736f485c8bf6fc43ea212e93bbf8ce046c7f1cb475600260006101000a81548173ffffffffffffffffffffffffffffffffffffffff021916908373ffffffffffffffffffffffffffffffffffffffff16021790555060019050613a46565b600061395a7320e12a1f859b3feae5fb2a0a32c18f5a65555bbf612823565b11156139be577320e12a1f859b3feae5fb2a0a32c18f5a65555bbf600260006101000a81548173ffffffffffffffffffffffffffffffffffffffff021916908373ffffffffffffffffffffffffffffffffffffffff16021790555060019050613a46565b60006139dd7351efaf4c8b3c9afbd5ab9f4bbc82784ab6ef8faa612823565b1115613a41577351efaf4c8b3c9afbd5ab9f4bbc82784ab6ef8faa600260006101000a81548173ffffffffffffffffffffffffffffffffffffffff021916908373ffffffffffffffffffffffffffffffffffffffff16021790555060019050613a46565b600090505b90565b6000806001905082845114613a5d57600080fd5b60008090505b83811015613aed57848181518110613a7757fe5b602001015160f81c60f81b7effffffffffffffffffffffffffffffffffffffffffffffffffffffffffffff1916868260208110613ab057fe5b1a60f81b7effffffffffffffffffffffffffffffffffffffffffffffffffffffffffffff191614613ae057600091505b8080600101915050613a63565b50809150509392505050565b6000806000806000606060206040519080825280601f01601f191660200182016040528015613b375781602001600182028038833980820191505090505b5090506000602089600381518110613b4b57fe5b602001015160f81c60f81b60f81c60ff16036004019050613b7189826020856000612439565b9150606060206040519080825280601f01601f191660200182016040528015613ba95781602001600182028038833980820191505090505b509050602282019150613be58a60208c6001860381518110613bc757fe5b602001015160f81c60f81b60f81c60ff160384016020846000612439565b90506020830151945060208101519350613c028b601b8787614169565b80975081985050508573ffffffffffffffffffffffffffffffffffffffff16898051906020012060001c73ffffffffffffffffffffffffffffffffffffffff161415613c58576001975050505050505050613cb0565b613c658b601c8787614169565b80975081985050508573ffffffffffffffffffffffffffffffffffffffff16898051906020012060001c73ffffffffffffffffffffffffffffffffffffffff16149750505050505050505b9392505050565b60008060606002856001860181518110613ccd57fe5b602001015160f81c60f81b60f81c60ff16016040519080825280601f01601f191660200182016040528015613d115781602001600182028038833980820191505090505b509050613d2385858351846000612439565b506060604080519080825280601f01601f191660200182016040528015613d595781602001600182028038833980820191505090505b509050613d6c8660046040846000612439565b50606060626040519080825280601f01601f191660200182016040528015613da35781602001600182028038833980820191505090505b509050600160f81b81600081518110613db857fe5b60200101907effffffffffffffffffffffffffffffffffffffffffffffffffffffffffffff1916908160001a905350613df987604188036041846001612439565b5060606040518060400160405280602081526020017ffd94fa71bc0ba10d39d464d0d8f465efeef0a2764e3887fcc9df41ded20f505c8152509050613e448160006020856042612439565b50613eed6002836040518082805190602001908083835b60208310613e7e5780518252602082019150602081019050602083039250613e5b565b6001836020036101000a038019825116818451168082178552505050505050905001915050602060405180830381855afa158015613ec0573d6000803e3d6000fd5b5050506040513d6020811015613ed557600080fd5b81019080805190602001909291905050508585613af9565b945084613f02576000955050505050506140c9565b6060604051806060016040528060408152602001614769604091399050606060426040519080825280601f01601f191660200182016040528015613f555781602001600182028038833980820191505090505b50905060fe60f81b81600081518110613f6a57fe5b60200101907effffffffffffffffffffffffffffffffffffffffffffffffffffffffffffff1916908160001a905350613fa98a60036041846001612439565b50606060028b604581518110613fbb57fe5b602001015160f81c60f81b60f81c60ff16016040519080825280601f01601f191660200182016040528015613fff5781602001600182028038833980820191505090505b5090506140128b60448351846000612439565b506140bb6002836040518082805190602001908083835b6020831061404c5780518252602082019150602081019050602083039250614029565b6001836020036101000a038019825116818451168082178552505050505050905001915050602060405180830381855afa15801561408e573d6000803e3d6000fd5b5050506040513d60208110156140a357600080fd5b81019080805190602001909291905050508285613af9565b975087985050505050505050505b92915050565b60606140d96141ad565b6140e161458d565b6140ed816104006141b9565b6140f681614203565b60008090505b83518110156141385761412b84828151811061411457fe5b60200260200101518361421190919063ffffffff16565b80806001019150506140fc565b5061414281614236565b8060000151915050919050565b80600390805190602001906141659291906145a7565b5050565b60008060008060405188815287602082015286604082015285606082015260208160808360006001610bb8f192508051915050818193509350505094509492505050565b60405180590338823950565b60008190506000602082816141ca57fe5b06146141e357602081816141da57fe5b06602003810190505b808360200181815250506040518084526000815281810160405250505050565b61420e816004614244565b50565b61421e8260028351614265565b61423181836143a590919063ffffffff16565b505050565b614241816007614244565b50565b614261601f60058360ff16901b178361445090919063ffffffff16565b5050565b601781116142915761428c8160058460ff16901b60ff16178461445090919063ffffffff16565b6143a0565b60ff81116142d2576142b6601860058460ff16901b178461445090919063ffffffff16565b6142cc816001856144909092919063ffffffff16565b5061439f565b61ffff8111614314576142f8601960058460ff16901b178461445090919063ffffffff16565b61430e816002856144909092919063ffffffff16565b5061439e565b63ffffffff81116143585761433c601a60058460ff16901b178461445090919063ffffffff16565b614352816004856144909092919063ffffffff16565b5061439d565b67ffffffffffffffff811161439c57614384601b60058460ff16901b178461445090919063ffffffff16565b61439a816008856144909092919063ffffffff16565b505b5b5b5b5b505050565b6143ad61458d565b826020015183600001515183510111156143dd576143dc8360026143d6866020015186516144f7565b02614513565b5b60008060008451905085518051602081830101945086518101825260208701935050505b602081106144245781518352602083019250602082019150602081039050614401565b60006001826020036101000a039050801983511681855116818117865250508694505050505092915050565b8160200151600183600001515101111561447657614475826002846020015102614513565b5b815180516020818301018381536001820183525050505050565b61449861458d565b8360200151846000015151830111156144c6576144c58460026144bf8760200151866144f7565b02614513565b5b60006001836101000a0390508451805184818301018684198251161781528582018352505050849150509392505050565b6000818311156145095782905061450d565b8190505b92915050565b60608260000151905061452683836141b9565b61453083826143a5565b50505050565b6040518060400160405280600073ffffffffffffffffffffffffffffffffffffffff168152602001600081525090565b60405180608001604052806004905b60608152602001906001900390816145755790505090565b604051806040016040528060608152602001600081525090565b828054600181600116156101000203166002900490600052602060002090601f016020900481019282601f106145e857805160ff1916838001178555614616565b82800160010185558215614616579182015b828111156146155782518255916020019190600101906145fa565b5b5090506146239190614627565b5090565b61464991905b8082111561464557600081600090555060010161462d565b5090565b9056fe706c65617365207069636b206120612077686f6c65206e756d626572206265747765656e203020616e642031706c65617365207761697420756e74696c20796f75722063757272656e742073657373696f6e20697320636f6d706c6574654d7573742073656e64206174206c6561737420302e3120657468657220746f2074686520636f6e7472616374636f6e747261637420697320656d7074792e20506c65617365207761697420666f722074686520636f6e7472616374206f776e657220746f2070726f76696465206c6971756964697479596f7520646f206e6f74206861766520616e792077696e6e696e6720746f207769746864726177536166654d6174683a206d756c7469706c69636174696f6e206f766572666c6f777fb956469c5c9b89840d55b43537e66a98dd4811ea0a27224272c2e5622911e8537a2f8e86a46baec82864e98dd01e9ccc2f8bc5dfc9cbe5a91a290498dd96e450726f7661626c65207175657279207761732073656e742c207374616e64696e6720627920666f722074686520616e737765722e2e2e496e73756666696369656e7420636f6e74726163742066756e647320666f72207769746864726177616c2e20506c6561736520776169742074696c6c2074686520636f6e747261637420686173206d6f72652066756e647320617661696c61626c652ea265627a7a72315820badd77741e5d8133c898e9692bc74b47033f01a3c6607f8c1d827dd95c6b3f3064736f6c634300050c0032",
  "source": "import \"./Ownable.sol\";\r\nimport \"./provableAPI.sol\";\r\nimport \"./Destroyable.sol\";\r\nimport \"./SafeMath.sol\";\r\npragma solidity 0.5.12;\r\n\r\n\r\ncontract CoinFlip is Ownable, Destroyable, usingProvable {\r\n\r\n\r\nusing SafeMath for uint256;\r\n\r\nstruct Bet {\r\naddress player;\r\nuint value;\r\n}\r\n\r\nstruct Player {\r\nuint earnings;\r\nuint wins;\r\nuint loss;\r\nuint latestGuess;\r\nuint outcome;\r\nbool isWaiting;\r\n}\r\n\r\nuint256 constant NUM_RANDOM_BYTES_REQUESTED = 1;\r\n\r\nuint private spend = 0.1 ether;\r\n\r\nuint public balance;\r\n\r\nmapping (address => Player) private players;\r\nmapping (bytes32 => Bet) private waiting;\r\n\r\n\r\nevent FlipOutcome(address player, uint outcome);\r\nevent LogNewProvableQuery(string description);\r\nevent WithdrawEarnings(address player, uint earnings);\r\n\r\n modifier minimumCost(uint cost) {\r\n     require(msg.value >= spend, \"Must send at least 0.1 ether to the contract\");\r\n     _;\r\n}\r\n\r\n constructor() public {\r\n     balance = 0;\r\n     provable_setProof(proofType_Ledger);\r\n }\r\n\r\n\r\nfunction getPlayer() public view returns(uint, uint, uint, uint, uint, bool){\r\n    return(players[msg.sender].earnings, players[msg.sender].wins, players[msg.sender].loss, players[msg.sender].latestGuess, players[msg.sender].outcome, players[msg.sender].isWaiting);\r\n}\r\n\r\n\r\n function __callback(bytes32 _queryId, string memory _result, bytes memory _proof) public {\r\n  require(msg.sender == provable_cbAddress());\r\n\r\n   if (provable_randomDS_proofVerify__returnCode(_queryId, _result, _proof) != 0) {\r\n            players[waiting[_queryId].player].isWaiting = false;\r\n        } else {\r\n\r\n            players[waiting[_queryId].player].outcome = uint256(keccak256(abi.encodePacked(_result))) % 2;\r\n\r\n\r\n            finaliseOutcome(_queryId);\r\n\r\n            emit FlipOutcome(waiting[_queryId].player, players[waiting[_queryId].player].outcome);\r\n\r\n            delete waiting[_queryId];\r\n\r\n      }\r\n}\r\n\r\nfunction flip(uint guess) public payable minimumCost(spend)\r\n{\r\n  require(guess == 0 || guess == 1, \"please pick a a whole number between 0 and 1\");\r\n  require(balance > 0, \"contract is empty. Please wait for the contract owner to provide liquidity\");\r\n  require(players[msg.sender].isWaiting == false, \"please wait until your current session is complete\");\r\n\r\n\r\n  players[msg.sender].latestGuess = guess;\r\n  balance = balance.add(msg.value);\r\n\r\n  uint256 QUERY_EXECUTION_DELAY = 0; // NOTE: The datasource currently does not support delays > 0!\r\n  uint256 GAS_FOR_CALLBACK = 300000;\r\n\r\n  //FOR PRODUCTION\r\n  bytes32 queryId = provable_newRandomDSQuery(\r\n      QUERY_EXECUTION_DELAY,\r\n      NUM_RANDOM_BYTES_REQUESTED,\r\n      GAS_FOR_CALLBACK\r\n  );\r\n\r\n  Bet memory b;\r\n\r\n  b.player = msg.sender;\r\n  b.value = msg.value;\r\n  waiting[queryId] = b;\r\n  players[msg.sender].isWaiting = true;\r\n\r\n  emit LogNewProvableQuery(\"Provable query was sent, standing by for the answer...\");\r\n\r\n}\r\n\r\n\r\nfunction finaliseOutcome(bytes32 _queryId) public payable {\r\n  require(players[waiting[_queryId].player].outcome == 0 || players[waiting[_queryId].player].outcome == 1);\r\n\r\n  uint expected = players[waiting[_queryId].player].latestGuess;\r\n  uint result = players[waiting[_queryId].player].outcome;\r\n\r\n  address sender = waiting[_queryId].player;\r\n  uint cost = waiting[_queryId].value;\r\n\r\n  if(expected == result){\r\n     uint won = cost.mul(2);\r\n\r\n      players[sender].earnings = players[sender].earnings.add(won);\r\n      players[sender].wins = players[sender].wins.add(1);\r\n\r\n      assert(expected == result);\r\n\r\n\r\n  } else if(expected != result) {\r\n\r\n     players[sender].loss = players[sender].loss.add(1);\r\n\r\n     assert(expected != result);\r\n\r\n  }\r\n\r\n  players[sender].isWaiting = false;\r\n\r\n  assert(result == 0 || result == 1);\r\n\r\n}\r\n\r\n\r\nfunction withdraw_earnings() public {\r\n    require(players[msg.sender].earnings > 0, \"You do not have any winning to withdraw\");\r\n    require(balance >= players[msg.sender].earnings, \"Insufficient contract funds for withdrawal. Please wait till the contract has more funds available.\");\r\n\r\n     uint tmp_earnings = players[msg.sender].earnings;\r\n     msg.sender.transfer(tmp_earnings);\r\n     balance -= tmp_earnings;\r\n     players[msg.sender].earnings = 0;\r\n\r\n     assert(balance >= players[msg.sender].earnings);\r\n\r\n     emit WithdrawEarnings(msg.sender, tmp_earnings);\r\n}\r\n\r\nfunction addLiquidity() public payable minimumCost(spend) onlyOwner returns(uint) {\r\n\r\n    uint old_balance = balance;\r\n\r\n    balance += msg.value;\r\n\r\n    assert(balance > old_balance);\r\n\r\n    return balance;\r\n\r\n}\r\n\r\n\r\n}\r\n",
  "sourcePath": "D:/Ivan On Tech Academy/Ethereum Programming 201/CoinFlip/contracts/CoinFlip.sol",
  "compiler": {
    "name": "solc",
    "version": "0.5.12+commit.7709ece9.Emscripten.clang"
  },
  "schemaVersion": "3.0.16",
  "updatedAt": "2020-11-20T00:28:49.602Z",
  "devdoc": {
    "methods": {
      "__callback(bytes32,string)": {
        "details": "The following `__callback` functions are just placeholders ideally     meant to be defined in child contract when proofs are used.     The function bodies simply silence compiler warnings."
      }
    }
  },
  "userdoc": {
    "methods": {}
  }
}