{
  "contractName": "Destroyable",
  "abi": [
    {
      "constant": false,
      "inputs": [],
      "name": "destroy",
      "outputs": [],
      "payable": false,
      "stateMutability": "nonpayable",
      "type": "function"
    }
  ],
  "bytecode": "0x6080604052336000806101000a81548173ffffffffffffffffffffffffffffffffffffffff021916908373ffffffffffffffffffffffffffffffffffffffff16021790555060fc806100526000396000f3fe6080604052348015600f57600080fd5b506004361060285760003560e01c806383197ef014602d575b600080fd5b60336035565b005b6000809054906101000a900473ffffffffffffffffffffffffffffffffffffffff1673ffffffffffffffffffffffffffffffffffffffff163373ffffffffffffffffffffffffffffffffffffffff1614608d57600080fd5b6000809054906101000a900473ffffffffffffffffffffffffffffffffffffffff1673ffffffffffffffffffffffffffffffffffffffff16fffea265627a7a723158200c21ef8b418fbf6c38abfef66200d93ac08a11e294bad0320e58dbebcbfd3eff64736f6c634300050c0032",
  "source": "import \"./Ownable.sol\";\r\npragma solidity 0.5.12;\r\n\r\n\r\ncontract Destroyable is Ownable {\r\n\r\n\r\nfunction destroy() public onlyOwner() {\r\n  selfdestruct(address(uint160(owner)));\r\n\r\n}\r\n\r\n\r\n\r\n}\r\n",
  "sourcePath": "D:\\Ivan On Tech Academy\\Ethereum Programming 201\\CoinFlip\\contracts\\Destroyable.sol",
  "compiler": {
    "name": "solc",
    "version": "0.5.12+commit.7709ece9.Emscripten.clang"
  },
  "schemaVersion": "3.0.16",
  "updatedAt": "2020-11-15T01:46:03.275Z",
  "devdoc": {
    "methods": {}
  },
  "userdoc": {
    "methods": {}
  }
}